:105C000055425C0135D0085A824554363140005C1B
:105C10003F407A010F930824924254365C012F834F
:105C20009F4F9ADD001CF8233F40DA180F9307249A
:105C3000924254365C011F83CF437A1DF92331828F
:105C4000B0129068B0121E7FB012A8806F42B012DE
:105C5000BE803E4021000F43B012BC695F43B012CA
:105C6000BE80B01224BE5F4236367FF0FEFFC24FC8
:105C700036365E423B360E125E423A360E125E42B7
:105C800039360E125E4238360E125E4237360E122A
:105C90004F4F0F125F4235360F125F4234360F12EC
:105CA000301268DAB012F2CE31501200B012A2896E
:105CB0006F42B012BE80B012786AA2424E1F5F429D
:105CC00034362F52B012788DB0121A880E433F40EE
:105CD0008C1CB0124A89B0126A83B012DA672D4365
:105CE0000E430F41B012F8671F424E1F0F9307205B
:105CF000D1423B360000D1423A360100053CC14F4B
:105D000000008F10C14F01000F41B0120EBA3012C7
:105D100097DAB012F2CE5F410200814F00003012DC
:105D2000A2DAB012F2CE21525F4101000F123012FE
:105D3000A6DAB012F2CE2152B01274785A4232363C
:105D40008A105F4233360A5F3D420E430F41B01264
:105D5000F8673E4032360F41B012F4B95F41070098
:105D60000F125F4108000F125F4109000F125F41DF
:105D70000A000F125F410B000F125F410C000F125F
:105D80005F410D000F125F410E000F123012AADAB0
:105D9000B012F2CE315012000D410E4A3F40CDAB51
:105DA000B012A0763012D7DAB012F2CE21537F4073
:105DB0000700B012C8801F424E1F0F9307240F1216
:105DC0003012EDDAB012F2CE2152043C3F40FADA42
:105DD000B01228D7921232DD9212FEDC921250DC01
:105DE0001A423EDD8A120F9309248A120C4F0D438A
:105DF0003E4080000F43B01272CE033C3E40800014
:105E00000F4330120B001F15121230DD1212FCDC92
:105E1000121212DD30120BDBB012F2CE31500E0036
:105E20003F401A8BB0129E69B012648BB0121EA54F
:105E30005E4232365E0E0F4E3F501000B012AAA4E2
:105E4000B0122082B0128681824F9E35D2439235A5
:105E5000301242DBB012F2CE21533A4014D9083C42
:105E60001F12020030124BDBB012F2CE21522A5325
:105E70002F4A0F93F5233F400A00B012D47D3F40D4
:105E800014D9B012F681B0123A69B0126069B0123A
:105E90004E69B01236880F930124F937B012266983
:105EA0000A4FB012DA880F930420B01290694F9312
:105EB000022402DAEC3FC293923514241A42603570
:105EC0001B426235B0128681084F18829E35094305
:105ED0000E480F490E5A0F6B824E6035824F623565
:105EE000C2439235B0128681824FA035D24393359A
:105EF0001D42401F1E42421F2F43B0128A82B01221
:105F0000606932D0D80032C203432F43B0124882B6
:105F1000824E401F824F421F32D2B0123A69C29362
:105F2000933514241A4264351B426635B0128681BB
:105F3000064F1682A03507430E460F470E5A0F6BC9
:105F4000824E6435824F6635C2439335B0128681E6
:105F5000824F9E35D24392359A3F32D0F000FD3FBA
:105F600030408ED80B123150F6FF0B4F2F4F3F9021
:105F700027030F243F9038031D240F937F200D43E8
:105F80000E433F40081FB0120C86BB4027030000A1
:105F90007A3C3F40081FB0127A860F936820733C0A
:105FA0000D430E433F40141FB0120C86BB40380314
:105FB0000000693C3F40141FB0127A860F9363249F
:105FC000C293731EDC231F42F834B012A28B824F9F
:105FD000201FD253221F1F42DE34CF9309000F240B
:105FE000F2400B00231F7F400B00B0120A7A5F4281
:105FF000231F0F12301290D8B012F2CE21521F423E
:10600000201FEF9202000320E1420000023CF14217
:106010000000D14F06000600D142E03401001E42CC
:10602000F0340F412F53B012F4B91E42201F2E52EC
:106030000F412F52B012F4B91F42201FD14F070059
:106040000700D142221F0800C14309003E400A0058
:106050000F41B0127AB93E4005003F40B41DB01266
:1060600028B01E42201F1F42FA34B012EA8C1F4291
:10607000F834B012448C0F938227923F8B43000078
:106080007F400300013C5F4331500A003B413041F7
:106090000B120B4F2F4F0F9304243F9069023120B6
:1060A000053CBB40690200005F432F3C5E92BA345E
:1060B000F8235F42DC347F90100010203C407A1DB2
:1060C0003D40861D3E40BC343F40DC34B012669EED
:1060D0000D435E42BA341F42741F083C7F9020007B
:1060E00008200D435E423C353F40141CB012E88846
:1060F000D83F6F92D6230D435E42CF343F403C1CC5
:10610000F53F8B4300007F4003003B4130410B12C1
:106110000B4F2F4F0F9304243F9096023820043CDE
:10612000BB4096020000383C5E923C3535205F4211
:10613000DC347F90200018203C407A1D3D40861DB5
:106140003E40BC343F40DC34B012669E3D407A1D78
:106150003E40861D3F40DC34B01242A00D435E42FB
:106160003C351F42741F083C7F90100008200D43EF
:106170005E42BA343F400A1CB012E888D13F6F92A9
:10618000CF230D435E42CF343F403C1CF53F8B4351
:1061900000007F400300013C5F433B4130410B1254
:1061A0000B4F2F4F0F9304243F90AF031920133C44
:1061B0004E433F40B41DB01224B1B012146C929300
:1061C000323609201E433F40B41DB012D8AF7F4085
:1061D0000700B012D680BB40AF0300005F43043C11
:1061E0008B4300007F4003003B4130410B120B4FBB
:1061F0002F4F0F9304243F90F1023520053CBB4004
:10620000F10200005F43333C5E92CE34F8235F42DC
:10621000DC345F9316203D407A1D3E40861D3F4092
:10622000DC34B01282A13D407A1D3E40861D3F40C5
:10623000DC34B01242A00D435E42CE341F42741FC4
:10624000073C6F9208200D435E42CF343F403C1C18
:10625000B012E888D43F7F92D2230D435E4244358A
:106260003F40321CF53F8B4300007F4003003B4121
:1062700030410B120B4F2F4F0F9304243F903502E8
:106280003E20053CBB40350200005F433C3C5E9233
:10629000CF34F8235F42DC346F9216203D407A1DE4
:1062A0003E40861D3F40DC34B01282A13D407A1D45
:1062B0003E40861D3F40DC34B01242A00D435E429A
:1062C000CF341F42741F103C7F90100006200D43F6
:1062D0005E42BA343F400A1C073C5F9308200D43DE
:1062E0005E42CE343F40281CB012E888CB3F7F92FC
:1062F000C9230D435E4244353F40321CF53F8B437A
:1063000000007F4003003B4130410B120B4F2F4FE9
:106310000F9304243F90C4023F20053CBB40C402BD
:1063200000005F433D3C5E924435F8235F42DC341D
:106330007F9218203C407A1D3D40861D3E40BC3473
:106340003F40DC34B012669E3D407A1D3E40861DC3
:106350003F40DC34B01242A00D435E4244351F4240
:10636000741F0B3C5F930C203F40DC34B01266A2DC
:106370000D435E42CE343F40281CB012E888CE3F29
:106380006F92CC233F40DC34B01266A20D435E42D4
:10639000CF343F403C1CF13F8B4300007F40030063
:1063A0003B4130410B120B4F2F4F3F90CF0109243F
:1063B0003F90DA011D240F937620BB40CF010000EF
:1063C000773C5E92C234F923C293F81E17203F40F7
:1063D000DC34B0126297D243F81E3D40003C0E43BD
:1063E0003F40FA1EB0120C86BB40DA010000603C50
:1063F0003F40FA1EB0127A860F935A245F42DC3473
:106400006F931720F2901000DD3405204E433F407B
:10641000B41DB01224B13D407A1D3E40861D3F4060
:10642000DC34B0126C950D435E42C2341F42741FBF
:106430001B3C5F931C20F2400B00061F7F400B00AB
:10644000B0120A7A5F42061F0F123012B0D8B01293
:10645000F2CE21520E433F40001CB0124A890D4338
:106460005E42CE343F40281CB012E888A63F6F92AF
:10647000A423F2400B00071F7F400B00B0120A7AE2
:106480005F42071F0F123012B0D8B012F2CE215265
:106490000E433F40001CB0124A890D435E42CF3488
:1064A0003F403C1CE13F8B4300007F400300013C28
:1064B0005F433B4130411B1521830B4F4A4E7E9079
:1064C00083FF08203F407A1DB01282B13F40861DF5
:1064D000B012DA922F4B0F9304243F906A01F320FD
:1064E000623CB0120288C24FD034B0120288C24F50
:1064F0004535B0120288C24FC234B0120288C24F72
:10650000CE34B0120288C24FCF34B0120288C24FCC
:106510004435B0120288C24FAE34B0120288C24F66
:10652000BA34B0120288C24F3C355F423236B012E4
:10653000AAA4B0121E7A0F123012C8D8B012F2CE2E
:1065400021523D405CDA3E4081003F407A1DB0124E
:1065500060B13D4060DA3E4090003F40861DB01281
:10656000AC923F40F61EB012808B3F405A1CB012D6
:10657000768C5E433F40B41DB01224B13C4066DAD5
:106580005D433E4082003F40B41DB012BCAE0D439F
:106590005E4245351F42741FB012E888BB406A0155
:1065A00000005F43943C5A9245351E209293323648
:1065B00014203E4032363F40F434B012F4B9B240B9
:1065C0003236F0340E433F401E1CB0124A890D4350
:1065D0005E42D0343F401E1C053C0D435E42AE344B
:1065E0001F42741FB012E8885A92AE34D723531258
:1065F0003012EA1E53123012DE1E3012D21E30123A
:10660000B41D3012C61E3012BA1E3012AE1E301229
:10661000A21E3012961E30128A1E30127E1E3012BA
:10662000BC3430123236301232363012323630123A
:106630003236221243124312031203127012640004
:10664000431273127012FAFF531253123C40C434B7
:106650005D436E433F40DC34B012629931503A00E2
:10666000D1430000C1430100621272120C412C524E
:106670004D434E433F40BC34B0122E9321520E4343
:106680003F40461CB0124A890E433F403C1CB012AA
:106690004A890E433F400A1CB0124A890E433F40CC
:1066A000141CB0124A890E433F40321CB0124A8972
:1066B0000E433F40281CB0124A890D435E42C2344B
:1066C0003F40461C693F8B4300007F40030021533D
:1066D0001A1730413B150B4F4A4E494DB012D0B8F6
:1066E000084FB012E8B808120F124D490D124F4A68
:1066F0000F125F4B01000F126F4B0F123012D9D8DF
:10670000B012F2CE31500E00B012D0B84A120C4B7B
:106710000D4F0E433F40DC34B0127C9B21533817A1
:1067200030414C4D0D4E0E4F3F40DC34B0125A9C60
:1067300030411B150B4F0A4EB012D0B80C4A0D4F0A
:106740000E4B3F40DC34B0125C9C1A1730413B15B5
:10675000084F094E4A4D3F40F61EB012868B0B4F34
:10676000083C0E490F4B2F53B012FCB90F93042075
:106770002B4B0B93F623243CCB9A04001320283C8C
:106780003F40F61EB012A28B0B4F0E490F4B2F53FA
:10679000B012F4B9CB4A04000E4B3F40F61EB012C3
:1067A000088C023CCB4A0400B012D0B84A120C4903
:1067B0000D4F0E483F40DC34B0127C9B2153083C07
:1067C0003F405A1CB012AC8C0B4F0F93DE23D83FC6
:1067D00038173041B01228D730410E433F406E1C6D
:1067E000B0124A8930410C4F043CFC4E00001C534F
:1067F0003D530D93FA2330410C4F043CCC4E000026
:106800001C533D530D93FA23304130411E42441F27
:106810001F42461F3041824E441F824F461F32C2E4
:10682000034332D0400082436001B2405000620115
:106830008E108F104EEF0EEF4F4F7D40070012C3AA
:106840000F100E107D53FB233E50FF0F824E64014C
:1068500032C04000B2F0F0FF6E01B2F0FDFF020165
:106860003F40040D1F83FE2303430343A2B30201F1
:10687000F12392426601660192426801680132D2B8
:1068800030413E4060823F403B00B01216683041CC
:1068900032C20343B0127669C2430A02C2430B02FA
:1068A000C2432A02C2432B02C2434A02C2434B02E2
:1068B000C2430402C2430202F24040000502C24346
:1068C0000302F24040000B02C2432402C2432202F0
:1068D000C2432502C2432302C2434402C2434202CE
:1068E000C2434502C2434302C2436402C24362023E
:1068F000F2D003006A02C2436502C2436302C2438C
:106900001A02C2431B028243441FB2401000461FBA
:10691000B012826832D21F426A1C1FB303241F5375
:10692000824F6A1C30410F4232C23FF2304102DFD7
:106930003041304182435C0100131F42481F3F53E6
:10694000824F481F0320B2403C5A5C0130411F4235
:106950005C013FF0FF003FD0185A824F5C0130418C
:106960001F42481F1F53824F481F1F930320B240EE
:10697000805A5C0130418243481FB0126069B2F016
:10698000FEFF020192D30001304182435C0130419D
:106990005F428A065E424A1F5FF34FDE3041824FFC
:1069A0004C1F30410B124B4FB0124E695F428A06AA
:1069B0001FF3FC23C24B8E063B413041D2D38006ED
:1069C000F2D080FF8006C24E86068E108F104EEFEA
:1069D0000EEFC24E8706F24006008806F2F0DFFF97
:1069E0008502F2D010008502F2D030008B02C24343
:1069F0004A1FF2F0FEFF9C06F2F0FDFF9C06F2F04B
:106A0000FEFF8006D2D39C0630415F15B01286810E
:106A1000824FA235D24394351F429E062F931320F6
:106A20005F428A062FF203245F428C060C3C5F42D1
:106A30008C061E424C1F0E9306248E120F930324C5
:106A4000B1C0F0000C00C293943514241A4268358A
:106A50001B426A35B01286810C4F1C82A2350D4351
:106A60000E4C0F4D0E5A0F6B824E6835824F6A35B1
:106A7000C24394355A17001321822D423E4080199B
:106A80000F41B012E667D1926C1C00000420D19235
:106A90006D1C01000524E1430200F14003000300E6
:106AA0005F4102008F105E4103000FDE824F4E1FD8
:106AB000215230410B120B4FB0120CC13F408019D4
:106AC000B01232C13E40CDAB3F408019B01280C100
:106AD0000E4B3F408419B01280C1B01224C13B411B
:106AE00030413F507FFF2F93052C5F421B023FF048
:106AF000400030410F4330413F90810022200E93EF
:106B00001824B012E26A0F931E200D430E433F403B
:106B10003C36B012F289F2D040001902F2F0BFFF09
:106B20000B02F2F0BFFF05025F421B027FD0400064
:106B3000043C5F421B027FF0BFFFC24F1B021F439A
:106B400030410F4330411F4330415F4201023FF06B
:106B5000400009203F403C36B012308A1E430F935C
:106B600003240E43013C1E430F4E30413F507FFF34
:106B70002F93052C5F421B023FF0800030410F43F2
:106B800030413F90810022200E931824B0126C6B8C
:106B90000F931E200D430E433F404C36B012F28936
:106BA000F2D080FF1902F2F07F000B02F2F07F00BA
:106BB00005025F421B027FD080FF043C5F421B0244
:106BC0007FF07F00C24F1B021F4330410F43304113
:106BD0001F4330415F4201023FF0800009203F40E7
:106BE0004C36B012308A1E430F9303240E43013CEF
:106BF0001E430F4E3041D2D343023F4070DBB012F0
:106C000028D73041F2F0FEFF43023F4098DBB0123C
:106C100028D730413F40B4DBB01228D7F2F0FEFF56
:106C20004B02D2D34502F2F0FEFF430230413F5007
:106C30007FFF2F93042C5F421B023FF230410F4332
:106C400030413F90810021200E931724B0122E6C0A
:106C50000F931D200D430E433F404436B012F2897E
:106C6000F2F0F7FF1902F2F0F7FF0B02F2F0F7FF74
:106C700005025F421B027FD2043C5F421B027FF091
:106C8000F7FFC24F1B021F4330410F4330411F43E8
:106C900030415F4201023FF209203F404436B012CA
:106CA000308A1E430F9303240E43013C1E430F4EB4
:106CB0003041F2F0FEFF4B02D2D34502F2F0FEFF6C
:106CC00043023041D2D343023041F2F0FEFF43028F
:106CD0003041F2D21B023041F2F0F7FF1B0230418B
:106CE0000B120B4F2F4F3F90770023243F907E00D5
:106CF00036240F934C20B0120288C24F4A3582438B
:106D0000521F093CCF4346350E433F4080009D1241
:106D100004009253521F1F42521F0E4F5E021D4E1F
:106D2000621C0D93EF23C24F501FBB407700000041
:106D3000333C8243541F8243521F1F3CCF9346353E
:106D40001A345F021D4F621C5E424A350F43B01277
:106D5000E8880F930720BB407E0000001D3C5E9238
:106D60004A351A201F42521F3F504635FFF07F0020
:106D700000009253541F9253521F1F42521F5E42F3
:106D8000501F0F9EDB3B8293541FD323CE3F8B4378
:106D900000007F400300013C5F433B4130411F4204
:106DA000621C30410B125B42501F3E40621C0D437F
:106DB000053C2E538E9FFEFF05240D4C0C4D1C539D
:106DC0000D9BF73B0F4C5F021F4F621C3B41304154
:106DD0005C42501F3D40621C0E43053C2D538D9F6D
:106DE000FEFF03241E530E9CF93BFED080FF463568
:106DF0003F406E1CB0127C8930414B15094F0D4F3E
:106E00003D531D53CD930000FC23074D07893840A7
:106E1000621C0A43093C3B480D472E4B0F49B012F8
:106E2000AACE0F9306241A535F42501F0A9FF33BCA
:106E30000B430F4B471730410E931F241F93102411
:106E400007283F900A0010243F900B001820103CA8
:106E50001F43C293581F01200F438E4F00000B3C6D
:106E60009E425C1F0000073CBE400B000000033C3C
:106E7000BE401A0000000F4330412F4330411F43F2
:106E800030411F4330411F4330415F4201021FF335
:106E900030415E4200023EF040001F4301200F439C
:106EA00030410B12F2F0FEFFE0053F400500B0124A
:106EB000467FF2F0EFFF22023F400500B012467F0E
:106EC0005F42FD052FF3FC27C243EE055F42EA0552
:106ED0001FF3FC235B42EC053F400500B012467FE8
:106EE000D2D3E0051F43B012467FF2D01000220239
:106EF0003F400500B012467F4F4B3B4130410B12E3
:106F00004B4FF2F0FEFFE0053F400500B012467F18
:106F1000F2F0EFFF22023F400500B012467F5F42D1
:106F2000FD052FF3FC27C24BEE055F42EA051FF378
:106F3000FC233F400500B012467FD2D3E0051F433B
:106F4000B012467FF2D0100022023F400500B0127E
:106F5000467F3B4130410B12F2D040001A027F4085
:106F60004200B012FE6EB01286813B40B9FE0B8F1C
:106F7000B012A26E3FF080000520B01286810F5B38
:106F80000F93F63BB0128681824FAC35D2439935D0
:106F9000D243581F3B413041F2F0FEFFE0053F4035
:106FA0000500B012467FF2F0EFFF22023F400500DD
:106FB000B012467F5F42FD052FF3FC27F240300000
:106FC000EE055F42EA051FF3FC235F42EC05C24376
:106FD000EE055F42FD051FF3FC275F42EC051F43F2
:106FE000B012467F3F400500B012467FD2D3E00585
:106FF0001F43B012467FF2D0100022023F4005002E
:10700000B012467FF2F0FEFFE0053F400500B012EF
:10701000467FF2F0EFFF22023F400500B012467FAC
:107020005F42FD052FF3FC27F2404700EE055F426B
:10703000EA051FF3FC233F400500B012467FD2D380
:10704000E0051F43B012467FF2D0100022023F40FD
:107050000500B012467FF2F0FEFFE0053F4005005C
:10706000B012467FF2F0EFFF22023F400500B0125F
:10707000467F5F42FD052FF3FC27F2404700EE05F7
:107080005F42EA051FF3FC233F400500B012467F34
:10709000D2D3E0051F43B012467FF2D01000220287
:1070A0003F400500B012467F30411B15C243581FB8
:1070B000B01286813A4034F30A8FB012A26E2FF3D9
:1070C0000524B01286810F5A0F93F73BC29399356E
:1070D00014241A427C351B427E35B01286810C4F37
:1070E0001C82AC350D430E4C0F4D0E5A0F6B824E69
:1070F0007C35824F7E35C24399357F404500B012C2
:10710000FE6EF2F0BFFF1A025F4200023FF0400045
:107110000220B012986F1A173041D293591F0E20D7
:10712000C2935B1F0424B012566FC2435B1FC2930D
:107130005A1F0424B012AA70C2435A1FF253591F97
:1071400030411B150B4F0A4EF2F0FEFFE0053F40A9
:107150000500B012467FF2F0EFFF22023F4005002B
:10716000B012467F5F42FD052FF3FC27F24030004E
:10717000EE055F42EA051FF3FC235F42EC054C433A
:107180000D3CC243EE055F42FD051FF3FC275F4245
:10719000EC054D4C0D5BCD4F00005C534D4C0D9AF2
:1071A000F03B1F43B012467F3F400500B012467FC0
:1071B000D2D3E0051F43B012467FF2D01000220266
:1071C0003F400500B012467F1A1730411B150B4F88
:1071D0004A4EF2F0FEFFE0053F400500B012467F48
:1071E000F2F0EFFF22023F400500B012467F5F42FF
:1071F000FD052FF3FC270F4B8F107FD02000C24FCF
:10720000EE055F42FD052FF3FC27C24BEE055F4202
:10721000FD052FF3FC27C24AEE055F42EA051FF386
:10722000FC233F400500B012467FD2D3E0051F4348
:10723000B012467FF2D0100022023F400500B0128B
:10724000467F1A1730412B150A4F0B4ED253591F48
:107250007F404800B012FE6E494B6953F2F0FEFFCA
:10726000E0053F400500B012467FF2F0EFFF22023A
:107270003F400500B012467F5F42FD052FF3FC271B
:10728000F2403A00EE055F42FD052FF3FC27C249AC
:10729000EE055F42FD052FF3FC275F42EA051FF371
:1072A000FC233F400500B012467FD2D3E0051F43C8
:1072B000B012467FF2D0100022023F400500B0120B
:1072C000467FF2F0FEFFE0053F400500B012467F2A
:1072D000F2F0EFFF22023F400500B012467F5F420E
:1072E000FD052FF3FC27F2403A00EE054D430C3C20
:1072F0005F42FD052FF3FC270C5AE24CEE055F427E
:10730000FD052FF3FC275D534C4D0C9BF12B5F4289
:10731000EA051FF3FC233F400500B012467FD2D39D
:10732000E0051F43B012467FF2D0100022023F401A
:107330000500B012467FB0121A710F432917304171
:107340000B120B4FF2F0FEFFE0053F400500B012BC
:10735000467FF2F0EFFF22023F400500B012467F69
:107360005F42FD052FF3FC270F4B8F107FD01000DD
:10737000C24FEE055F42EA051FF3FC235F42FD05A5
:107380002FF3FC27C24BEE055F42EA051FF3FC23F7
:10739000C243EE055F42FD051FF3FC275B42EC058F
:1073A0003F400500B012467FD2D3E0051F43B01224
:1073B000467FF2D0100022023F400500B012467F07
:1073C0004F4B3B413041C293581F0C20C293591F71
:1073D0000324D2435B1F063CD243591FB012566FA1
:1073E000B0121A711F433041C293581F1324C29325
:1073F000591F0324D2435A1F0D3CD243591FB012C8
:10740000A26E2FF30324D2435A1F023CB012AA707B
:10741000B0121A711F4330411B15C293591F3120FE
:10742000D243591FC293581F0420B012C6731A4387
:10743000013C0A43C293581F0720B0121A710A93E5
:107440002024B012E8731D3CB01286813B40B9FE87
:107450000B8FB012A26E3FF040000520B012868163
:107460000F5B0F93F63B5F4200028F110F5F0F43DC
:107470000F6F0B4F0A930224B012E873B0121A7107
:10748000013C1B430F4B1A1730412B1521830A4F28
:10749000094E5F4200023FF040007B24D253591F47
:1074A00092535635F2F0FEFFE0053F400500B01262
:1074B000467FF2F0EFFF22023F400500B012467F08
:1074C0005F42FD052FF3FC27F2403000EE055F42DE
:1074D000EA051FF3FC235F42EC05C243EE055F4261
:1074E000FD051FF3FC275B42EC051F43B012467FEE
:1074F0003F400500B012467FD2D3E0051F43B012D3
:10750000467FF2D0100022023F400500B012467FB5
:107510004B9307387B90030004284E4B2E83099E23
:10752000052CB012986FB0121A71333C0F4AB0128A
:1075300042712E430F41B01242715E4101004E93E1
:1075400011346D41C24D58357EF07F00C24E5E351C
:107550003F400636C24D0636AF11C24E0436CF4309
:10756000FFFF013C6B435F4200023FF040000C24F0
:107570005F4200023FF020000320B012986F043CED
:107580003F40781CB0127C89B0121A714F4B2F8388
:10759000013C0F432153291730410B120B4F2F4F42
:1075A0000F9304243F90AB021820043CBB40AB0275
:1075B0000000183C7E9082FF1520B01260B9924204
:1075C000561F0836B012D0B83E408000B0128A7400
:1075D000B012CAB8921238DDE93F8B4300007F40F9
:1075E0000300013C5F433B4130411F425C1F30417F
:1075F0001B15D253591F824F5C1F0B4F5B060B5F4D
:107600003B50D4FFB01286813A4034F30A8FB01257
:10761000A26E3FF080000520B01286810F5A0F93B2
:10762000F63BB01286813A4034F30A8FB012A26E54
:107630002FF30524B01286810F5A0F93F73B4E4B60
:107640003F402E00B012CC71C293581F04247F40DB
:107650004200B012FE6EB0121A711F431A17304169
:107660000F9303241F9318200C3C1E930320B01289
:10767000C673103C0E930320B012E8730B3C2F43EB
:1076800030410F4E3F50F5FF3F901000072C0F4E3A
:10769000B012F0750F4330411F4330412F4330414A
:1076A0003B153150F6FF094F0A4E084DD253591F72
:1076B000B01286813B4034F30B8FB012A26E3FF0C4
:1076C00080000520B01286810F5B0F93F63BC14905
:1076D00000008910C1490100F2F0FEFFE0053F40C3
:1076E0000500B012467FF2F0EFFF22023F40050096
:1076F000B012467F5F42FD052FF3FC27F2402300C6
:10770000EE055F42FD052FF3FC27F240F2FFEE0588
:107710000F435E42FD052EF3FC270E410E5FE24E45
:10772000EE051F532F93F5235F42EA051FF3FC2359
:107730003F400500B012467FD2D3E0051F43B01290
:10774000467FF2D0100022023F400500B012467F73
:10775000C14A00008A10C14A0100F2F0FEFFE005B4
:107760003F400500B012467FF2F0EFFF22023F409B
:107770000500B012467F5F42FD052FF3FC27F24063
:107780002300EE055F42FD052FF3FC27F240F4FFD6
:10779000EE050F435E42FD052EF3FC270E410E5F02
:1077A000E24EEE051F532F93F5235F42EA051FF3C8
:1077B000FC233F400500B012467FD2D3E0051F43B3
:1077C000B012467FF2D0100022023F400500B012F6
:1077D000467F089349240E413E5009000F430D484F
:1077E0000D5FEE4D00001F533E533F92F823F2F021
:1077F000FEFFE0053F400500B012467FF2F0EFFFCC
:1078000022023F400500B012467F5F42FD052FF384
:10781000FC27F2402300EE055F42FD052FF3FC2715
:10782000F240EAFFEE050F435E42FD052EF3FC2712
:107830002E430E510E5FE24EEE051F533F92F4238E
:107840005F42EA051FF3FC233F400500B012467F6C
:10785000D2D3E0051F43B012467FF2D010002202BF
:107860003F400500B012467FB0121A7131500A0035
:10787000381730410B12B01226690B4FB012027D3F
:10788000F2F0BFFF1A02F2F0BFFF1802F2F0BFFFE2
:107890001C0202DBF2F0F7FF83023F40FA00B01255
:1078A000467FF2D283023F40FA00B012467FF2F0E8
:1078B000FBFF83023F407F00B012467FE2D283028B
:1078C0003F407D00B012467F7F404000B012FE6E08
:1078D0003F407D00B012467FB01286813B40B9FE2A
:1078E0000B8FB012A26E3FF080000520B01286818F
:1078F0000F5B0F93F63B7E4094FF3F403100B01288
:10790000CC717E4013003F403000B012CC717E40FD
:10791000F8FF3F403600B012CC717E4085FF3F40FB
:107920004600B012CC717E4014003F404700B012B8
:10793000CC717E403F003F404A00B012CC717E4087
:107940005A003F404C00B012CC717E402B003F40AB
:107950004F00B012CC717E4011003F405300B01276
:10796000CC717E40EBFF3F405400B012CC714E43CF
:107970003F404400B012CC717E4010003F405600A2
:10798000B012CC717E400E003F405700B012CC7157
:107990007E4003003F405800B012CC717E40600032
:1079A0003F400C00B012CC717E400D000F43B0126E
:1079B000CC715E433F400D00B012CC717E407F0021
:1079C0003F403400B012CC710D430E433F43B01220
:1079D000A0763F400B00B012F075B012986F0E43C6
:1079E0003F40781CB0124A891F433B413041F2F0BE
:1079F000BFFF1C023F40781CB0127C8992424E357A
:107A0000561F925354351F433041D253591F4E4F86
:107A10003F403000B012CC71B0121A7130410B12DD
:107A2000D253591F3F403000B01240734B4FB01239
:107A30001A714F4B3B4130412B1521830B4FD253D1
:107A4000591F82930A360B24B0121E7A094F5E42E8
:107A50000A367E533F403000B012CC71013C0943DE
:107A60007F404200B012FE6EB01286813A4034F37D
:107A70000A8FB012A26E3FF040000520B01286813E
:107A80000F5A0F93F63B7F404400B012FE6E3E400B
:107A900020035F4201021FF3A82491424E350000EB
:107AA000A29218364120F2F0FEFFE0053F400500AB
:107AB000B012467FF2F0EFFF22023F400500B01205
:107AC000467F5F42FD052FF3FC270E4B3E50FF0023
:107AD0008E107ED02000C24EEE055F42FD052FF3D2
:107AE000FC277B53C24BEE050F435E42FD052EF390
:107AF000FC270E410E5FE24EEE051F532F93F52338
:107B00005F42EA051FF3FC233F400500B012467FA9
:107B1000D2D3E0051F43B012467FF2D010002202FC
:107B20003F400500B012467FB012A26E2FF36724CB
:107B3000C293581F1724C293993514241A427C35D6
:107B40001B427E35B01286810C4F1C82AC350D4332
:107B50000E4C0F4D0E5A0F6B824E7C35824F7E3588
:107B6000C2439935B0128681824FAA35D2439835E7
:107B7000B01286813A4034F30A8FB012A26E2FF30E
:107B80000524B01286810F5A0F93F73BC2939835A4
:107B900014241A4278351B427A35B01286810C4F74
:107BA0001C82AA350D430E4C0F4D0E5A0F6B824EA0
:107BB0007835824F7A35C2439835C293581F0724CF
:107BC000B0128681824FAC35D2439935023CB01257
:107BD000AA7082930A3605244E493F403000B01205
:107BE000CC71B0121A710F430D3C3E535223829355
:107BF0000A3605244E493F403000B012CC71B01215
:107C00001A712F432153291730410B120B4EB0121A
:107C100046720F4BB012387A3B4130411B15C2936C
:107C2000591F2620D243591FC293581F0420B01257
:107C3000C6731A43013C0A43B01286813B40B9FE29
:107C40000B8FB012A26E3FF040000520B01286816B
:107C50000F5B0F93F63B3F403800B01240734B4F21
:107C60008B110A930224B012E873B0121A71013C0E
:107C70000B430F4B1A1730410B12C293591F0C20A4
:107C8000D243591FB012A26E3FF040001B430120A7
:107C90000B43B0121A71013C1B430F4B3B41304167
:107CA000D253591F4E4F3F403600B012CC71B01224
:107CB0001A7130415F15B0128681824FA235D243CE
:107CC0009435B012EE790F930324B1C0F0000C008C
:107CD000C293943514241A4268351B426A35B01297
:107CE00086810C4F1C82A2350D430E4C0F4D0E5A4F
:107CF0000F6B824E6835824F6A35C24394355A17EE
:107D00000013B012BAC2F2D010002402F2D28502DF
:107D1000E2D28502F2F0BFFF0402F2F0DFFF0402BC
:107D2000F2F07F000402F2F0FEFF0502B012AE7D19
:107D30003F400500B012467FD2D3E0051F43B0128A
:107D4000467FF2D0100022023F400500B012467F6D
:107D500030415F15B0128681824FA235D2439435EF
:107D60001F42EE035F4201021FF30624D2534C353B
:107D70009242D4034E35053CC2434C359242D40363
:107D800050351A4268351B426A35B01286810C4F55
:107D90001C82A2350D430E4C0F4D0E5A0F6B824EB6
:107DA0006835824F6A35C24394355A170013D2435F
:107DB0000B02B2400401C003B24000C9C403B2D0F8
:107DC0001000C403B2D02000C003B0128681824FDD
:107DD000D00330410B120B4F4F4FB012A4690F4B21
:107DE0003B4130415F15B0128681824FA235D243AC
:107DF00094351F42AE032F935820B2B02000800369
:107E000006241F4294031F8290031F93F6271F42EC
:107E100090031E4290030F9EFA232A3CB2500001A9
:107E200094031E42601F1F42621F1E530F63824E47
:107E3000601F824F621F1E42601F1F42621F3EF082
:107E40007F000FF30E930E200F930C201E42641F31
:107E50001F42661F1E530F63824E641F824F661FB0
:107E6000B01296821F4290031E4290030F9EFA2387
:107E7000824F5E1F1F425E1F1F8294030F93CE37F7
:107E8000B012A4860F931124B012B0861C42601F5A
:107E90001D42621F3CE33DE30C5E0D6F0D93053404
:107EA000B0120285B1C0F0000C00C29394351424C6
:107EB0001A4268351B426A35B01286810C4F1C820B
:107EC000A2350D430E4C0F4D0E5A0F6B824E683586
:107ED000824F6A35C24394355A1700131E42601F01
:107EE0001F42621F1C42601F1D42621F0E9CF62330
:107EF0000F9DF4233041824C90033C500001824C92
:107F00009403824E601F824F621F30413F40000148
:107F100030411E425E1F1F4290030F8E304132C21D
:107F20000343B24004018003B24010008403B24016
:107F300000019403B2D0200080038243601F82437B
:107F4000621F32D23041023C03433F530F93FC2364
:107F500030413B15084E094FB012DC7E0A4E0B4FE4
:107F6000B012DC7E0C4E0D4F0C8A0D7B0D99F82B58
:107F700002200C98F52B381730411B150A4E0B4F79
:107F8000B0122669824A641F824B661F02DF1A17ED
:107F900030411E42641F1F42661F1C42641F1D4267
:107FA000661F0E9CF6230F9DF42330411F42900361
:107FB0001E4290030F9EFA2330412B15494F59E280
:107FC000681FC24F681F494919B320241FF30724B3
:107FD000B0128681824FA435D2439535173CC293A7
:107FE000953514241A426C351B426E35B0128681C9
:107FF0000C4F1C82A4350D430E4C0F4D0E5A0F6BC7
:10800000824E6C35824F6E35C243953529B322249A
:108010005F42681F2FF30724B0128681824FA63576
:10802000D2439635173CC293963514241A427035C4
:108030001B427235B01286810C4F1C82A6350D434F
:108040000E4C0F4D0E5A0F6B824E7035824F7235AB
:10805000C243963529F222245F42681F2FF207247B
:10806000B0128681824FA835D2439735173CC29310
:10807000973514241A4274351B427635B012868126
:108080000C4F1C82A8350D430E4C0F4D0E5A0F6B32
:10809000824E7435824F7635C24397355F42681FF2
:1080A000B0123E8129173041B0120081C243681FCF
:1080B0003041B0120E813041B012BA7F30415FD2F0
:1080C000681FB012BA7F30415E42681F4ECF4F4EDC
:1080D000B012BA7F30415FE2681FB012BA7F304100
:1080E0000B125B42681F7BE34F4BB012D6803F40C0
:1080F0009001B012467F4F4BB012D6803B413041C9
:10810000F2D070006502F2D07000630230415E422E
:1081100063024E4E3EB0100002244D43013C6D42BE
:108120000C4E3CF020005F4301244F434FDD3EF0F6
:10813000400002244E43013C6E434FDE30415E421C
:1081400063027EF08FFF4F4F2FB202244D43023C5B
:108150007D4010004EDD1FB302244D43023C7D40A4
:1081600020004DDE2FF302244F43023C7F404000AD
:108170004FDDC24F6302304132C20343B2401000B0
:10818000820332D230411F4290031E4290030F9E61
:10819000FA2330415F15B0128681824FA235D24357
:1081A0009435B0123A69B012CC89B012DA880F93C4
:1081B00004240338B1C0F0000C00B0126069C2930F
:1081C000943514241A4268351B426A35B0128681F0
:1081D0000C4F1C82A2350D430E4C0F4D0E5A0F6BE7
:1081E000824E6835824F6A35C24394355A17001360
:1081F000824F920330410B120B4F033C0E43B012DF
:108200004A893F4B0F93FA233B4130410B120B4FEE
:10821000023CB01210883F4B0F93FB233B4130418F
:108220003D409E353E4060350F438D4300008E43F8
:1082300000008E430200CF4392351F532D532E5220
:108240003F900C00F22330411B150B4FCF9392351A
:108250001224B01286810A4F0C4B5C060D4B5D0256
:108260003D509E350E4A2E8D0F438C5E60358C6FCF
:1082700062358D4A00005B061E4B60351F4B623530
:108280001A1730410E430F4330415F068F4D603562
:108290008F4E623530414B153A4060353B409E353C
:1082A0000743C79392350B24B0128681084F288B61
:1082B00009438A5800008A6902008B4F0000175357
:1082C0002A522B5337900C00EC23471730412B15C3
:1082D0000A4F094D2F4F0F9304243F904A003D2031
:1082E000173C3F406C1FB012868B0B4F093C1D4B57
:1082F00006001E4B08000F4B2F53B0120C862B4B61
:108300000B93F523D2436A1FBA404A0000002A3C6F
:108310007E9088FF27203F406C1FB012868B0B4F4A
:10832000193C0F4B2F53099F14200E4B3F406C1FDD
:10833000B012D48B1942741F924B0E00741F1E4B47
:1083400010000E9303241F4B12008E128249741FDB
:10835000DB3F2B4B0B93E523D73F8A4300007F4045
:108360000300013C5F4329173041C2436A1F3F406D
:108370006C1FB012808B0E433F40821CB0124A89A2
:1083800030410B1219150B4F084D094E9F410A0041
:108390000E008F4C10009F4108001200C2936A1F0C
:1083A0000B241842741FB240821C741F2F53B0124A
:1083B0000C868248741F043C8B4D06008B4E0800CF
:1083C0000E4B3F406C1FB0121E8C18173B413041C2
:1083D0001212741F11120600B01282832152304112
:1083E0001B150B4FC2936A1F0A241A42741FB24016
:1083F000821C741F2F53B0123C86824A741F0E4B8E
:108400003F406C1FB0121E8C1A1730411B150B4FCA
:10841000C2936A1F0A241A42741FB240821C741F3E
:108420002F53B0124E86824A741F0E4B3F406C1F72
:10843000B0121E8C1A1730410B120B4FC2936A1FD9
:1084400004242F53B012C686043C8F430A008F4386
:108450000C000E4B3F406C1FB012D48B3B4130419F
:108460000B120B4FC2936A1F04242F53B0127A864B
:108470000E3C3F406C1FB012868B0E4F033C0E9B90
:1084800005242E4E0E93FB231F43013C0F433B411B
:1084900030412B1582936E1F05208243701F82434B
:1084A000721F2D3CB012DC7E1A426E1F1C4A040063
:1084B0001D4A06002C5A1D6A02000C8E0D7F194AB7
:1084C0000800133C1A4904001B4906002A591B697D
:1084D00002000A8E0B7F0B9D04280D9B04280A9C2A
:1084E000022C0C4A0D4B194908000993EB230A4C46
:1084F0000B4D0A5E0B6F824A701F824B721F291749
:1085000030413F408C1CB0127C8930412B150A4F02
:108510002F4F0F9304243F9059005220073C824371
:108520006E1FBA40590000005F434E3C7E9087FFAB
:108530001A201E426E1F023C1E4E08000E93EF27AB
:108540008E9D0A00F927824E6E1F083C8C9D0A0002
:1085500004209E4C080008000C4E0E4C1C4E0800D7
:108560000C93F423DE3F7E9082FFDB231B426E1FC1
:108570000943233C0F4BB012308A0F931B240D4B41
:108580007E4088FF1F4B0A00B012E8880F9310202E
:108590008B430A0009930424994B08000800033C0C
:1085A000924B08006E1F8B430800B0129284DE3F8E
:1085B000B0120285094B1B4B08000B93DB23B13F24
:1085C0008A4300007F400300291730410B120B4FF4
:1085D000B01202858B930A000D241F426E1F083CC7
:1085E0000F9B04209F42741F0A000C3C1F4F080081
:1085F0000F93F6239B42741F0A009B426E1F0800D4
:10860000824B6E1FB01292843B4130410B120B4FD4
:10861000B012F2890F4BB012CC853B4130412B1583
:10862000094F0A4D0B4EB0120E8A894A0400894B3D
:1086300006000F49B012CC85291730410B120B4FA1
:10864000B0120E8A0F4BB012CC853B4130410B1259
:108650000B4FB0121C8A0F4BB012CC853B413041FE
:108660000C4E8E108E118E108E110D4E8F5C0000F0
:108670008F6D0200B012928430411E438F930A0026
:1086800001240E430F4E30411C4F04001D4F0600C5
:108690002C5F1D6F02000E4C0F4D30412E4F1F4FAF
:1086A000020030411F4382936E1F01200F4330416F
:1086B00082936E1F05241E42701F1F42721F30419D
:1086C0000E430F4330410B120B4F1F426E1F0B9F87
:1086D0000520924B08006E1F113C0F4E0F9305248E
:1086E0001E4F08000E9BF923063C8B4308008B436A
:1086F0000A003B4130419F4B08000800B0129284B1
:10870000F43F1B150B4F4A4E5F4F08001FF31A240E
:108710001C4B04000C931624824B741FEB4308007F
:108720000F4B3F5006008C128F112F832F9303287D
:108730007A9083FF05200E4B0F4BB0124887023C06
:10874000DB4308001A1730413B150B4F084E194206
:10875000741F1A42761F0F4A013C2F4F0F9B0324B0
:108760000F93FB23343C0B933224CB9308001D243E
:10877000CB430800093C0B9A06240D4B7E4087FF33
:108780000F4AB01202872A4A0A93F5231C4B0400B1
:108790000C930B240B980924824B741F0D437E40CD
:1087A00083FF0F4B3F5006008C121F42761F0B9F1A
:1087B0000A20A24B761F093C2E4F0E9B0320AF4B85
:1087C0000000033C0F4E0F93F7238249741F3817A4
:1087D00030410B12C243781F1B42761F0E3CCB93D5
:1087E00009000A24DB430800CB4309000D437E4007
:1087F00082FF0F4BB01202872B4B0B93F0233B41B0
:1088000030415F42791F4E4F5E53C24E791F304157
:108810001E42741FB01248873041F2408AFF791F10
:10882000C2437A1FC2437B1FC243B6358243761FC1
:108830008243741F30410B125F42781F4F93022412
:10884000B012D2875B427B1F4B933F245C427A1F5E
:108850000E4C5E020F4C5F0A0F8E3F507C1F6E4F16
:10886000C24EAC1F1D4F0200824DAE1F1F4F0400B1
:10887000824FB01F1C537CF00700C24C7A1F7B5301
:10888000C24B7B1F0F931A209242761FB21F123CDD
:108890005F42781F4F930224B012D2871D42AE1F51
:1088A0005E42AC1F1F42B21FB01202871F42B21FAE
:1088B000A24FB21F8293B21FEB23073C7E9081FF31
:1088C0000220DF430800B01202875F42781F5E4239
:1088D0007B1F4F4F0F5E3B4130415F42781F5E422E
:1088E0007B1F4F4F0F5E30411B155B427B1F7B92FE
:1088F0001E244C4B5C527A1F7CF00700C24CB41F04
:108900004C4C0A4C5A025C0A0C8A3C507C1FCC4EE0
:1089100000008C4D02008C4F04004F4B5F53C24F40
:108920007B1FC29FB635052CC24FB635023C1F4394
:10893000013C0F431A1730410B121B42741FB01237
:108940000287824B741F3B4130411D42761F0C4D04
:10895000013C2C4C0C9F11240C93FB230F930D24F2
:108960008F4D0000824F761FDF4308008F430600C3
:108970000D4E7E4081FFB012388930410F9309249B
:108980005E4F08007E536E93042CDF430900D243F0
:10899000781F30411E43CF93080001200E430F4E35
:1089A0003041B012788130411D42B61F8F4C020019
:1089B0009F41020004008F4E0000824FB61F0D93AE
:1089C00003200F4EB012F0810F4330411D42B61FFD
:1089D0000D930E248243B61F1E4D04000F4D9D12B1
:1089E00002001F42B61F0F9303242F4FB012F081D5
:1089F00030410B120B4F8F4D04008F4E0600B0120A
:108A0000DC7E8B4E00008B4F02003B4130419F5F6C
:108A1000040000009F6F0600020030410B120B4F54
:108A2000B012DC7E8B4E00008B4F02003B41304188
:108A30000B120B4FB012DC7E2E8B1F7B02001E53DD
:108A40000F631D438B9F0600052803208B9E0400A7
:108A500001280D430F4D3B4130411B151A4F0400B7
:108A60001B4F06002A5F1B6F0200B012DC7E0C4A0F
:108A70000D4B0C8E0D7F0E4C0F4D1A1730410B1203
:108A80000B4F2F4F3F9067000B243F907900392404
:108A90000F933B20B0120288C24FB7358243C01FEC
:108AA0003F40BA1FB012D08D3F930420BB406700F7
:108AB0000000303C1E42C01F3F900A0009243E9037
:108AC0007F00EE37CE4FC21F1E53824EC01FE83FBD
:108AD000CE43C21F1E53824EC01F3D40C21F5E4286
:108AE000B7350F43B012E8880D437E4085FF1F4223
:108AF000741FB012E8880F93D123BB4079000000A7
:108B0000093C7E9085FF0620C93F8B4300007F40D3
:108B10000300013C5F433B4130417F900D00202426
:108B2000C293B81F0A204E4F3F40BA1FB012988D13
:108B30000F931020D243B81F0D3C7F900A000A20EB
:108B40007E400A003F40BA1FB012988D0F93022456
:108B5000C243B81F3F40961CB0127C891F4330416E
:108B60000F4330417D4080FF3E4042203F40BA1FCE
:108B7000B012848D0E433F40961CB0124A8930419A
:108B80008F43000030412F4F3041AF4E0000304145
:108B90002F4F0F93022030410F4E2E4F0E93FC2388
:108BA00030410E4F2F4F0F930D248F930000032061
:108BB0008E43000030410E4F2F4F8F930000FB2358
:108BC0008E43000030410E4F2F4F0F930224AE4FC3
:108BD000000030410B122D4F0D9314240C43023C26
:108BE0000C4D0D4B0D9E0B202E4D0C9303208F4EE4
:108BF0000000023C8C4E00008D430000033C2B4DD6
:108C00000B93EE233B4130411B150B4F0A4EB01224
:108C1000D48BAA4B00008B4A00001A1730411B1559
:108C20000A4F0B4EB012D48B8B4300000F4AB01288
:108C3000908B0F9303208A4B0000023C8F4B000067
:108C40001A1730412E4F0F43023C1F532E4E0E93E6
:108C5000FC2330410E9304200E4DB012088C30419D
:108C6000AD4E00008E4D000030410F9302242F4F77
:108C700030410F4330410B120B4F1D4F02000E438A
:108C80001F4F0400B012F867021232C20343924B26
:108C90000200C204A24BC8041D42CA0432410E4362
:108CA0001F4B0600B012F8673B4130411C4F0200D9
:108CB0000E43163C1D4F04000D5ECD9300000F20A7
:108CC000DD430000021232C20343824EC204A24FAF
:108CD000C8041E42CA0432411E5F0600043C1E53F3
:108CE0000E9CE8230E430F4E30410B121C4F060022
:108CF0001B4F02000D43113C0C9E0D201E4F040023
:108D00000E5D6C4E5C9303387C53CE4C00001D5FAF
:108D100004006F4D053C2C5F1D530D9BED237F43DD
:108D20003B4130411C4F06000E9C1128021232C2FA
:108D30000343A24FC204924F0200C8041D42CA045A
:108D400032410D5C1F430E9D03280F4330410F43FA
:108D500030410B120D4F1B4F02000F430E43083CD6
:108D60001C4D04000C5ECC93000001201F531E53C9
:108D70000E9BF6233B413041B0129ED73041B012DA
:108D800078D730418F4E00007D53CF4D0200CF4346
:108D90000300CF43040030410B125C4F03005D4FD2
:108DA00004000B4C0B8D0D4B5B4F02000DFB4D9BDC
:108DB0000C242C5FCC4E00005E4F03005E535EFF20
:108DC0000200CF4E03001F43013C0F433B413041A3
:108DD0001B155B4F04005C4F02005E4F03004D4BC0
:108DE0000E8D4A4C0EBA08242D5F6E4D5B534BFC22
:108DF000CF4B04000F4E013C3F431A1730415F4FE9
:108E000002001F5330415E4F03005D4F04000E8D82
:108E10005F4F02000FFE30411B15B01230A50A4F04
:108E20003F40C220B012868B083C1F4B02000F93BC
:108E300001248F120F4BB0126A8C0B4F0F93F52346
:108E40000A9303240F4AB01244B21A173041B012E9
:108E5000BCB6B01260B9B012B090B0122AA53012F0
:108E600007003012000803123012001E3D400002BD
:108E70000E432F43B0124090315230413B15094F01
:108E80000A4E084D3F40C220B012868B093C1E4B53
:108E900004000E9302240F4A8E120F4BB0126A8CFC
:108EA0000B4F0F93F4230D480E4A0F49B01252B2E4
:108EB000381730410E4F3F40C220B0121E8C304157
:108EC0000E4F3F40C220B012D48B30410B120B4FDB
:108ED000B01240A50F930924B01200B80E4B3F40CA
:108EE0007C8E921216DD1F43013C0F433B41304103
:108EF00030412B153150FAFF094EB012D0B80A4F4D
:108F00002D430E4F0F41B012E6672B415B062B53EA
:108F1000B012E8B80F9B14282A530B430F3C2D4284
:108F20000E4A0F412F53B012E6671D4104001E4147
:108F300002000F49B0128E912A521B532B91EF2B36
:108F400031500600291730410B123B400421031217
:108F50003C40928F2D4B1E4B02000F4B3F50E0FFC9
:108F6000B012D0832153B0127E8D2C4B1D4B0200CA
:108F70000E4F0F43B012A0CE03123C40E08F0D4EB7
:108F80000E4F0F4B3F50CCFFB012D08321533B41CB
:108F900030411E4204211F4206210E5E0F6F1C420B
:108FA00000211D4202210D9F04280F9D04280C9EC4
:108FB000022C0E4C0F4D824E04213E4004218E4F58
:108FC0000200B012488F3041D19302000820924233
:108FD000F82004219242FA200621B012488F304135
:108FE0000B12B01260B9B012D0B80B4F8F43000013
:108FF000B0128491113C0D4E5D060D5B9D4F020039
:1090000002001E530D4E5D060D5B9D4F04000000D7
:109010008B4E0000B0126A8C2E4B0F930324CF931B
:109020000800E9230F4E5F062F53B012CAB88B9386
:10903000000004243F40C420B01288B13B413041BD
:109040001B150A4D0B4E3D4054DC0E4F3F40C420D3
:10905000B01260B13F40F8208F4A00008F4B0200F1
:109060009F41060004009F41080006009F410A003E
:1090700008009F410C000A003F40C88FB0127E914B
:109080001A1730410B123B40E4200F4BB0123884CA
:109090000F4B3F50ECFFB01238843F40C420B01259
:1090A00082B13B4130411E4204211F420621304122
:1090B0003F400A21B012808B30411B150B4F8F4E61
:1090C0000200CF4308008F4D06000E4F3F400A219B
:1090D000B0121E8C1A420C210A930A2453120C431C
:1090E0001D4B04005E4B08001F4B02008A122153E7
:1090F0001A1730410E4F3F400A21B012D48B304135
:109100000B12CF4308001B420C210B93082443127F
:109110000C430D434E431F4F02008B1221533B4122
:1091200030410B121C4F0400DF4308008F4E040037
:109130001B420C210B93072443120D4E5E431F4F1D
:1091400002008B1221533B4130410B121B420C2178
:109150000B930A241C4F040053120D4C5E4F080061
:109160001F4F02008B1221533B4130411E420E2102
:109170000E9301248E123041824F0E213041824FD6
:109180000C2130413F400A21B012868B30413B1503
:10919000094F0A4E084D3F400A21B012868B0E3C03
:1091A0008F9A020009201B4F06000B9309240C48DC
:1091B0000D4A0E498B12043CB0126A8C0F93F023B7
:1091C000381730412B150B4F8293183624205E4FF1
:1091D0002C005E53CF4E2C005E9F2D001C28CF43E9
:1091E0002B00B01254A31F4B28001A4F04000A93FF
:1091F0000924594B2C000F4BB012B2A24D490E4F0F
:109200000F4B8A12CB432C005F4B2A001F537FF079
:109210000300CB4F2A00291730413B150B4F084E56
:109220001E4218361E931E205E4F2A001E921A36CA
:109230003B201E537EF00300CF4E2A00CF432B006D
:10924000B01254A31F4B28001A4F02000A932C247B
:10925000594B2C000F4BB012B2A24D490E4F0F4B81
:109260008A12223C0E93202019421A36B012D8B628
:109270000A4F0F931024B01260B9924318368249F6
:109280001A360E480F4BB0124EA30F4AB01284B7D5
:109290000F4AB0125AB71F4B28002C4F0C930424CE
:1092A0004D490E480F4B8C12381730412B150B4F80
:1092B000094E0A4D3D4058DCB0129CA23E405CDC99
:1092C0000F49B012A8A58B4A2800CB432B00CB43F3
:1092D0002C00CB432A0029173041B01274A330412F
:1092E0005F4F2B0030410B120B4FCF932B001C20F4
:1092F00092431C3682431836D24F2A001A36C24394
:109300001B36B24003001036CF4D2D00CF432C004A
:10931000DF432B003C4006000D43B012F6A20F9332
:109320000420CB432B00013C0F433B4130410B1247
:109330000B4FCF4E0000CF4D01000E4C2F53B012FB
:10934000F4B9DB4104000400DB41060005003B41A9
:1093500030414B1521820B4F094E484D1F4F0200E3
:10936000CF93080097203F401821B012868B0A3C0B
:109370000E490F4A2F53B012FCB90F933F200F4AEA
:10938000B0126A8C0A4F0F93F323A63C3F40181D7E
:10939000B012AC8C0A4F0F93A324D2531E211E4B44
:1093A00014002F53B012F4B9CA480400DA421E2147
:1093B00005000E4A3F401821B0121E8C3F40181D78
:1093C000B012AC8C0A4F0F938B241E4B20002E53EF
:1093D0000F49B012FCB90F931120D2531E210E4930
:1093E0000F4A2F53B012F4B9CA480400DA421E21C2
:1093F00005000E4A3F401821B0121E8C5F421E210C
:109400008B9F100047203F401821B012868B023CF2
:10941000B0126A8C0F93FC233F401821B012868B48
:10942000094FB0126A8C303C08493A482A3C5F49DF
:1094300002005E4A02004F9E0D20DA9903000300ED
:109440001F2C074A27530E470F48B012F4B90E4895
:109450000F47143C4E9F142C0E480F412F53B0124F
:10946000F4B9074A27530E470F41B012F4B90E4121
:109470002E530F47B012F4B90E410F48B012F4B991
:109480002A4A0A93D42329490993CE231F4B020069
:10949000DF4308001F4B0200CF93080021243F4008
:1094A0001821B012868B023CB0126A8C0F93FC23F9
:1094B0003F401821B012868B0F9307240E4F2E5376
:1094C0000F4B3F501600B012F4B91F4B0200DF43A0
:1094D0000000C2431E21043CC2931E2157276E3F49
:1094E0002152471730413B15084F094E3F40182184
:1094F000B012868B0B4F4A43333C5A530E490F4BE5
:109500002F53B012FCB90F9327240F4BB0126A8C63
:109510000B4FC84A13000F931A203F401821B01276
:10952000868B0B4F143C0F4BB0126A8C0B4F0F9372
:1095300005203F401821B012868B0B4F0F4B2F5345
:10954000099F05200F4BB0126A8C0B4F0B3CFB9010
:1095500040000400E827063C0F4BB0126A8C0B4F0A
:109560000B93CB230F4B2F53381730412B150B4F39
:109570001F4F4C005E4B01006E930F247E90030042
:10958000032C5E938220063C7E9221247E90100064
:109590007C20373CEB430100783C094F3950740084
:1095A0000F49B0122AB54A4F1F4B10003F530A9F74
:1095B0006C281E4B20002E530F49B0121EB40F937F
:1095C00003241A9B10006120FB4201005E3C1E4BED
:1095D0000200CE93000059201F4F7600B012868BF8
:1095E000093C6D4B0E4A2E530F4BB01252930F4A4B
:1095F000B0126A8C0A4F0F93F423FB401000010055
:10960000443C0E4B3E5016001F4B1400B012FCB9E8
:109610000F9322241E4B14000F4B3F501800B01222
:10962000F4B9EB4200001E4B14000F4BB012E6944D
:109630000E4F0F4B3F501A00B012F4B97F40070095
:10964000B012C8806F43B012D6801F4B2E00B012EC
:109650004E861F4B2200173CDB4300001F4B0200CD
:10966000DF4300001E4B14000F4BB012E6940E4F68
:109670000F4B3F501A00B012F4B97F400700B012F0
:10968000C8801F4B2800B0124E86291730411B1589
:109690004A430B433F40B835B012D08D7F9304242A
:1096A0005A534F4F0B5FF63F4E4A0F4BB01250CEFE
:1096B0001A1730413F40B835B012988D30414E4EA8
:1096C000021232C20343824EC204924F1000C804F9
:1096D0001D42CA0432413D53021232C20343824D3D
:1096E000C204824EC8041E42CA043241021232C26F
:1096F0000343824ED4048243D604924F3000E004E8
:10970000924F3200E2041D42CA041E42CC04324190
:109710008F4D2A008F4E2C001F4F2800B0120C8650
:1097200030410B120B4F4E4E5E0A0C4E5C0E0C8EEF
:109730000D4C8D108D118D108D110E4C0F4D7D40E7
:1097400007000E5E0F6F7D53FC238B4E30008B4F56
:1097500032000D4E0E4F1F4B2E00B0120C863B41B7
:1097600030411D4F3C001E4F3E001F4F3A00B012CB
:109770000C8630411F4F3A00B0124E8630411F4FC9
:109780004000B0124E8630411D4F24001E4F26006F
:109790001F4F2200B0120C8630411D4F48001E4F53
:1097A0004A001F4F4600B0120C8630411F4F4E003A
:1097B000B0127A865E430F9301204E434F4E3041E4
:1097C0001F4F4E00B0120C8630414E4E021232C274
:1097D0000343824EC204924F1000C8041D42CA04C3
:1097E00032413D53021232C20343824DC204824EC3
:1097F000C8041E42CA043241021232C20343824EDE
:10980000D4048243D604924F3000E004924F3200D9
:10981000E2041D42CA041E42CC0432418F4D2A008C
:109820008F4E2C001F4F2800B0120C8630411D4F68
:1098300056001E4F58001F4F5400B0120C86304186
:109840000B120B4F1F4F5400B0127A860F93062451
:109850001F4B5400B0124E865F43013C4F433B41C7
:1098600030410B120B4FFF9200007024B012409851
:109870004F936C249B4B08000A000F4BB0128E963E
:109880008B4F08006E4B7E90100030203F9064009C
:1098900008281F9B0A000228DB530C00DB530D0035
:1098A000043CCB430C00CB430D00FB9003000C00A9
:1098B000042CFB9005000D004928FB40200000000F
:1098C000BB40400148008B434A003D4040010E43ED
:1098D0001F4B4600B0120C861F4B4600B012C686C6
:1098E0001F4B0200FFF0EFFF04002D3C7E90200094
:1098F0002D203F906400082C1F9B0A00022CDB5394
:109900000C00DB530D00043CCB430C00CB430D009B
:10991000FB9003000C00042CFB9005000D001628A2
:10992000FB4010000000BB40800248008B434A000F
:109930003D4080020E431F4B4600B0120C861F4B69
:109940004600B012C6865F43B012C8803B4130412A
:109950001D4F5C001E4F5E001F4F5A00B0120C8658
:1099600030410B120B4FCF4E0000CF4D01008F4CFA
:109970000200DF4104000400DF4106000500DF4172
:109980000C0006009F41100008009F4112000A00D1
:10999000DF4114000C00DF4116000D00DF410E0016
:1099A0000E009F4118001000DF4108001200DF4147
:1099B0000A0013009F411A0014001E4120003F506E
:1099C0001600B012F4B91E411C000F4B3F501A0094
:1099D000B012F4B91E411E000F4B3F501800B012D8
:1099E000F4B99B41220020009B4132004C009B4176
:1099F000240022009B41260028009B4128002E00C5
:109A00009B412A0034009B412C003A009B412E00D0
:109A100040009B4134004E009B41300046009B417A
:109A2000360054009B413A005A00BB408002480077
:109A30008B434A00BB40000156008B435800BB409B
:109A400080005C008B435E00BB40003C30008B43D9
:109A50003200BB40800036008B433800BB40003CE6
:109A600024008B432600BB4000053C008B433E0096
:109A7000BB40800242008B4344005E430F4BB01258
:109A800022970F4BB01288975E430F4BB012BE96D1
:109A90000F4BB0129A970F4BB01250990F4BB01258
:109AA0002E981D4B42001E4B44001F4B4000B0122D
:109AB0000C861F4B0200FFF0FEFF00001F4B020050
:109AC000FF40400001001F4B0200FFF0FDFF0200BD
:109AD0001F4B0200FFF0FBFF03001F4B0200FFF0D3
:109AE000EFFF04001F4B0200CF4305001F4B020095
:109AF000DF41380007001F4B0200DF413C00060039
:109B00001F4B0200CF4308001F4B0200CF43090048
:109B10003F401A21B012808B3F40181DB012768C46
:109B20003F401821B012808B3F40201DB012768C30
:109B3000BB401A211C00BB40201D1E007D423E4040
:109B400010213F40B835B012848D7F400700B0121D
:109B5000C880B012146C3B4130410B120B4F1F4FA9
:109B60005A00B0127A860F9306241F4B5A00B01287
:109B70004E865F43013C4F433B4130412B150A4F1A
:109B80000B4DB01202A5094FDB9A0400010008201A
:109B9000DB93000060201F4A0200EF4301005B3CA2
:109BA0001E4A14000F4A3F501800B012FCB90F9320
:109BB00052246F4B6F9220201E4A14005F4E01000A
:109BC0000F126F4E0F125F4B06000F125F4B070014
:109BD0000F125F4B01000F125F4B03000F125F4B20
:109BE00002000F121B1208000912301266DCB012BC
:109BF000F2CE315014002F3C7F922D201E4A1400CB
:109C00005F4E01000F126F4E0F125F4B06000F12D6
:109C10005F4B07000F125F4B01000F125F4B0300F9
:109C20000F125F4B02000F121B12080009123012B4
:109C300088DCB012F2CE31501400DB9306000B200A
:109C4000EB9302000820B012F66B3F400500B01203
:109C5000467FB012046C2917304130410B120B4F74
:109C6000DD9F040001001B20ED93000018201F4F12
:109C70000200FF4201001F4B0200EF430200BB4005
:109C8000400148008B434A003D4040010E431F4BBA
:109C90004600B0120C861F4B4600B012C6863B41F0
:109CA00030410B123150FAFF0B4EC2432221EF9389
:109CB000120020201D4F0200CD9304001B20E14321
:109CC0000000FD4010000400D14F040001001E4FB1
:109CD00014000F412F53B012F4B9D14222210400D5
:109CE0003E4006000F41B0127AB90F4BB01288B156
:109CF000D2532221315006003B4130411E4F020019
:109D0000DE93070012205E42281D5E53C24E281DBE
:109D10007E9078000528FF9200000224C243281D8F
:109D20005F42281D5F4FA01C3041B0127E8D1E4344
:109D30003F93012C0E430F5E5F0F021232C20343AA
:109D4000824FC004B240D915C8041F42CA041F4242
:109D5000CC0432415F0F5F037F50190030414B1537
:109D60000A4F474E084D494C3F40201DB012AC8C65
:109D70000B4F0F931924CF4702000E482F52B012F9
:109D8000F4B9CB490600DB4A080007009B410C00F0
:109D900008000E4B3F401A21EA9212000320B01235
:109DA000088C023CB0121E8C471730413B153150D5
:109DB000F6FF0B4F094E0A4D484C5F4F12006F9251
:109DC00003247F921E20083CC2431F215F422021B2
:109DD0005F53C24F2021073CC24320215F421F2115
:109DE0005F53C24F1F21C24F2121B01202A50F1293
:109DF0005C4221210D4A5E4B12000F4BB0125E9D5A
:109E000021530F49B012E0924F932420DB931200AC
:109E100026201F4B0200FFF0FDFF0100D143000090
:109E2000D14B04000100E14B02001E4B14000F4116
:109E30002F52B012F4B9814A0600C14308003E40D7
:109E40000A000F41B0127AB94D480E4A0F49B012BC
:109E5000E692053C1F4B0200FFF0FBFF0100315072
:109E60000A00381730412B150B4F094E0A4D1F4F72
:109E70000200CF9300000320FB920000E020CF936C
:109E8000060018240F4BB0125A9B4F9313241F4BFC
:109E90000200CF93070004240F4BB012FC9C043C3B
:109EA000B0127E8D7F401900CB4F06004E4F0F4BF6
:109EB000B012B496FB92000052205F4B06008B4F0D
:109EC00008001C4B02003F906400332C1F4B4000E5
:109ED000CC9305000A20CC9302000724B0124E86D2
:109EE0001F4B0200DF4305003A3CB0127A860F9305
:109EF0003624DB4300007F400700B012C880BB401F
:109F0000800248008B434A003D4080020E431F4BB5
:109F10004600B0120C861F4B4600B012C6861F4B7F
:109F20000200FFF0FDFF02001F4B0200CF430500BF
:109F3000163CEC430200EB4212001F4B4600B012ED
:109F40007A860F930C247C4005000D492D530E4A50
:109F50000F4BB012AC9D1F4B4600B0124E861F4BEC
:109F60002E00B0127A866C4B0F9310247C920E2434
:109F70005C930C247C90100006247C90200003202D
:109F80005F43B012C880EB420000593C7C925724DA
:109F90005C9355240F4BB01262986F4B7F9010006A
:109FA00022201F4B0200FFF0FDFF02001F4B22008A
:109FB000B0127A861C4B02000F931120EC42030072
:109FC0001F4B4600B0127A860F933924EB421200E1
:109FD000C2431C21D2531D21B01202A5243CFCF027
:109FE000FBFF03002C3C7F90200029201F4B020028
:109FF000EF430200FB4212001F4B4600B0127A866C
:10A000000F931D24C2431D21D2531C21B01202A55F
:10A01000D2931C210820B012F66B3F400500B0120D
:10A02000467FB012046C7C4005000D492D530E4A4A
:10A030000F4BB012AC9D1F4B4600B0124E86291735
:10A0400030411B1521830B4F1C4F0200CC930200A3
:10A0500095246A4F6A9237201F4F2E00814E0000D0
:10A06000B0127A862E410F9339241F4B0200EF92D3
:10A0700001000D24DB431200EF4201007C4005008B
:10A080000D4B3D501A000F4BB012AC9D273C1F4B9F
:10A090002800B0124E86FB4200001F4B0200FFF06A
:10A0A000FBFF03001F4B0200EF4302001F4B0200A7
:10A0B000FFF0F7FF01007F400700B012C8806F4239
:10A0C000B012D6800B3C7A9020000820CC9304007C
:10A0D0000520EF4312000E4DB012A29C6F4B5F9310
:10A0E00002247F924B201F4B2800B0127A861E4B11
:10A0F00002000F9304205F4E01006F932D20EE931A
:10A1000001003C201E4B14000F4B3F501800B012B2
:10A11000F4B91F4B0200EF4203001F4B0200FFF097
:10A12000F7FF01001F4B0200FFF0FDFF02001F4B75
:10A130000200FFF0EFFF04001F4B2E00B0124E860E
:10A140001F4B2200B0124E86EB4200007F400700FA
:10A15000B012C8806F43103C7F921020FB42000079
:10A16000EE4203001F4B0200FFF0F7FF01007F40AB
:10A170000700B012C8806F42B012D68021531A1760
:10A1800030410B1221830B4F1F4F0200CF9302006F
:10A1900067206F4B6F922A201F4B2E00814E0000CC
:10A1A000B0127A862E410F931D241F4B0200EF92AE
:10A1B00001000D24DB431200EF4201007C4005004A
:10A1C0000D4B3D501A000F4BB012AC9D493CDB4388
:10A1D00000001F4B2800B0124E867F400700B012CF
:10A1E000C8803E3CFB40100000003A3C5F933820A2
:10A1F0001F4B2800B0127A861E4B02000F930320DB
:10A20000EE9301002D20EE9301002A201F4B280021
:10A21000B012C6861E4B14000F4B3F501800B012F0
:10A22000F4B91F4B0200EF4203001F4B0200FFF086
:10A23000F7FF01001F4B0200FFF0EFFF0400EB42AD
:10A2400000001F4B2E00B0124E861F4B2200B01292
:10A250004E867F400700B012C8806F43B012D68090
:10A2600021533B413041043C3F401A21B012C68B80
:10A270003F401A21B012448C0F93F62330411D4FFA
:10A2800024002D4D0D9301248D1230411C4F2400CC
:10A290001C4C02000C9301248C1230411B150B4FF7
:10A2A0000A4D3D40AADCB012DCB18B4A24001A17DB
:10A2B00030413F50260030410F123C40CAA23F506F
:10A2C0000E00B012D083215330410B120B4F1F4FA1
:10A2D00022000F930E24B01284B70E4B3E5026007E
:10A2E0000F4BB01204B23D4080000E430F4BB01232
:10A2F000B8A23B4130414B150B4F074E084C094D5E
:10A300001F4F22000F930224B0125AB7B012D8B6D2
:10A310008B4F22000F9318240A4B3A5026000E4709
:10A320000F4AB012F4B90B123C40CAA20D480E49B4
:10A330000F4B3F500E00B012D08321530E4A0F4BEB
:10A34000B01204B21F43013C0F4347173041B01213
:10A3500004B230410B120B4F3F500E00B012388444
:10A360001F4B22000F930424B0125AB78B432200D4
:10A370003B4130410B120B4FB012FEB10F4BB012EC
:10A3800054A33B4130410B123150E0FF0B4F7E9004
:10A3900083FF04203F40EA22B01282B12F4B3F904E
:10A3A000A8002D243F90B60058240F9371203D4003
:10A3B000C0DC3E4007003F40EA22B01260B1B2402C
:10A3C0000004F6228243F8221D42F6221E42F822A1
:10A3D0003F40FA22B0120C86B0127E8D1C42F6224B
:10A3E0001D42F8220E4F0F43B012A0CE0D4E0E4F5D
:10A3F0003F400623B0120C86BB40A80000003F403F
:10A400000623B0127A860F934824D142E822000036
:10A41000C1430100914212230200B012127F814F0A
:10A420000400B012DC7E814E0600814F0800B0129D
:10A43000927F814E0A00814F0C0081431E003E40F6
:10A4400020000F41B0127AB9A24218363F40EA22EA
:10A45000B01288B1BB40B60000003F40FA22B012F3
:10A460007A860F931A241E42F6221F42F8220E5EAD
:10A470000F6F824EF622824FF8220F9303203E90F8
:10A480000096A22BB2400096F6228243F8229C3F0F
:10A490008B4300007F400300013C4F4331502000BC
:10A4A0003B4130411F42E82230411E42E822824FA8
:10A4B000E8220E9F09243F402A1DB01210880E4347
:10A4C0003F402A1DB0124A8930413150E0FFB0129E
:10A4D000D0B83D4020000E4F0F41B012E6676F41EB
:10A4E0001F92E8220B341E4102001E511E001E82E4
:10A4F0000836824E12231F53B012AAA431502000F6
:10A500003041B01286811F52122330411F82122324
:10A5100030411F52122330411F42122330410E435B
:10A520003F402A1DB0124A893041B01262A5304125
:10A53000921274DD0F930324924F020000363041D3
:10A540000B120B4F921276DD924B020000361E4327
:10A550000F9301200E430F4E3B413041921278DDA4
:10A5600030413F401423B012808B30418F4E0200A7
:10A570000E4F3F401423B0121E8C30410E4F3F400F
:10A580001423B012D48B30410B120B4F3F401423D5
:10A59000B012868B053C8F9B02000424B0126A8C9B
:10A5A0000F93F9233B4130411B150A4EB01288A589
:10A5B0000B4F0F9307248F4A04000F4AB0125CA57B
:10A5C000CB4F06001A1730411E4FBC003F500E0003
:10A5D000B01270C830411B150B4F0A4E0F123C4091
:10A5E00058AA3D400D000E433F505800B012D08392
:10A5F0002153B012DC7E8B4EC4008B4FC6000E4A36
:10A600002E530F4BB01204B21A1730411B150A4FCC
:10A610000B4EB01260B95F4AC2003F53824F2C36D6
:10A620003E4032363F40FA35B012F4B992432836F4
:10A6300092432A36824B20362F42B0120AB90E4A74
:10A640003E50B8000F4A3F507400B0121EB40F9332
:10A6500013240F4B5F060D4B5D0E0D8F0D5B5D0AD6
:10A660000E4D8E108E118E108E110C4A0F4A3F50D7
:10A670007000B0123CC3013C0F431A1730415B1508
:10A68000094F084E074D3B401A36264BB01260B9B1
:10A690002F42B012CAB8B012D0B80A4F2D420E43A2
:10A6A000B012F8679A49BC000200CA4700000E4881
:10A6B0003F40F835B012F4B99B43FEFF8B430200D4
:10A6C0008B4316008B4600009B43F6FF0E480F4954
:10A6D000B01204B29253CA358263CC35561730415A
:10A6E0002B1521820B4FCF93BF004B203F507000A2
:10A6F000B012A6C30F934524B012F6C30F934124A2
:10A70000B01284B7094B3950B8000E490F4B3F5077
:10A710007400B0121EB40A4F0F933324DB43BF0002
:10A720000E490F4B3F50BA00B012F4B9CB43C000F2
:10A730001F4220364D4FCB4FC10092431C366D93C4
:10A74000022C4D4D013C1D43824D1036D24BBE00B4
:10A750001A36C2431B369253CE358263D0352D4212
:10A760000E430F41B012F867914BBC000200B012CB
:10A77000D0B82D420E41B012E6670E4A0F4BB01210
:10A78000D6A52152291730410B120B4F3F507000B4
:10A79000B012B0C3DB53BE000F4B3F505800B01295
:10A7A0003884CB43BF00CB43C0000F4BB012E0A6B0
:10A7B0003B4130414B150B4F184FBC0008935624BA
:10A7C0000A4F3A50B800094F395074000E4A0F49E9
:10A7D000B0121EB4074F0F49B01210B60E4F0F93B0
:10A7E000142407930C202E530F4AB012F4B992533D
:10A7F000BE358263C0350F4BB012C8A5163CB012EF
:10A80000F4B50F47B012F4B5103C3E40F4DC0F4AEB
:10A81000B012FCB90F9304209253C6358263C83539
:10A820003E40F4DC0F4AB012F4B90E4A0F49B012A0
:10A830001EB40F930524B012F4B50A4F0F930220F3
:10A840003A40FF018B4ABC00CB93C30006240E4A5A
:10A850000F4B3F500E00B0126AC83890FF0106201F
:10A860003A90FF0103240F4BB012E0A64717304186
:10A870005B152183094F084E0A4D0B4F3B50F2FFE9
:10A88000064F365066000F46B0121EB4074F0F93A6
:10A890000C200D4A0E480F46B01254B43A90FF01F6
:10A8A00013200F4BB012C8A50F3C3A90FF010820AF
:10A8B000B01252B63F90FF0103240F4BB012C8A54F
:10A8C0000E4A0F47B01292B5D1430000C1430100B8
:10A8D0000E480F41B012FCB90F930D240E410F49E1
:10A8E0003F50AA00B012F4B99253C2358263C43506
:10A8F0000F4BB012C8A50F4BB012B4A72153561777
:10A9000030412B15094F8F93A00003208F93A20095
:10A910001D24B0127E8D1A49A0001B49A20012C34B
:10A920000B100A100C4A0D4B0E4F0F43B012A0CE65
:10A9300009123C40A0AA0D4E0E4F0D5A0E6B0F4946
:10A940003F508C00B012D0832153043C3F508C0008
:10A95000B0123884291730410B120B4FCF43BF0080
:10A960000E4F3E50BA003F507400B0121EB40F9309
:10A9700004245E4BC100B012A0B50F4BB012B4A7B7
:10A980000F4BB01288A70F4BB01202A93B413041C8
:10A990002B1521820B4FDF9FC100C0000728B0128A
:10A9A00058A99253F2358263F435533CCF43BF002C
:10A9B0003F507000B012A6C30F934B24B012F6C3E1
:10A9C0000A4F0F9346240F4BB012B4A70F4AB01290
:10A9D00084B7094B3950B8000A4B3A50BA000E49B7
:10A9E0000F4AB012FCB90F9306200E490F4AB0125D
:10A9F000F4B9CB43C0000E4A0F4B3F507400B01265
:10AA00001EB40A4F0F932524DB43BF0092431C362C
:10AA10005D4BC1005F4BC0000D8F1D9301381D437E
:10AA2000824D1036D24BBE001A36C2431B362D4221
:10AA30000E430F41B012F867914BBC000200B012F8
:10AA4000D0B82D420E41B012E6670E4A0F4BB0123D
:10AA5000D6A5215229173041EF53C000B01290A95A
:10AA600030410B128293183619205D5FC000CF4D24
:10AA7000C0005D9FC1000728B01258A99253F2355B
:10AA80008263F4350B3C0F123C4090A93D40060018
:10AA90000E433F505800B012D08321533B41304108
:10AAA0000B120B4FB01202A9CB93BF0010200F4B1B
:10AAB0003F507000B012ECC30F9309203E420F4B81
:10AAC000B0120CA60F9303240F4BB012E0A63B412B
:10AAD00030410B120B4F5E4276230D4E5D025E0A33
:10AAE0000E8DDE422C361A230D4E2D533E40FA3584
:10AAF0000F4D3F501623B012F4B95E4276230C4E30
:10AB00005C020D4E5D0A0D8C8D4B16231E537EF09C
:10AB10000F00C24E76233B4130414B153150F6FFBA
:10AB20000B4FB012D0B82D420E4F0F413F500600D0
:10AB3000B012E6670A4B3A5074003E40F6350F4AB1
:10AB4000B0121EB40F9307241E410800B01292B534
:10AB50000F4BB012B4A71F4218360F93C620925362
:10AB6000D2358263D4353E40F6350F41B012F4B988
:10AB7000074B375070000F47B012ECC33F900500F1
:10AB8000012402344A43023C7A4080FF38401623B5
:10AB900009432B981F205F4804001F922C361A206F
:10ABA0000F495F020D495D0A0D8F2D533E40FA3566
:10ABB0000F4D3F501623B012FCB90F930B244D4A92
:10ABC0000E410F4BB0127EA69253DE358263E03504
:10ABD0003040DEAD19533850060039901000D923AB
:10ABE0001F4BBC000F933120B012E8B82F92042401
:10ABF00003280F4BB012D2AAB012D8B60A4F0F9347
:10AC00000C240D430E410F4BB0127EA60F4AB0121A
:10AC100084B70F4AB0125AB7043C9253EE358263A0
:10AC2000F0352F42B012B0B8B012E8B80F93D72465
:10AC30001F4B56002C4F0C93D2245D4228365E42A7
:10AC40002C363F40FA358C12CA3C1E422A362E93CF
:10AC500040283F90FF01C3241F91080002287AD0AA
:10AC60001000925328363E53824E2A360F47B012B8
:10AC7000ECC33F92012421341F4220360E4F5E0662
:10AC80000D4F5D0E0D8E0D5F0C4B5D0A0E430F4791
:10AC9000B0123CC30F931124B012E8B82F920424D1
:10ACA00003280F4BB012D2AA4D4A0E410F4BB012DF
:10ACB0007EA60F4BB012E0A6923C7AD0C0FF4D4A60
:10ACC0000E410F4BB0127EA69253E2358263E435FB
:10ACD000863C7AD060004D4A0E410F4BB0127EA6E2
:10ACE0009253EA358263EC357A3C1F9378200E4B01
:10ACF0003E50BA003F40F635B012FCB90F936724BE
:10AD00005F4BBE001F921A3662209253D635826383
:10AD1000D835B012D0B82D420E4F0F412F53B0127C
:10AD2000E667CB93C0000220DB43C0003E40F6350F
:10AD30000F4AB0121EB40A4F0F930C245E4BC00092
:10AD4000B012BEB51E4104000F4AB01292B50F4BAF
:10AD5000B012B4A7C19302000E340A9309240F4A1B
:10AD6000B01260B65E4BC1005E020F4AB012BEB5B3
:10AD70000F4BB012B4A75F4102003FB04000032464
:10AD80003FF0200004240F4BB01288A7143C5E4B08
:10AD9000C1000F4AB012BEB50F4BB012B4A70B12D0
:10ADA0003C4090A93D4006000E430F4B3F505800D9
:10ADB000B012D08321535F4102003FF01000032402
:10ADC0000F4BB012C8A50F4BB01202A9043C92530E
:10ADD000DA358263DC359253D6358263D83531500B
:10ADE0000A00471730412B1521830B4FB0127E8D7F
:10ADF0000C4F0D433CF07F000DF3021232C20343AF
:10AE0000824CD404824DD604B2403C00E00482431C
:10AE1000E2041D42CA041E42CC0432410B123C40E3
:10AE2000E6AD0F4B3F50A400B012D08321531F4B0F
:10AE3000BC000F9340243F90FF013D240F4B3F5037
:10AE40007000B012A6C30F9336200F4B3F50740012
:10AE5000B012F2B4B012868B2B3C1F4A04003F5252
:10AE60001F9BBC00222C0F4A3F500A00B01240B377
:10AE70000F931B20094B3950B8000E490F41B012F7
:10AE8000F4B90E4A2E530F49B012F4B93E400500F2
:10AE90000F4BB0120CA60F9303240F4BB012E0A679
:10AEA0000E410F49B012F4B9063C0F4AB0126A8C39
:10AEB0000A4F0F93D2232153291730414B150B4FC3
:10AEC000094E484D074C0A4E1A533D40C4DC0E4A09
:10AED000B012DCB13E40C8DC0F4AB012A8A5BB409E
:10AEE000FF01BC008B475600CB48C300FB400A0063
:10AEF000BE00CB43C2000F4B3F506C008B4F6E0027
:10AF00008B436C00B012808B0F4B3F507400B0121B
:10AF1000ECB30F4B3F506E008B4F7000BB40341DA5
:10AF20007200B012D8B30A4B3A500E003012DCDC7B
:10AF300013123012002C03123012001E3C401A0073
:10AF40000D430E490F4AB0120CC831500A001E4B77
:10AF5000BC000F4AB01270C8B0127E8D0C4F0D436A
:10AF60003CF07F000DF3021232C20343824CD40442
:10AF7000824DD604B2403C00E0048243E2041D420C
:10AF8000CA041E42CC0432410B123C40E6AD0F4BCA
:10AF90003F50A400B012D0832153471730418F4D4A
:10AFA000A0008F4EA200B01202A930410B120B4F2D
:10AFB0003F500E00B0124AC80F4BB012FEB13B50CA
:10AFC0007000033C0F4BB012B0C30F4BB012A6C3BE
:10AFD0000F93F8233B4130411B150B4F0E9319245F
:10AFE000DF43C3008F43BC00B012C8A50A4B3A50E0
:10AFF0007000033C0F4AB012B0C30F4AB012ECC34A
:10B000000F930124F7370F4B3F505800B01238848C
:10B01000033CBF40FF01BC000F4BB012B4A70F4B65
:10B02000B012C8A51A1730411B150B4F0A4E5F4FBF
:10B03000C200C24F2C36C2432D365F534F4FCB4F09
:10B04000C2000F930320FB4080FFC2003E40323617
:10B050003F40FA35B012F4B992432836B2400F009F
:10B060002A363A9006000438B24005002036023CE9
:10B07000824A20368B93BC000E20824328361F4B19
:10B0800056002C4F0C932B244D435E422C363F40F0
:10B09000FA358C12243C2F42B0120AB91F422036D6
:10B0A0000E4F5E060D4F5D0E0D8E0D5F0C4B5D0A53
:10B0B0000E430F4B3F507000B0123CC30F9305245A
:10B0C0000F4BB012E0A61A43013C0A430E4B3E5010
:10B0D000B8000F4B3F507400B0121EB4013C1A432D
:10B0E0000F4A1A1730411F4FBC0030413F50BA0081
:10B0F00030411B150B4F3F507400B01266B50A4B20
:10B100003A50B8003E40F4DC0F4AB012F4B90F4B8D
:10B11000B012B4A73E40F4DC0F4AB012F4B91A17CB
:10B1200030413041CF4EC80030411C4F0A001C4C0A
:10B1300002000C9301248C1230410B1221830B4F1F
:10B140003E40F6350F41B012F4B91F4B0A002D4FA7
:10B150000D9303240E410F4B8D1221533B4130417F
:10B160002B150B4F0A4E094D3D40E0DCB0121AB2D0
:10B170008B490A003E40E4DC0F4AB012A8A529170B
:10B180003041B01238B230410B120B4F3E403236D4
:10B190003F40F635B012F4B90F4BB0123EB23B410E
:10B1A00030411C4F0C001C4C02000C9301248C12EB
:10B1B00030411B150B4F0A4E3E4032363F40F835AA
:10B1C000B012FCB90F9308241F4B0C002D4F0D93A8
:10B1D00003240E4A0F4B8D121A1730412B150B4FBB
:10B1E0000A4E094D3D40E8DCB01260B18B490C00BD
:10B1F0003E40ECDC0F4AB012A8A529173041B0122E
:10B2000082B130410B120B4F3F40F835B012F4B908
:10B210000F4BB01288B13B4130412B150B4F0A4EFA
:10B22000094DB0126CA58B4908003E40F2DC0F4A74
:10B23000B012A8A529173041B0127CA53041B01238
:10B24000CC8E30411E4F08002E4E0E9301248E12DC
:10B2500030411C4F08001C4C02000C9301248C123E
:10B2600030410F930624CF430400BF4200008F43B8
:10B27000020030411B150F934C244E934A245C4F1F
:10B2800004004C930B204D4E5D0A8F4D00008D1035
:10B290008D118D108D118F4D0200023C7C93032483
:10B2A0005C53CF4C04004E4E021232C20343824E16
:10B2B000D4048243D604B2401800E0048243E2047E
:10B2C0001A42CA041B42CC043241021232C2034366
:10B2D000A24FD404924F0200D604B2400500E0040D
:10B2E0008243E2041C42CA041D42CC0432410C5A7F
:10B2F0000D6B8F4C00008F4D020012C31F10020017
:10B300002F1012C31F1002002F1012C31F100200B3
:10B310002F101A1730410F9305244E4E5E024E4EE9
:10B32000B01274B2304130410F930524CF93040022
:10B3300004242F4F30410F4330413F4080003041C3
:10B340000F9303245F4F040030410F4330411B151E
:10B350000A4F1F4F0200B012868B063C9F53060017
:10B360009F530800B0126A8C0F93F8231F4A020003
:10B37000B012868B213CBB900A00080007200F4BBF
:10B380003F500A00B01262B28B430800BB90B40079
:10B3900006000F200E4B3F403C1DB012EA8C0E4BB6
:10B3A0001F4A0200B012D48B1F4A0200B012868BD3
:10B3B0000B4F0F4BB0126A8C0B4F0F93DC230A120A
:10B3C0003C404EB33D40001E0E430F4A2F52B01278
:10B3D000D08321531A173041C293D4240620D2437C
:10B3E000D4243F403C1DB012768C30410B120B4FE1
:10B3F0008B4F02008F430000B012808B1F4B020066
:10B40000B012808B0B123C404EB33D4080000E4387
:10B410000F4B2F52B012D08321533B4130411B15AB
:10B420000A4E0F9313241F4F0200B012868B0A3C62
:10B430000E4A0F4B2F53B012FCB90F9308200F4B3D
:10B44000B0126A8C0B4F0F93F323013C0B430F4B4D
:10B450001A1730413B150A4F094E084D0E933924F7
:10B460000F9337241F4F0200B012868B0A3C0E49FF
:10B470000F4B2F53B012FCB90F9319200F4BB01282
:10B480006A8C0B4F0F93F323273C0E4BB0121E8C8C
:10B490000E3C1E4F04000A9E022C0B4F0A4EB012A7
:10B4A0006A8C0F93F623089A142C0B9312248B4367
:10B4B00006000E490F4B2F53B012F4B98B4804000D
:10B4C0000F4B3F500A00B01262B28B4308001F437B
:10B4D000013C0F43381730413F403C1DB012AC8C4B
:10B4E0000B4F1F4A02000B93D023B012868B0A43E6
:10B4F000D83F0F9303241F4F020030410F433041C8
:10B500001B150A4F0F930F24B0121EB40B4F0F934D
:10B510000A240E4F1F4A0200B012D48B0E4B3F403C
:10B520003C1DB012EA8C1A1730410F9305241F4FAF
:10B530000200B012448C30410F4330411B150A4EBB
:10B540000F930E241F4F0200B012868B0B43053C55
:10B550000B9A07241B53B0126A8C0F93F923013CFA
:10B560000F431A1730410B120B4F0F930A200F3C59
:10B570001F4B0200B012C68B0E4F3F403C1DB01255
:10B58000EA8C1F4B0200B012868B0F93F1233B41D4
:10B5900030410F9304248F4E04008F430600304146
:10B5A0000B120B4F0F9309244E4E3F500A00B0125E
:10B5B00016B38B4308008B4306003B4130410B120E
:10B5C0000B4F0F9309244E4E3F500A00B01274B235
:10B5D0008B4308008B4306003B4130410B120B4F5D
:10B5E0000F9306243F500A00B01226B38B43060087
:10B5F0003B4130410B120F9308241B4F04003F5076
:10B600000A00B01228B30F5B013C0F433B413041AD
:10B610002B150F931A241F4F0200B012868B0B4F6D
:10B620003940FF010A430E3C0F4BB012F4B50F999D
:10B63000052C0F4BB012F4B5094F0A4B0F4BB0124B
:10B640006A8C0B4F0B93F023013C0A430F4A2917D6
:10B6500030410F9303241F4F040030410F4330410A
:10B660000F9307243D4000780E433F501000B01266
:10B67000F28930410F9307243F501000B012308AF6
:10B680001E430F9301240E430F4E30410B120B4FFC
:10B690000F931124B01274B60E4B3E500A000F9354
:10B6A00006240F4EB01228B33F504000053C0F4E09
:10B6B000B01228B3013C0F433B4130413F40441D91
:10B6C000B012768C3F404C1DB012768C30413F401A
:10B6D0004C1DB012528D30411B153F404C1DB01215
