:105C000055425C0135D0085A8245F82F3140005C7E
:105C10003F40A0000F9308249242F82F5C012F838D
:105C20009F4F1EC2001CF8233F4058130F930724B8
:105C30009242F82F5C011F83CF43A01CF9233182CD
:105C4000B0123062B0128678B012107A6F42B01281
:105C5000267A3E4021000F43B0125C635F43B012CE
:105C6000267AB0126C9B5F42D22F7FF0FEFFC24FAC
:105C7000D22F5E42D72F0E125E42D62F0E125E42F8
:105C8000D52F0E125E42D42F0E125E42D32F0E126B
:105C90004F4F0F125F42D12F0F125F42D02F0F12C2
:105CA0003012B8BCB01298B231501200B0120A8350
:105CB0006F42B012267AB0121864A243021D5F42EE
:105CC000D02F2F53B012DE85B01282810E433F4099
:105CD000341CB012B282B012D27CB0127A612D4361
:105CE0000E430F41B01298611F42021D0F9307200F
:105CF000D142D72F0000D142D62F0100053CC14F21
:105D000000008F10C14F01000F41B0127E90301281
:105D1000E7BCB01298B25F410200814F0000301220
:105D2000F2BCB01298B221525F4101000F12301242
:105D3000F6BCB01298B22152B012DC715A42CE2F8A
:105D40008A105F42CF2F0A5F3D420E430F41B012CF
:105D500098613E40CE2F0F41B01264905F41070022
:105D60000F125F4108000F125F4109000F125F41DF
:105D70000A000F125F410B000F125F410C000F125F
:105D80005F410D000F125F410E000F123012FABC7E
:105D9000B01298B2315012000D410E4A3F40CDABC7
:105DA000B0120870301227BDB01298B221537F4054
:105DB0000700B012307A1F42021D0F9307240F1202
:105DC00030123DBDB01298B22152043C3F404ABD52
:105DD000B012CEBA92129ABE92126CBE92123ABE13
:105DE0001A42A6BE8A120F9309248A120C4F0D4341
:105DF0003E4080000F43B01218B2033C3E4080008A
:105E00000F4330120B001F15121298BE12126ABEF9
:105E10001212B0BE30125BBDB01298B231500E00FB
:105E20003F408284B0123E63B012CC84B012C28B69
:105E30005E42CE2F5E0E0F4E3F501000B0124E8BC2
:105E4000B012887BB012EE7A824F782FD2436C2F3B
:105E5000301292BDB01298B221533A40A4BC083C13
:105E60001F12020030129BBDB01298B221522A5369
:105E70002F4A0F93F5233F400A00B0123C773F4072
:105E8000A4BCB0125E7BB012DA62B0120063B01232
:105E9000EE62B0129E810F930124F937B012C662F0
:105EA0000A4FB01242820F930420B01230634F9316
:105EB000022402DAEC3FC2936C2F14241A423A2FC8
:105EC0001B423C2FB012EE7A084F1882782F0943FC
:105ED0000E480F490E5A0F6B824E3A2F824F3C2FBD
:105EE000C2436C2FB012EE7A824F7A2FD2436D2FBD
:105EF0001D42F41C1E42F61C2F43B012F27BB0125E
:105F0000006332D0D80032C203432F43B012B07BBB
:105F1000824EF41C824FF61C32D2B012DA62C29367
:105F20006D2F14241A423E2F1B42402FB012EE7ADE
:105F3000064F16827A2F07430E460F470E5A0F6BF5
:105F4000824E3E2F824F402FC2436D2FB012EE7A09
:105F5000824F782FD2436C2F9A3F32D0F000FD3F12
:105F6000304034BC0B120B4F2F4F0F9E0D248B4E25
:105F700000001F4B02004F4F0E930324B012267AED
:105F8000053CB012307A0A3C0F9308241D4B0400E4
:105F90001E4B06000F4B3F52B012747F3B41304105
:105FA0000B120B4F2F4F0F9304243F908700A52017
:105FB0003E3CB01286730F12301236BCB01298B24B
:105FC0002152F2401F00A01C8243A21C8243B61C37
:105FD0008243CA1CB2408000BA1C8243BC1CB2403F
:105FE0008000CE1C8243D01C9243A61C8243A81C76
:105FF000A242A41C9243CC1CA243B81C3D40B4BC9A
:106000003E4081243F40DE1CB012E48C3D408000C5
:106010000E433F40E81CB012747F1E433F40810096
:106020009212ACBDBB40870000005F436A3C7E908B
:1060300088FF42203D90E81C1C200F4DB012A47F29
:106040003E4005003F4047BCB012EA8FB012408F7F
:10605000DF42CA1C05003F401400B0123A8F1E43B5
:106060003F40A21CB012645F3F40DE1CB012088D9E
:10607000D93F3D90BE1C08200E433F40B61CB012D5
:10608000645F3F404CBC0A3C3D90D21C0A200E434A
:106090003F40CA1CB012645F3F4063BCB012CEBA2E
:1060A000C13F3D90AA1CBE230E433F40A21CB0122C
:1060B000645F3F407ABCF23F5E92242FB3233D9051
:1060C000A8BDB0235F42A01C7F90030004286F830B
:1060D000C24FA01C053CF2401F00A01CB012487A21
:1060E0005F42A01CB01272735F42A01C0F123012EC
:1060F00090BCB01298B22152953F8B4300007F4074
:1061000003003B4130410B12B012588F3F901300F7
:106110002F242E28B012408F3D4005003E4047BC42
:10612000B01250B20F9324201B42281DB240001C15
:10613000281D1E433F40CA1CB012645FB012408F3E
:106140001E43CF93050001200E433F40B61CB01202
:10615000645F3D4080000E433F40E81CB012747FF6
:106160003E40C0FF3F40E81CB012C87F824B281D54
:106170003B413041B012CEBA30410E433F40161C75
:10618000B012B28230410C4F043CFC4E00001C5354
:106190003D530D93FA2330410C4F043CCC4E00008C
:1061A0001C533D530D93FA23304130411E42F81CDD
:1061B0001F42FA1C3041824EF81C824FFA1C32C238
:1061C000034332D0400082436001B240500062017C
:1061D0008E108F104EEF0EEF4F4F7D40070012C311
:1061E0000F100E107D53FB233E50FF0F824E6401B3
:1061F00032C04000B2F0F0FF6E01B2F0FDFF0201CC
:106200003F40040D1F83FE2303430343A2B3020157
:10621000F12392426601660192426801680132D21E
:1062200030413E4060823F403B00B012B661304199
:1062300032C20343B0121663C2430A02C2430B02C6
:10624000C2432A02C2432B02C2434A02C2434B0248
:10625000C2430402C2430202F24040000502C243AC
:106260000302F24040000B02C2432402C243220256
:10627000C2432502C2432302C2434402C243420234
:10628000C2434502C2434302C2436402C2436202A4
:10629000F2D003006A02C2436502C2436302C243F2
:1062A0001A02C2431B028243F81CB2401000FA1CBF
:1062B000B012226232D21F42121C1FB303241F539A
:1062C000824F121C30410F4232C23FF2304102DF96
:1062D0003041304182435C0100131F42FC1C3F539C
:1062E000824FFC1C0320B2403C5A5C0130411F42EB
:1062F0005C013FF0FF003FD0185A824F5C013041F3
:106300001F42FC1C1F53824FFC1C1F930320B240F2
:10631000805A5C0130418243FC1CB0120063B2F031
:10632000FEFF020192D30001304182435C01304103
:106330005F428A065E42FE1C5FF34FDE3041824FB1
:10634000001D30410B124B4FB012EE625F428A06C5
:106350001FF3FC23C24B8E063B413041D2D3800653
:10636000F2D080FF8006C24E86068E108F104EEF50
:106370000EEFC24E8706F24006008806F2F0DFFFFD
:106380008502F2D010008502F2D030008B02C243A9
:10639000FE1CF2F0FEFF9C06F2F0FDFF9C06F2F000
:1063A000FEFF8006D2D39C0630415F15B012EE7A14
:1063B000824F7C2FD2436E2F1F429E062F931320B5
:1063C0005F428A062FF203245F428C060C3C5F4238
:1063D0008C061E42001D0E9306248E120F9303247A
:1063E000B1C0F0000C00C2936E2F14241A42422F49
:1063F0001B42442FB012EE7A0C4F1C827C2F0D43AF
:106400000E4C0F4D0E5A0F6B824E422F824F442F6F
:10641000C2436E2F5A17001321822D423E4080192D
:106420000F41B0128661D192141C00000420D19259
:10643000151C01000524E1430200F14003000300A4
:106440005F4102008F105E4103000FDE824F021D8C
:10645000215230410B120B4FB012709C3F408019FB
:10646000B012969C3E40CDAB3F408019B012E49CE8
:106470000E4B3F408419B012E49CB012889C3B4103
:1064800030413F507FFF2F93052C5F421B023FF0AE
:10649000400030410F4330413F90810022200E9355
:1064A0001824B01282640F931E200D430E433F4008
:1064B000D82FB0125A83F2D040001902F2F0BFFF79
:1064C0000B02F2F0BFFF05025F421B027FD04000CB
:1064D000043C5F421B027FF0BFFFC24F1B021F4301
:1064E00030410F4330411F4330415F4201023FF0D2
:1064F000400009203F40D82FB01298831E430F93CD
:1065000003240E43013C1E430F4E30413F507FFF9A
:106510002F93052C5F421B023FF0800030410F4358
:1065200030413F90810022200E931824B0120C6558
:106530000F931E200D430E433F40E82FB0125A83A5
:10654000F2D080FF1902F2F07F000B02F2F07F0020
:1065500005025F421B027FD080FF043C5F421B02AA
:106560007FF07F00C24F1B021F4330410F43304179
:106570001F4330415F4201023FF0800009203F404D
:10658000E82FB01298831E430F9303240E43013C5F
:106590001E430F4E30413F507FFF2F93042C5F422C
:1065A0001B023FF230410F4330413F9081002120D8
:1065B0000E931724B01296650F931D200D430E43C2
:1065C0003F40E02FB0125A83F2F0F7FF1902F2F0C9
:1065D000F7FF0B02F2F0F7FF05025F421B027FD2CA
:1065E000043C5F421B027FF0F7FFC24F1B021F43B8
:1065F00030410F4330411F4330415F4201023FF2BF
:1066000009203F40E02FB01298831E430F930324CC
:106610000E43013C1E430F4E3041F2F0FEFF4B0291
:10662000D2D34502F2F0FEFF43023041D2D34302FF
:106630003041F2F0FEFF43023041F2D21B02304102
:10664000F2F0F7FF1B0230410B120B4F2F4F3F9020
:10665000770023243F907E0036240F934C20B01205
:106660006A81C24F242F8243061D093CCF43202F4D
:106670000E433F4080009D1204009253061D1F42AE
:10668000061D0E4F5E021D4E0A1C0D93EF23C24FD6
:10669000041DBB4077000000333C8243081D824349
:1066A000061D1F3CCF93202F1A345F021D4F0A1C7A
:1066B0005E42242F0F43B01250820F930720BB403D
:1066C0007E0000001D3C5E92242F1A201F42061DF2
:1066D0003F50202FFFF07F0000009253081D92537F
:1066E000061D1F42061D5E42041D0F9EDB3B82936A
:1066F000081DD323CE3F8B4300007F400300013CA5
:106700005F433B4130411F420A1C30410B125B4248
:10671000041D3E400A1C0D43053C2E538E9FFEFF78
:1067200005240D4C0C4D1C530D9BF73B0F4C5F0289
:106730001F4F0A1C3B4130415C42041D3D400A1C76
:106740000E43053C2D538D9FFEFF03241E530E9CCC
:10675000F93BFED080FF202F3F40161CB012E48290
:1067600030414B15094F0D4F3D531D53CD93000044
:10677000FC23074D078938400A1C0A43093C3B4863
:106780000D472E4B0F49B01250B20F9306241A53E7
:106790005F42041D0A9FF33B0B430F4B47173041E9
:1067A0000E931F241F93102407283F900A001024E3
:1067B0003F900B001820103C1F43C2930C1D01207A
:1067C0000F438E4F00000B3C9E42101D0000073C03
:1067D000BE400B000000033CBE401A0000000F4307
:1067E00030412F4330411F4330411F4330411F434D
:1067F00030415F4201021FF330415E4200023EF031
:1068000040001F4301200F4330410B12F2F0FEFF06
:10681000E0053F400500B012AE78F2F0EFFF220233
:106820003F400500B012AE785F42FD052FF3FC2714
:10683000C243EE055F42EA051FF3FC235B42EC0511
:106840003F400500B012AE78D2D3E0051F43B0122E
:10685000AE78F2D0100022023F400500B012AE78B0
:106860004F4B3B4130410B124B4FF2F0FEFFE00526
:106870003F400500B012AE78F2F0EFFF22023F4039
:106880000500B012AE785F42FD052FF3FC27C24B26
:10689000EE055F42EA051FF3FC233F400500B012FE
:1068A000AE78D2D3E0051F43B012AE78F2D010001C
:1068B00022023F400500B012AE783B4130410B123E
:1068C000F2D040001A027F404200B0126668B01257
:1068D000EE7A3B40B9FE0B8FB0120A683FF08000A1
:1068E0000520B012EE7A0F5B0F93F63BB012EE7AF2
:1068F000824F862FD243732FD2430C1D3B41304130
:10690000F2F0FEFFE0053F400500B012AE78F2F075
:10691000EFFF22023F400500B012AE785F42FD0556
:106920002FF3FC27F2403000EE055F42EA051FF32B
:10693000FC235F42EC05C243EE055F42FD051FF3F9
:10694000FC275F42EC051F43B012AE783F400500C4
:10695000B012AE78D2D3E0051F43B012AE78F2D0B9
:10696000100022023F400500B012AE78F2F0FEFFA8
:10697000E0053F400500B012AE78F2F0EFFF2202D2
:106980003F400500B012AE785F42FD052FF3FC27B3
:10699000F2404700EE055F42EA051FF3FC233F404B
:1069A0000500B012AE78D2D3E0051F43B012AE7826
:1069B000F2D0100022023F400500B012AE78F2F093
:1069C000FEFFE0053F400500B012AE78F2F0EFFFA9
:1069D00022023F400500B012AE785F42FD052FF362
:1069E000FC27F2404700EE055F42EA051FF3FC2357
:1069F0003F400500B012AE78D2D3E0051F43B0127D
:106A0000AE78F2D0100022023F400500B012AE78FE
:106A100030411B15C2430C1DB012EE7A3A4034F3DC
:106A20000A8FB0120A682FF30524B012EE7A0F5ABB
:106A30000F93F73BC293732F14241A42562F1B4215
:106A4000582FB012EE7A0C4F1C82862F0D430E4C3D
:106A50000F4D0E5A0F6B824E562F824F582FC24346
:106A6000732F7F404500B0126668F2F0BFFF1A0234
:106A70005F4200023FF040000220B01200691A1786
:106A80003041D2930D1D0E20C2930F1D0424B0126D
:106A9000BE68C2430F1DC2930E1D0424B012126AB9
:106AA000C2430E1DF2530D1D30411B150B4F0A4EF4
:106AB000F2F0FEFFE0053F400500B012AE78F2F0C4
:106AC000EFFF22023F400500B012AE785F42FD05A5
:106AD0002FF3FC27F2403000EE055F42EA051FF37A
:106AE000FC235F42EC054C430D3CC243EE055F4284
:106AF000FD051FF3FC275F42EC054D4C0D5BCD4FB0
:106B000000005C534D4C0D9AF03B1F43B012AE7821
:106B10003F400500B012AE78D2D3E0051F43B0125B
:106B2000AE78F2D0100022023F400500B012AE78DD
:106B30001A1730411B150B4F4A4EF2F0FEFFE005CD
:106B40003F400500B012AE78F2F0EFFF22023F4066
:106B50000500B012AE785F42FD052FF3FC270F4B06
:106B60008F107FD02000C24FEE055F42FD052FF34E
:106B7000FC27C24BEE055F42FD052FF3FC27C24AFE
:106B8000EE055F42EA051FF3FC233F400500B0120B
:106B9000AE78D2D3E0051F43B012AE78F2D0100029
:106BA00022023F400500B012AE781A1730412B1573
:106BB0000A4F0B4ED2530D1D7F404800B01266683D
:106BC000494B6953F2F0FEFFE0053F400500B0126B
:106BD000AE78F2F0EFFF22023F400500B012AE782F
:106BE0005F42FD052FF3FC27F2403A00EE055F42BD
:106BF000FD052FF3FC27C249EE055F42FD052FF38B
:106C0000FC275F42EA051FF3FC233F400500B0125A
:106C1000AE78D2D3E0051F43B012AE78F2D01000A8
:106C200022023F400500B012AE78F2F0FEFFE00510
:106C30003F400500B012AE78F2F0EFFF22023F4075
:106C40000500B012AE785F42FD052FF3FC27F2403D
:106C50003A00EE054D430C3C5F42FD052FF3FC2747
:106C60000C5AE24CEE055F42FD052FF3FC275D5305
:106C70004C4D0C9BF12B5F42EA051FF3FC233F4078
:106C80000500B012AE78D2D3E0051F43B012AE7843
:106C9000F2D0100022023F400500B012AE78B012D0
:106CA000826A0F43291730410B120B4FF2F0FEFF9F
:106CB000E0053F400500B012AE78F2F0EFFF22028F
:106CC0003F400500B012AE785F42FD052FF3FC2770
:106CD0000F4B8F107FD01000C24FEE055F42EA05C8
:106CE0001FF3FC235F42FD052FF3FC27C24BEE058B
:106CF0005F42EA051FF3FC23C243EE055F42FD0538
:106D00001FF3FC275B42EC053F400500B012AE7854
:106D1000D2D3E0051F43B012AE78F2D010002202A9
:106D20003F400500B012AE784F4B3B413041C2931B
:106D30000C1D0C20C2930D1D0324D2430F1D063CD5
:106D4000D2430D1DB012BE68B012826A1F4330419B
:106D5000C2930C1D1324C2930D1D0324D2430E1D98
:106D60000D3CD2430D1DB0120A682FF30324D24309
:106D70000E1D023CB012126AB012826A1F433041EB
:106D80001B15C2930D1D3120D2430D1DC2930C1D46
:106D90000420B0122E6D1A43013C0A43C2930C1D0D
:106DA0000720B012826A0A932024B012506D1D3C55
:106DB000B012EE7A3B40B9FE0B8FB0120A683FF07A
:106DC00040000520B012EE7A0F5B0F93F63B5F4256
:106DD00000028F110F5F0F430F6F0B4F0A930224B6
:106DE000B012506DB012826A013C1B430F4B1A1750
:106DF00030412B1521830A4F094E5F4200023FF0BC
:106E000040007B24D2530D1D9253302FF2F0FEFF31
:106E1000E0053F400500B012AE78F2F0EFFF22022D
:106E20003F400500B012AE785F42FD052FF3FC270E
:106E3000F2403000EE055F42EA051FF3FC235F429B
:106E4000EC05C243EE055F42FD051FF3FC275B42E4
:106E5000EC051F43B012AE783F400500B012AE788B
:106E6000D2D3E0051F43B012AE78F2D01000220258
:106E70003F400500B012AE784B9307387B9003007B
:106E800004284E4B2E83099E052CB0120069B012C7
:106E9000826A333C0F4AB012AA6A2E430F41B012E5
:106EA000AA6A5E4101004E9311346D41C24D322FEA
:106EB0007EF07F00C24E382F3F40A22FC24DA22F3E
:106EC000AF11C24EA02FCF43FFFF013C6B435F4287
:106ED00000023FF040000C245F4200023FF020001F
:106EE0000320B0120069043C3F40201CB012E48231
:106EF000B012826A4F4B2F83013C0F432153291755
:106F000030410B120B4F2F4F0F9304243F90AB02D5
:106F10001820043CBB40AB020000183C7E9082FF6E
:106F20001520B012D08F92420A1DA42FB012408FAC
:106F30003E408000B012F26DB0123A8F9212A0BEA5
:106F4000E93F8B4300007F400300013C5F433B412E
:106F500030411F42101D30411B15D2530D1D824F71
:106F6000101D0B4F5B060B5F3B50D4FFB012EE7A47
:106F70003A4034F30A8FB0120A683FF080000520CF
:106F8000B012EE7A0F5A0F93F63BB012EE7A3A40F7
:106F900034F30A8FB0120A682FF30524B012EE7A88
:106FA0000F5A0F93F73B4E4B3F402E00B012346BFD
:106FB000C2930C1D04247F404200B0126668B012D8
:106FC000826A1F431A1730410F9303241F9318201E
:106FD0000C3C1E930320B0122E6D103C0E93032028
:106FE000B012506D0B3C2F4330410F4E3F50F5FF18
:106FF0003F901000072C0F4EB012586F0F433041D6
:107000001F4330412F4330413B153150F6FF094FAC
:107010000A4E084DD2530D1DB012EE7A3B4034F3A8
:107020000B8FB0120A683FF080000520B012EE7A94
:107030000F5B0F93F63BC14900008910C149010065
:10704000F2F0FEFFE0053F400500B012AE78F2F02E
:10705000EFFF22023F400500B012AE785F42FD050F
:107060002FF3FC27F2402300EE055F42FD052FF3CE
:10707000FC27F240F2FFEE050F435E42FD052EF3C2
:10708000FC270E410E5FE24EEE051F532F93F523B2
:107090005F42EA051FF3FC233F400500B012AE78C3
:1070A000D2D3E0051F43B012AE78F2D01000220216
:1070B0003F400500B012AE78C14A00008A10C14AB4
:1070C0000100F2F0FEFFE0053F400500B012AE788F
:1070D000F2F0EFFF22023F400500B012AE785F42AF
:1070E000FD052FF3FC27F2402300EE055F42FD056E
:1070F0002FF3FC27F240F4FFEE050F435E42FD053F
:107100002EF3FC270E410E5FE24EEE051F532F9328
:10711000F5235F42EA051FF3FC233F400500B01250
:10712000AE78D2D3E0051F43B012AE78F2D0100093
:1071300022023F400500B012AE78089349240E4168
:107140003E5009000F430D480D5FEE4D00001F53E8
:107150003E533F92F823F2F0FEFFE0053F4005006A
:10716000B012AE78F2F0EFFF22023F400500B012FD
:10717000AE785F42FD052FF3FC27F2402300EE05B9
:107180005F42FD052FF3FC27F240EAFFEE050F43B7
:107190005E42FD052EF3FC272E430E510E5FE24E9C
:1071A000EE051F533F92F4235F42EA051FF3FC23D1
:1071B0003F400500B012AE78D2D3E0051F43B012B5
:1071C000AE78F2D0100022023F400500B012AE7837
:1071D000B012826A31500A00381730410B12B012D7
:1071E000C6620B4FB0126A76F2F0BFFF1A02F2F0DD
:1071F000BFFF1802F2F0BFFF1C0202DBF2F0F7FF44
:1072000083023F40FA00B012AE78F2D283023F40D0
:10721000FA00B012AE78F2F0FBFF83023F407F002D
:10722000B012AE78E2D283023F407D00B012AE7859
:107230007F404000B01266683F407D00B012AE78DB
:10724000B012EE7A3B40B9FE0B8FB0120A683FF0E5
:1072500080000520B012EE7A0F5B0F93F63B7E4064
:1072600094FF3F403100B012346B7E4013003F402A
:107270003000B012346B7E40F8FF3F403600B01251
:10728000346B7E4085FF3F404600B012346B7E4039
:1072900014003F404700B012346B7E403F003F4037
:1072A0004A00B012346B7E405A003F404C00B0128E
:1072B000346B7E402B003F404F00B012346B7E4059
:1072C00011003F405300B012346B7E40EBFF3F4053
:1072D0005400B012346B4E433F404400B012346B44
:1072E0007E4010003F405600B012346B7E400E00CE
:1072F0003F405700B012346B7E4003003F405800BF
:10730000B012346B7E4060003F400C00B012346B12
:107310007E400D000F43B012346B5E433F400D00C2
:10732000B012346B7E407F003F403400B012346BAB
:107330000D430E433F43B01208703F400B00B012A4
:10734000586FB01200690E433F40201CB012B28249
:107350001F433B413041F2F0BFFF1C023F40201C65
:10736000B012E4829242282F0A1D92532E2F1F43FF
:107370003041D2530D1D4E4F3F403000B012346BA0
:10738000B012826A30410B12D2530D1D3F403000C3
:10739000B012A86C4B4FB012826A4F4B3B41304148
:1073A0002B1521830B4FD2530D1D8293A62F0B2437
:1073B000B0128673094F5E42A62F7E533F403000C5
:1073C000B012346B013C09437F404200B012666842
:1073D000B012EE7A3A4034F30A8FB0120A683FF0E6
:1073E00040000520B012EE7A0F5A0F93F63B7F4013
:1073F0004400B01266683E4020035F4201021FF362
:10740000A8249142282F0000A292B42F4120F2F02C
:10741000FEFFE0053F400500B012AE78F2F0EFFF4E
:1074200022023F400500B012AE785F42FD052FF307
:10743000FC270E4B3E50FF008E107ED02000C24E27
:10744000EE055F42FD052FF3FC277B53C24BEE0593
:107450000F435E42FD052EF3FC270E410E5FE24E08
:10746000EE051F532F93F5235F42EA051FF3FC231C
:107470003F400500B012AE78D2D3E0051F43B012F2
:10748000AE78F2D0100022023F400500B012AE7874
:10749000B0120A682FF36724C2930C1D1724C293FD
:1074A000732F14241A42562F1B42582FB012EE7A13
:1074B0000C4F1C82862F0D430E4C0F4D0E5A0F6B36
:1074C000824E562F824F582FC243732FB012EE7A3E
:1074D000824F842FD243722FB012EE7A3A4034F3A7
:1074E0000A8FB0120A682FF30524B012EE7A0F5AF1
:1074F0000F93F73BC293722F14241A42522F1B4250
:10750000542FB012EE7A0C4F1C82842F0D430E4C78
:107510000F4D0E5A0F6B824E522F824F542FC24383
:10752000722FC2930C1D0724B012EE7A824F862F61
:10753000D243732F023CB012126A8293A62F052405
:107540004E493F403000B012346BB012826A0F4394
:107550000D3C3E5352238293A62F05244E493F40B3
:107560003000B012346BB012826A2F4321532917B6
:1075700030410B120B4EB012AE6B0F4BB012A0731A
:107580003B4130411B15C2930D1D2620D2430D1DDA
:10759000C2930C1D0420B0122E6D1A43013C0A4305
:1075A000B012EE7A3B40B9FE0B8FB0120A683FF082
:1075B00040000520B012EE7A0F5B0F93F63B3F4080
:1075C0003800B012A86C4B4F8B110A930224B012F2
:1075D000506DB012826A013C0B430F4B1A173041B9
:1075E0000B12C2930D1D0C20D2430D1DB0120A6860
:1075F0003FF040001B4301200B43B012826A013C64
:107600001B430F4B3B413041D2530D1D4E4F3F406A
:107610003600B012346BB012826A30415F15B0127E
:10762000EE7A824F7C2FD2436E2FB01256730F9397
:107630000324B1C0F0000C00C2936E2F14241A4230
:10764000422F1B42442FB012EE7A0C4F1C827C2F2B
:107650000D430E4C0F4D0E5A0F6B824E422F824F30
:10766000442FC2436E2F5A170013B0121E9EF2D041
:1076700010002402F2D28502E2D28502F2F0BFFFAE
:107680000402F2F0DFFF0402F2F07F000402F2F0E5
:10769000FEFF0502B01216773F400500B012AE782B
:1076A000D2D3E0051F43B012AE78F2D01000220210
:1076B0003F400500B012AE7830415F15B012EE7A4F
:1076C000824F7C2FD2436E2F1F42EE035F42010296
:1076D0001FF30624D253262F9242D403282F053CB1
:1076E000C243262F9242D4032A2F1A42422F1B4212
:1076F000442FB012EE7A0C4F1C827C2F0D430E4C9F
:107700000F4D0E5A0F6B824E422F824F442FC243B1
:107710006E2F5A170013D2430B02B2400401C0036C
:10772000B24000C9C403B2D01000C403B2D02000DC
:10773000C003B012EE7A824FD00330410B120B4FD0
:107740004F4FB01244630F4B3B4130415F15B012B5
:10775000EE7A824F7C2FD2436E2F1F42AE032F93BF
:107760005820B2B02000800306241F4294031F82D9
:1077700090031F93F6271F4290031E4290030F9E13
:10778000FA232A3CB250000194031E42141D1F42EA
:10779000161D1E530F63824E141D824F161D1E426E
:1077A000141D1F42161D3EF07F000FF30E930E2096
:1077B0000F930C201E42181D1F421A1D1E530F63EB
:1077C000824E181D824F1A1DB012FE7B1F4290037D
:1077D0001E4290030F9EFA23824F121D1F42121D5C
:1077E0001F8294030F93CE37B0120C800F93112495
:1077F000B01218801C42141D1D42161D3CE33DE3CF
:107800000C5E0D6F0D930534B0126A7EB1C0F000AE
:107810000C00C2936E2F14241A42422F1B42442F95
:10782000B012EE7A0C4F1C827C2F0D430E4C0F4D84
:107830000E5A0F6B824E422F824F442FC2436E2F3F
:107840005A1700131E42141D1F42161D1C42141D00
:107850001D42161D0E9CF6230F9DF4233041824CD1
:1078600090033C500001824C9403824E141D824FC1
:10787000161D30413F40000130411E42121D1F4283
:1078800090030F8E304132C20343B24004018003A3
:10789000B24010008403B24000019403B2D0200033
:1078A00080038243141D8243161D32D23041023CB4
:1078B00003433F530F93FC2330413B15084E094FC0
:1078C000B01244780A4E0B4FB01244780C4E0D4F54
:1078D0000C8A0D7B0D99F82B02200C98F52B38178C
:1078E00030411B150A4E0B4FB012C662824A181D5A
:1078F000824B1A1D02DF1A1730411E42181D1F420B
:107900001A1D1C42181D1D421A1D0E9CF6230F9DA8
:10791000F42330411F4290031E4290030F9EFA232E
:1079200030412B15494F59E21C1DC24F1C1D4949BE
:1079300019B320241FF30724B012EE7A824F7E2F52
:10794000D2436F2F173CC2936F2F14241A42462F35
:107950001B42482FB012EE7A0C4F1C827E2F0D4333
:107960000E4C0F4D0E5A0F6B824E462F824F482FF2
:10797000C2436F2F29B322245F421C1D2FF307241B
:10798000B012EE7A824F802FD243702F173CC293F1
:10799000702F14241A424A2F1B424C2FB012EE7A39
:1079A0000C4F1C82802F0D430E4C0F4D0E5A0F6B47
:1079B000824E4A2F824F4C2FC243702F29F222242D
:1079C0005F421C1D2FF20724B012EE7A824F822FE5
:1079D000D243712F173CC293712F14241A424E2F99
:1079E0001B42502FB012EE7A0C4F1C82822F0D4397
:1079F0000E4C0F4D0E5A0F6B824E4E2F824F502F52
:107A0000C243712F5F421C1DB012A67A2917304164
:107A1000B012687AC2431C1D3041B012767A3041F0
:107A2000B012227930415FD21C1DB0122279304150
:107A30005E421C1D4ECF4F4EB012227930415FE2A4
:107A40001C1DB012227930410B125B421C1D7BE3DE
:107A50004F4BB0123E7A3F409001B012AE784F4B80
:107A6000B0123E7A3B413041F2D070006502F2D054
:107A70007000630230415E4263024E4E3EB0100021
:107A800002244D43013C6D420C4E3CF020005F430C
:107A900001244F434FDD3EF0400002244E43013CA1
:107AA0006E434FDE30415E4263027EF08FFF4F4FE8
:107AB0002FB202244D43023C7D4010004EDD1FB327
:107AC00002244D43023C7D4020004DDE2FF3022472
:107AD0004F43023C7F4040004FDDC24F63023041C4
:107AE00032C20343B2401000820332D230411F42FF
:107AF00090031E4290030F9EFA2330415F15B0128F
:107B0000EE7A824F7C2FD2436E2FB012DA62B0121F
:107B10003483B01242820F9304240338B1C0F000C2
:107B20000C00B0120063C2936E2F14241A42422F2D
:107B30001B42442FB012EE7A0C4F1C827C2F0D4357
:107B40000E4C0F4D0E5A0F6B824E422F824F442F18
:107B5000C2436E2F5A170013824F920330410B120B
:107B60000B4F033C0E43B012B2823F4B0F93FA23EC
:107B70003B4130410B120B4F023CB01278813F4B1E
:107B80000F93FB233B4130413D40782F3E403A2F3D
:107B90000F438D4300008E4300008E430200CF430D
:107BA0006C2F1F532D532E523F900C00F223304167
:107BB0001B150B4FCF936C2F1224B012EE7A0A4F85
:107BC0000C4B5C060D4B5D023D50782F0E4A2E8DFE
:107BD0000F438C5E3A2F8C6F3C2F8D4A00005B0662
:107BE0001E4B3A2F1F4B3C2F1A1730410E430F43A9
:107BF00030415F068F4D3A2F8F4E3C2F30414B1551
:107C00003A403A2F3B40782F0743C7936C2F0B2401
:107C1000B012EE7A084F288B09438A5800008A690F
:107C200002008B4F000017532A522B5337900C0041
:107C3000EC23471730412B150A4F094D2F4F0F9357
:107C400004243F904A003D20173C3F40201DB012C5
:107C5000EE840B4F093C1D4B06001E4B08000F4BDA
:107C60002F53B012747F2B4B0B93F523D2431E1D61
:107C7000BA404A0000002A3C7E9088FF27203F40FF
:107C8000201DB012EE840B4F193C0F4B2F53099F50
:107C900014200E4B3F40201DB0123C851942281D78
:107CA000924B0E00281D1E4B10000E9303241F4BF9
:107CB00012008E128249281DDB3F2B4B0B93E523CC
:107CC000D73F8A4300007F400300013C5F432917F0
:107CD0003041C2431E1D3F40201DB012E8840E43B8
:107CE0003F402A1CB012B28230410B1219150B4FC3
:107CF000084D094E9F410A000E008F4C10009F4115
:107D000008001200C2931E1D0B241842281DB24009
:107D10002A1C281D2F53B012747F8248281D043C52
:107D20008B4D06008B4E08000E4B3F40201DB012BD
:107D3000868518173B4130411212281D111206008A
:107D4000B012EA7C215230411B150B4FC2931E1D0D
:107D50000A241A42281DB2402A1C281D2F53B01293
:107D6000A47F824A281D0E4B3F40201DB0128685FD
:107D70001A1730411B150B4FC2931E1D0A241A42BD
:107D8000281DB2402A1C281D2F53B012B67F824AEC
:107D9000281D0E4B3F40201DB01286851A1730411A
:107DA0000B120B4FC2931E1D04242F53B0122E80B2
:107DB000043C8F430A008F430C000E4B3F40201DB4
:107DC000B0123C853B4130410B120B4FC2931E1D3C
:107DD00004242F53B012E27F0E3C3F40201DB0120E
:107DE000EE840E4F033C0E9B05242E4E0E93FB2378
:107DF0001F43013C0F433B4130412B158293221D11
:107E000005208243241D8243261D2D3CB012447858
:107E10001A42221D1C4A04001D4A06002C5A1D6AE3
:107E200002000C8E0D7F194A0800133C1A49040009
:107E30001B4906002A591B6902000A8E0B7F0B9D05
:107E400004280D9B04280A9C022C0C4A0D4B19494E
:107E500008000993EB230A4C0B4D0A5E0B6F824A14
:107E6000241D824B261D291730413F40341CB0127F
:107E7000E48230412B150A4F2F4F0F9304243F907B
:107E800059005220073C8243221DBA40590000008D
:107E90005F434E3C7E9087FF1A201E42221D023C0B
:107EA0001E4E08000E93EF278E9D0A00F927824E82
:107EB000221D083C8C9D0A0004209E4C08000800EE
:107EC0000C4E0E4C1C4E08000C93F423DE3F7E90AB
:107ED00082FFDB231B42221D0943233C0F4BB012C0
:107EE00098830F931B240D4B7E4088FF1F4B0A0085
:107EF000B01250820F9310208B430A000993042480
:107F0000994B08000800033C924B0800221D8B434C
:107F10000800B012FA7DDE3FB0126A7E094B1B4B9F
:107F200008000B93DB23B13F8A4300007F4003002E
:107F3000291730410B120B4FB0126A7E8B930A0047
:107F40000D241F42221D083C0F9B04209F42281D28
:107F50000A000C3C1F4F08000F93F6239B42281D7C
:107F60000A009B42221D0800824B221DB012FA7D9E
:107F70003B4130410B120B4FB0125A830F4BB012E2
:107F8000347F3B4130412B15094F0A4D0B4EB01247
:107F90007683894A0400894B06000F49B012347F6A
:107FA000291730410B120B4FB01276830F4BB012D2
:107FB000347F3B4130410B120B4FB01284830F4B87
:107FC000B012347F3B4130410C4E8E108E118E101A
:107FD0008E110D4E8F5C00008F6D0200B012FA7D85
:107FE00030411E438F930A0001240E430F4E30414F
:107FF0001C4F04001D4F06002C5F1D6F02000E4C2D
:108000000F4D30412E4F1F4F020030411F438293CE
:10801000221D01200F4330418293221D05241E4260
:10802000241D1F42261D30410E430F4330410B12C9
:108030000B4F1F42221D0B9F0520924B0800221D53
:10804000113C0F4E0F9305241E4F08000E9BF92381
:10805000063C8B4308008B430A003B4130419F4B59
:1080600008000800B012FA7DF43F1B150B4F4A4E72
:108070005F4F08001FF31A241C4B04000C931624B6
:10808000824B281DEB4308000F4B3F5006008C121B
:108090008F112F832F9303287A9083FF05200E4B97
:1080A0000F4BB012B080023CDB4308001A1730417E
:1080B0003B150B4F084E1942281D1A422A1D0F4A24
:1080C000013C2F4F0F9B03240F93FB23343C0B9356
:1080D0003224CB9308001D24CB430800093C0B9AA3
:1080E00006240D4B7E4087FF0F4AB0126A802A4A51
:1080F0000A93F5231C4B04000C930B240B980924C2
:10810000824B281D0D437E4083FF0F4B3F500600DE
:108110008C121F422A1D0B9F0A20A24B2A1D093CCC
:108120002E4F0E9B0320AF4B0000033C0F4E0F93CE
:10813000F7238249281D381730410B12C2432C1DEA
:108140001B422A1D0E3CCB9309000A24DB43080086
:10815000CB4309000D437E4082FF0F4BB0126A8073
:108160002B4B0B93F0233B4130415F422D1D4E4F73
:108170005E53C24E2D1D30411E42281DB012B080EC
:108180003041F2408AFF2D1DC2432E1DC2432F1DD8
:10819000C243902F82432A1D8243281D30410B1277
:1081A0005F422C1D4F930224B0123A815B422F1D77
:1081B0004B933F245C422E1D0E4C5E020F4C5F0A17
:1081C0000F8E3F50301D6E4FC24E601D1D4F02007E
:1081D000824D621D1F4F0400824F641D1C537CF0B2
:1081E0000700C24C2E1D7B53C24B2F1D0F931A202C
:1081F00092422A1D661D123C5F422C1D4F930224A1
:10820000B0123A811D42621D5E42601D1F42661D12
:10821000B0126A801F42661DA24F661D8293661DC2
:10822000EB23073C7E9081FF0220DF430800B01261
:108230006A805F422C1D5E422F1D4F4F0F5E3B41F7
:1082400030415F422C1D5E422F1D4F4F0F5E30416B
:108250001B155B422F1D7B921E244C4B5C522E1D26
:108260007CF00700C24C681D4C4C0A4C5A025C0A58
:108270000C8A3C50301DCC4E00008C4D02008C4FBF
:1082800004004F4B5F53C24F2F1DC29F902F052CF0
:10829000C24F902F023C1F43013C0F431A1730413D
:1082A0000B121B42281DB0126A80824B281D3B41D5
:1082B00030411D422A1D0C4D013C2C4C0C9F1124B9
:1082C0000C93FB230F930D248F4D0000824F2A1D2A
:1082D000DF4308008F4306000D4E7E4081FFB01241
:1082E000A08230410F9309245E4F08007E536E93A5
:1082F000042CDF430900D2432C1D30411E43CF9391
:10830000080001200E430F4E3041B012E07A304198
:108310001D426A1D8F4C02009F41020004008F4ED7
:108320000000824F6A1D0D9303200F4EB012587B40
:108330000F4330411D426A1D0D930E2482436A1D76
:108340001E4D04000F4D9D1202001F426A1D0F9327
:1083500003242F4FB012587B30410B120B4F8F4D1F
:1083600004008F4E0600B01244788B4E00008B4FF5
:1083700002003B4130419F5F040000009F6F0600F8
:10838000020030410B120B4FB01244788B4E0000AC
:108390008B4F02003B4130410B120B4FB01244781F
:1083A0002E8B1F7B02001E530F631D438B9F060005
:1083B000052803208B9E040001280D430F4D3B41EF
:1083C00030411B151A4F04001B4F06002A5F1B6F1C
:1083D0000200B01244780C4A0D4B0C8E0D7F0E4CEF
:1083E0000F4D1A1730410B120B4F2F4F3F90670064
:1083F0000B243F90790039240F933B20B0126A81FF
:10840000C24F912F8243741D3F406E1DB0123686BD
:108410003F930420BB4067000000303C1E42741DA7
:108420003F900A0009243E907F00EE37CE4F761D24
:108430001E53824E741DE83FCE43761D1E53824E5E
:10844000741D3D40761D5E42912F0F43B012508245
:108450000D437E4085FF1F42281DB01250820F93AE
:10846000D123BB4079000000093C7E9085FF0620A7
:10847000C93F8B4300007F400300013C5F433B4109
:1084800030417F900D002024C2936C1D0A204E4F76
:108490003F406E1DB012FE850F931020D2436C1D1D
:1084A0000D3C7F900A000A207E400A003F406E1D6E
:1084B000B012FE850F930224C2436C1D3F403E1C48
:1084C000B012E4821F4330410F4330417D4080FFB2
:1084D0003E40F61D3F406E1DB012EA850E433F4000
:1084E0003E1CB012B28230418F43000030412F4F0A
:1084F0003041AF4E000030412F4F0F9302203041EA
:108500000F4E2E4F0E93FC2330410E4F2F4F0F93E3
:108510000D248F93000003208E43000030410E4F46
:108520002F4F8F930000FB238E43000030410E4FEE
:108530002F4F0F930224AE4F000030410B122D4FEE
:108540000D9314240C43023C0C4D0D4B0D9E0B203F
:108550002E4D0C9303208F4E0000023C8C4E0000E9
:108560008D430000033C2B4D0B93EE233B413041E8
:108570001B150B4F0A4EB0123C85AA4B00008B4ACC
:1085800000001A1730411B150A4F0B4EB0123C85E4
:108590008B4300000F4AB012F8840F9303208A4BDC
:1085A0000000023C8F4B00001A1730412E4F0F4342
:1085B000023C1F532E4E0E93FC2330410E93042099
:1085C0000E4DB01270853041AD4E00008E4D000052
:1085D00030410F9302242F4F30410F433041B012EE
:1085E00044BB3041B0121EBB30418F4E00007D5362
:1085F000CF4D0200CF430300CF43040030410B12A4
:108600005C4F03005D4F04000B4C0B8D0D4B5B4F1B
:1086100002000DFB4D9B0C242C5FCC4E00005E4FE6
:1086200003005E535EFF0200CF4E03001F43013C78
:108630000F433B4130411B155B4F04005C4F020070
:108640005E4F03004D4B0E8D4A4C0EBA08242D5F31
:108650006E4D5B534BFCCF4B04000F4E013C3F4330
:108660001A1730415F4F02001F5330415E4F030025
:108670005D4F04000E8D5F4F02000FFE30411B1551
:10868000B012D48B0A4F3F40761EB012EE84083CE5
:108690001F4B02000F9301248F120F4BB012D28593
:1086A0000B4F0F93F5230A9303240F4AB0120E8D3C
:1086B0001A173041B0122C8DB012D08FB01216891B
:1086C000B012CE8B301207003012000803123012A5
:1086D000001E3D4000020E432F43B012A6883152C7
:1086E00030413B15094F0A4E084D3F40761EB012EF
:1086F000EE84093C1E4B04000E9302240F4A8E1296
:108700000F4BB012D2850B4F0F93F4230D480E4A36
:108710000F49B0121C8D381730410E4F3F40761E66
:10872000B012868530410E4F3F40761EB0123C8518
:1087300030410B120B4FB012E48B0F930924B0128F
:10874000708E0E4B3F40E2869212B4BE1F43013C36
:108750000F433B41304130412B153150FAFF094E58
:10876000B012408F0A4F2D430E4F0F41B012866159
:108770002B415B062B53B012588F0F9B14282A53A2
:108780000B430F3C2D420E4A0F412F53B01286610E
:108790001D4104001E4102000F49B012F4892A5203
:1087A0001B532B91EF2B31500600291730410B1230
:1087B0003B40B81E03123C40F8872D4B1E4B020075
:1087C0000F4B3F50E0FFB012387D2153B012E485CB
:1087D0002C4B1D4B02000E4F0F43B01246B203123A
:1087E0003C4046880D4E0E4F0F4B3F50CCFFB01211
:1087F000387D21533B4130411E42B81E1F42BA1EF4
:108800000E5E0F6F1C42B41E1D42B61E0D9F042843
:108810000F9D04280C9E022C0E4C0F4D824EB81E4C
:108820003E40B81E8E4F0200B012AE873041D19349
:10883000020008209242AC1EB81E9242AE1EBA1E22
:10884000B012AE8730410B12B012D08FB012408FF1
:108850000B4F8F430000B012EA89113C0D4E5D06AC
:108860000D5B9D4F020002001E530D4E5D060D5B19
:108870009D4F040000008B4E0000B012D2852E4B9D
:108880000F930324CF930800E9230F4E5F062F5365
:10889000B0123A8F8B93000004243F40781EB01230
:1088A000CA8C3B4130411B150A4D0B4E3D403EBE2C
:1088B0000E4F3F40781EB012A28C3F40AC1E8F4A34
:1088C00000008F4B02009F41060004009F410800FA
:1088D00006009F410A0008009F410C000A003F402B
:1088E0002E88B012E4891A1730410B123B40981EB3
:1088F0000F4BB012A07D0F4B3F50ECFFB012A07D8C
:108900003F40781EB012C48C3B4130411E42B81E1D
:108910001F42BA1E30413F40BE1EB012E8843041B3
:108920001B150B4F8F4E0200CF4308008F4D0600E2
:108930000E4F3F40BE1EB01286851A42C01E0A93DB
:108940000A2453120C431D4B04005E4B08001F4BBE
:1089500002008A1221531A1730410E4F3F40BE1EAB
:10896000B0123C8530410B12CF4308001B42C01EA1
:108970000B93082443120C430D434E431F4F020038
:108980008B1221533B4130410B121C4F0400DF433B
:1089900008008F4E04001B42C01E0B930724431295
:1089A0000D4E5E431F4F02008B1221533B4130415D
:1089B0000B121B42C01E0B930A241C4F04005312BF
:1089C0000D4C5E4F08001F4F02008B1221533B419C
:1089D00030411E42C21E0E9301248E123041824F3E
:1089E000C21E3041824FC01E30413F40BE1EB012F9
:1089F000EE8430413B15094F0A4E084D3F40BE1EE4
:108A0000B012EE840E3C8F9A020009201B4F060024
:108A10000B9309240C480D4A0E498B12043CB012EA
:108A2000D2850F93F023381730410B123150E0FFFD
:108A30000B4F7E9083FF04203F40C61EB012C48CB3
:108A40002F4B3F90A8002D243F90B60058240F9341
:108A500071203D4054BE3E4007003F40C61EB0124C
:108A6000A28CB2400004D21E8243D41E1D42D21EEC
:108A70001E42D41E3F40D61EB012747FB012E48551
:108A80001C42D21E1D42D41E0E4F0F43B01246B2DE
:108A90000D4E0E4F3F40E21EB012747FBB40A80047
:108AA00000003F40E21EB012E27F0F934824D14203
:108AB000C41E0000C14301009142EE1E0200B0122C
:108AC0007A78814F0400B0124478814E0600814FBD
:108AD0000800B012FA78814E0A00814F0C008143E1
:108AE0001E003E4020000F41B012EA8FA242B42F78
:108AF0003F40C61EB012CA8CBB40B60000003F40CB
:108B0000D61EB012E27F0F931A241E42D21E1F42BD
:108B1000D41E0E5E0F6F824ED21E824FD41E0F9354
:108B200003203E900096A22BB2400096D21E8243B4
:108B3000D41E9C3F8B4300007F400300013C4F4309
:108B4000315020003B4130411F42C41E30411E4283
:108B5000C41E824FC41E0E9F09243F40481CB01201
:108B600078810E433F40481CB012B28230413150F0
:108B7000E0FFB012408F3D4020000E4F0F41B01279
:108B800086616F411F92C41E0B341E4102001E51AC
:108B90001E001E82A42F824EEE1E1F53B0124E8B5B
:108BA000315020003041B012EE7A1F52EE1E30419B
:108BB0001F82EE1E30411F52EE1E30411F42EE1E3C
:108BC00030410E433F40481CB012B2823041B012D7
:108BD000068C30419212D0BE0F930324924F0200B4
:108BE0009C2F30410B120B4F9212D2BE924B0200BF
:108BF0009C2F1E430F9301200E430F4E3B413041EB
:108C00009212D4BE30413F40F01EB012E884304191
:108C10008F4E02000E4F3F40F01EB012868530414D
:108C20000E4F3F40F01EB0123C8530410B120B4FEF
:108C30003F40F01EB012EE84053C8F9B02000424DE
:108C4000B012D2850F93F9233B4130411B150A4ED8
:108C5000B0122C8C0B4F0F9307248F4A04000F4A3D
:108C6000B012008CCB4F06001A1730411C4F0A007F
:108C70001C4C02000C9301248C1230410B122183F6
:108C80000B4F3E40922F0F41B01264901F4B0A00D1
:108C90002D4F0D9303240E410F4B8D1221533B4159
:108CA00030412B150B4F0A4E094D3D4058BEB012B6
:108CB000E48C8B490A003E405CBE0F4AB0124C8CDB
:108CC00029173041B012028D30410B120B4F3E403C
:108CD000CE2F3F40922FB01264900F4BB012088DF0
:108CE0003B4130412B150B4F0A4E094DB012108CF1
:108CF0008B4908003E4060BE0F4AB0124C8C2917C9
:108D00003041B012208C3041B012328730411E4FBA
:108D100008002E4E0E9301248E1230411C4F080085
:108D20001C4C02000C9301248C1230413F40521C19
:108D3000B0120C9F3F405A1CB0120C9F30413F4074
:108D40005A1CB012E89F30411B153F405A1CB0120C
:108D5000429F0B4F0F931C243F40521CB012429F66
:108D60000A4F8B4F00000F9307200E4B3F405A1CB9
:108D7000B012809F0B430C3CB012C08E8A4F800013
:108D80000E4A3E50B6000F4A3F508200B012149077
:108D90000F4B1A1730412F4F0E4F3E50B6003F5029
:108DA0008200B012149030410B122B4F0E4B3E50EC
:108DB000B6000F4B3F508200B01214900F4BB01210
:108DC000C08E8B4F80003B4130410B120B4F0E4F3A
:108DD0003F405A1CB012BA9F0F930A242E4B3F40BB
:108DE000521CB012809F0E4B3F405A1CB012809F05
:108DF0003B4130410B120B4F0E4F3F405A1CB012FB
:108E0000BA9F0F930E242B4B1E4B80000F4BB012BA
:108E1000EA8F0E4B3E50B6000F4B3F508200B0120F
:108E200034903B4130410B120B4F0E4F3F405A1CC8
:108E3000B012BA9F0F9302242F4B013C0F433B41CA
:108E400030412F4F1F4F800030414E4E3E50410069
:108E50005E022F4F0F5E30414E4E3E5041005E028B
:108E60002E5F2F4E30413041F2403000162B304102
:108E70001E42122B0E9312241C42142B3C50300025
:108E80003F4030003E501A2B053C0D4E0D5FEF4D1C
:108E90001A2B1F530F9CF93B8243122B30410B12AC
:108EA0005E42162B3B4030000D4B0D8E3E501A2B70
:108EB000B01286615E42162B0F4B0F8E3B41304144
:108EC0001B150A4F5E42162B1D42142B3D503000DD
:108ED0000D8E3D9081001E2C3B4030000D4B0D8EC1
:108EE0003E501A2BB01286615E42162B0C4B0C8E34
:108EF0001D42142B1E42182B1E52122B0F4A0F5CC0
:108F0000B01286611F42142B3F5030005E42162B78
:108F10000F8E013C0F431A173041C25F162B3041B0
:108F20001E42142B0E9F0728825F122B0E8F824E3B
:108F3000142B1F4330410F433041824F142B3041DB
:108F40001F42122B3F5030003F501A2B30415F42DE
:108F5000162B3F501A2B30411F42142B30417F40BB
:108F600030005F82162B02205F42122B3041B0127C
:108F70005E8F4F4F1F52142B30411B150B4F5A421F
:108F8000162B4F4A0F9B0B38B0126E8F0F5B3F9022
:108F90008100052C4A8BC24A162B1F43013C0F430C
:108FA0001A1730410B120F438F439A2F2F533F90C4
:108FB0003400FA230B430F4B5F023E4062BE3F502A
:108FC000922FB01264901B532B92F5233B413041FA
:108FD0008243122B8243142BF2403000162BB240F6
:108FE0004A2B182BB012A48F30411B150A4F0B4E81
:108FF000B012D08F3B90810002283B4080000D4B87
:109000000E4A1F42182BB0128661824B142B0F4B55
:109010001A1730410B120B4E3D4034003E409A2F40
:10902000B01286613D423E40922F0F4BB0128661D6
:109030003B4130410B120B4E3D4034000E4F3F4040
:109040009A2FB01286613D420E4B3F40922FB012D4
:1090500086613B4130413E4062BE3F40942FB0129A
:109060006C9030412D43B012866130412D43B012D7
:1090700078B21E430F9301240E430F4E30410E4F22
:109080003F40CE2FB012649030419212B8BE3041B2
:109090009212A2BE30419212A4BE30411F42A6BE1F
:1090A0000F9302248F1230410F4330410B120B4FAC
:1090B0000F930C241F4F1E00B012EE840F93062452
:1090C0000D4F0E4B3F40F29292129EBE3B413041FB
:1090D0003B15094F084EC293CA2B0620D243CA2B18
:1090E000B012E485824FCC2B8293CC2B022092438A
:1090F000CC2B1F42CC2B0E4F1E53824ECC2B824FBB
:10910000AE2F3F40CE2BB012EE840B3C3E40942F4E
:109110000F4B2F53B0126C900F9322200F4BB012B5
:10912000D2850B4F0F93F223853C3E40942F0F4B7B
:109130002F53B0126490CB431800CB431900CB439C
:109140001A000D4B3D501C008B4D1E008B431C0024
:109150000F4DB012E8840E4B3F40CE2BB0128685E7
:109160001F4B1E00B012AC853F900F0001245B34F2
:109170003F406A1CB012429F0A4F0F9344243F4065
:10918000721CB012429F8A4F04000F933724B01212
:10919000488D8A4F02001D4A04000F932A241C4266
:1091A000AC2F0C930420FD4003000400023CCD4C86
:1091B00004008D4900008D4802001F4B1E000E4A1E
:1091C0009293B42F0320B0127085023CB0128685B2
:1091D0001F4B1E00B012EE840A9F34200B123C403D
:1091E000AC900D430E430F4B2F52B012387D2153DC
:1091F000293C0E4D3F40721CB012809F0E4A3F40EA
:109200006A1CB012809F1F4B1E00B012AC850F93DA
:109210000A200E4B3F40CE2BB0123C850E4B3F40F8
:10922000621CB012809F1C432D420E480F49B012A1
:109230001894083C3F40621CB012429F0B4F0F93A2
:109240007423F13F381730413F406A1CB0120C9F25
:109250003F40721CB0120C9F3F40621CB0120C9F2A
:1092600030412B15094F0A4E0E9341241F4F1E000B
:10927000B0123C851F4A0200B012CA8D1E4A04007B
:109280003F40721CB012809F0E4A3F406A1CB012D1
:10929000809F1F491E00B012EE840F931A24C94309
:1092A0001800C9431900C9431A009212A6BE0A4FFA
:1092B0000B430F9303203A4010000B4309123C402C
:1092C000AC900D4A0E4B0F492F52B012387D2153EE
:1092D0000E3C0F492F52B012A07D0E493F40CE2BBD
:1092E000B0123C850E493F40621CB012809F291786
:1092F00030417B152182094F074E0F938A241E931C
:109300000E242E9303340E9307240E3C2E93042434
:109310003E9003000920063CC95D1800053CCF5D66
:109320001900023CCF5D1A001F491E00B012EE84E6
:109330000C3C7E400A001F480200B012588E1F925B
:10934000AE2F07240F48B012D285084F0F93F12398
:10935000603C1648040006935C24A1460000914638
:1093600002000200554918000F473F532F93462C27
:109370009212A6BE0A4F0B430F9303203A401000EF
:109380000B43B012E485044FD99604001800362C24
:109390002592023835400300174375F00F004593BE
:1093A000032407577553FB3F0D478D108D118D100A
:1093B0008D11021232C20343824AD404824BD60476
:1093C0008247E004824DE2041C42CA041D42CC04E0
:1093D00032410E440F43B01246B209123C40AC90E9
:1093E0000D4E0E4F0D5A0E6B0F492F52B012387D95
:1093F00021531F480200B012968D0B3C0E480F49B6
:10940000B01262920C450D471E4102002F41B0126E
:1094100018942152741730410B120B4F0F4E0E4D02
:109420000D4C0B9301248B123B4130413F40100007
:109430003041C243F42C8243FE2CB012EE7A031268
:109440003C4064951D430E4F3E5000103F40F82CA9
:10945000B01210832153D243F72CB01264AA3F40BC
:1094600078BEB012CEBA30415F42F72C4F93082439
:109470005F42F42C4F930420D243F42C9212EEBDA1
:1094800030415F42F72C4F930C245F42F42C4F93F2
:1094900008245F42F62C4F930420C243F42C92120E
:1094A000F0BD3041B01282948243022D3041C2435C
:1094B000F72CC24FF62C0F930524D243F42C9212B2
:1094C000EEBD3041C243F42C9212F0BD30415F42F8
:1094D000F72C4F931220D243F72CC243F62CB01234
:1094E000EE7A03123C4064951D430E4F3E5000102F
:1094F0003F40F82CB012108321531F4330410B1210
:1095000021830B4F814E0000B012EE7A0D4F3DE3E8
:109510002E410D5E0D930434B012EE7A0E4F1E53A1
:1095200003123C4064951D430F4BB012108321522F
:109530003B4130410B125B42F42C5F42F52C4F93C0
:109540000F208293022D0C20B01282944B9308249A
:109550005F42F42C4F9304203F40F02FB012569EF0
:109560003B4130412B150B4F1F42FE2C3F90880191
:109570003F243F908901032C0F930824D23C3F9055
:10958000BA0192243F90D601CC20043CB012EE7A6E
:10959000824FF22CB2500010F22CC243002DC24375
:1095A000012D283C5F42F52C4F9312208293022D0F
:1095B0000F205F42F52C4F930220B0126894921254
:1095C000E8BD0F930320D243002D173CB012349511
:1095D000B012EE7A5E42F72C4E9306240E4F3E50A8
:1095E00010000F4BB012FE94B2408801FE2C5A3C82
:1095F000D253012DE293012DD52BC293002D7A2455
:10960000B012EE7A824F042DC243062DC243072DBD
:109610004B3C9212E8BD0F930324D253062D023C1B
:10962000C243062DD253072D1942EABD89120F936A
:109630000224C243062DF2900600062D0C2C1A427D
:10964000ECBDF2900B00072D092889120F9306201C
:109650008A120F930320B0123495363C8A120F936E
:1096600033205F42F72C4F931A242A4BB012EE7A24
:109670000E4A3E5012000E8F0E930534B012EE7A51
:109680002F8B2F53023C3F40140003123C40649543
:109690001D430E4F2E5B0F4BB01210832153B2406F
:1096A000BA01FE2C5F43413C5F42F52C4F930C20E6
:1096B0005F42F42C4F930824B012EE7A1F82042DDF
:1096C0003F5067FE0F93A53B5F42F42C4F9312244B
:1096D0009212EABD0F9304209212ECBD0F9308245E
:1096E000B012EE7A1F82042D3F5067FE0F930238AE
:1096F000B0123495B012EE7A1F82F22C3F50A0F0D7
:109700000F9348371E42F22C5F42F72C4F930524EB
:109710003E5000100F4BB012FE94B240D601FE2C0A
:10972000C13F8243FE2C7F400300291730410B12BA
:109730008293022D0220B0128294B012588F3F9073
:1097400003004C24B0126E8F0F9348249212E6BE91
:109750000F934438B012588F0F934024B0126E8F7D
:109760000F933C243E40CE2F3F40942FB0126C907C
:109770000F930420B01256900F9330241F42C02F35
:10978000824F022D0F930D24B012689403123C40B7
:10979000A4942D420E433F40082DB012387D215332
:1097A000063CB01282943F40082DB012A07DB0124A
:1097B00014A30B4F0F930220B0124AA33F401C2D5D
:1097C000B012569E3F401C2DB012DC9E3F401C2D17
:1097D000B012C09E0B930220921270BE3B413041EA
:1097E0007B1531820B4F0A4E094D064C5F42F72C18
:1097F0004F9306205F42F62C4F9302203040109A80
:10980000B0126E8F0F9302203040109A3E40CE2F40
:109810003F40922FB0126490B0125690084F82933E
:10982000B22F06209243B02F9212E4BE0F93F0386D
:109830005743089301204743B0126E8F814F0400B5
:10984000B0124E8F1E4104009212E0BD47931220C9
:109850000693102009120A120C4B3D4008023E40AC
:1098600000103F40942FB01286A921522F93C92493
:109870000F9302204843013C5843D243F52C9212E7
:10988000EABD0F9304209212ECBD0F930324C24350
:10989000F52CBA3CB01282945442F72CD243F72CE8
:1098A00006932B203B4006001542E8BDB012EE7A2D
:1098B000094FB01268943A40FCFF0A89B012EE7A60
:1098C0000F5A0F93FB3B85120F930920B01282941D
:1098D000C243F52CB0128294C244F72C953CB012CE
:1098E0008294B012EE7A3A40F0FF0A8FB012EE7A0C
:1098F0000F5A0F93FB3B3B53D92347930220B012DF
:109900006894B012EE62B012EE7AD142AE2F060029
:109910003540B0EF058F3A40DEFD0A8F443CB0126F
:10992000EE62479309200693022048930524B01263
:10993000EE7A0F5A0F933C34B012EE7A094F1F4162
:1099400004009212E2BDB012EE7A3B40F3FF0B8F9F
:10995000B012EE7A0F5B0F93FB3B479324209212D9
:10996000EABD0F9308209212ECBD0F9304209212CF
:10997000E8BD0F931820B012EE7A3B40EBFF0B8F3F
:10998000B012EE7A0F5B0F93FB3B3E4003000F419A
:109990009212E6BD3F9003000420D1910200060020
:1099A00009245B430A3CB012EE7A0F550F93B73B84
:1099B0004B43033C4B435A43023C4A430943B012D6
:1099C00082943F401C2DB012569E3F401C2DB01279
:1099D000DC9E3F401C2DB012C09EC244F72CC243F7
:1099E000F52C4B931120479311204A9317202B43BA
:1099F000069310200D4B0E493F40942FB01202A940
:109A0000093C3B400300063C1B43043C0B43023C27
:109A10003B4005000F4B3152741730410B43E83F78
:109A20004B15094F084E0A4D0D9356248293022D73
:109A300007241F4D0200B012F48D1C431D431B3C34
:109A40000B4D013C0B470F4BB012D285074F1F4BFC
:109A50000200B012F48D8293B22F182007930224D3
:109A60009243C02F9243B02F9212E4BE0F9308345A
:109A70001C433D4005000E480F49B01218942C3C81
:109A80009243B22F1F4B0200B012A88D0793DA2326
:109A90000B4A0A43023C0B471A430F4BB012D285C4
:109AA000074F1F4B0200B012F48D0C4A0D4B0E48AD
:109AB0000F49B012E0970B4F3F9003000D241C4359
:109AC0000D4F0E480F49B01218940B9305200793C1
:109AD00003248293C02FDF23471730411B150B4F00
:109AE0000A4E0C430D43B012E0970D4F3F90030018
:109AF00005241C430E4A0F4BB01218941A1730411C
:109B00000F4330418F1230419243C22F92126EBEEA
:109B100030411F43304192123CBE30414F433041EF
:109B20001B153A420B43F2D02000050203430343C6
:109B300003430343034303430343F2F0DFFF050200
:109B40003F400900B012AE785F4201023FF02000B2
:109B500002243BD080003F404700B012AE783A5319
:109B600003200F4B1A1730415B03DD3F2B15F2F03A
:109B7000DFFF0502F2F0DFFF0302F2D02000050252
:109B80003F407D02B012AE78F2F0DFFF05023F40A9
:109B90005B00B012AE785B4201023F402002B0127F
:109BA000AE783BB020005920B012C662094F3A424D
:109BB0003B4033000F4B1FF3F2D0200005020D2471
:109BC0000343034303430343034303430343F2F0C9
:109BD000DFFF05023F405300093C3F404D00B012FB
:109BE000AE78F2F0DFFF05023F400B00B012AE7816
:109BF0003A5302245B03DE3FB012209B0A4F3B40E6
:109C00000700B012209BCB4FD02F3B531B93F9235F
:109C1000B012209B0B4F02D91A931F203D421E43C6
:109C20000F4E1FF35E030F9302243EE08C003D5362
:109C3000F7233D4007005F4DD02F0EEF3C420F4E03
:109C40001FF35E030F9302243EE08C003C53F72386
:109C50003D531D93F0230E9B08243D420E433F408D
:109C6000D02FB01298610F43013C1F432917304198
:109C700032C2034382430201B012006392420001E8
:109C8000242D8243000130419242242D000132D222
:109C9000B012DA6230410D4F3D5000E83D900102B4
:109CA000062CB24000A54601B24040A54401B24096
:109CB00000A5440192B34401FD23B24002A5400136
:109CC0008F430000B24000A54001B24010A54401FE
:109CD0003D900102062CB24040A54401B24080A54F
:109CE000460130410C4F3C5000E83C900102062CEC
:109CF000B24000A54601B24040A54401B24000A5D3
:109D0000440192B34401FD23B24040A540018F4E6F
:109D10000000B24000A54001B24010A544013C90B3
:109D20000102062CB24040A54401B24080A5460184
:109D300030415F15B012EE7A824F7C2FD2436E2FE6
:109D40005F421D023FF20A24B01258AD0F93032464
:109D5000B1C0F0000C00F2F0F7FF1D025F421D02DF
:109D60003FF040001D243F40D82FB01298830F933E
:109D70000E243D4010000E433F40D82FB0125A83AE
:109D80003F40A8BDB0123867B1C0F0000C005F4280
:109D90001D025E421D027EF040004FCEC24F1D02EA
:109DA0005F421D023FF0800021243F40E82FB012A7
:109DB00098830F9312243D4010000E433F40E82F3C
:109DC000B0125A833F40B8BDB0123867B1C0F0003E
:109DD0000C003F40BCBEB012CEBA5F421D025E42D4
:109DE0001D027EF080FF4FCEC24F1D02C2936E2F28
:109DF00014241A42422F1B42442FB012EE7A0C4F09
:109E00001C827C2F0D430E4C0F4D0E5A0F6B824E51
:109E1000422F824F442FC2436E2F5A170013D2D3C2
:109E2000E005F2D080FFE005F2406900E105C243A1
:109E3000E705E243E605F2D00E002A02F2D00C005C
:109E40002402F2F0FEFFFC05F2F0FDFFFC05F2F04B
:109E5000FEFFE00530412B150B4FB012FE7B3F405B
:109E60000700B012B07B2C4B1D4B02001C82282D2A
:109E70001D722A2D094C0A4D095E0A6F8B4900009C
:109E80008B4A0200824E282D824F2A2D3F40060029
:109E9000B012B07B1C4B04001D4B06001C822C2D05
:109EA0001D722E2D094C0A4D095E0A6F8B49040064
:109EB0008B4A0600824E2C2D824F2E2D29173041C1
:109EC0008F4304008F4306008F4300008F4302003E
:109ED00030413F40F02FB012C09E30413E40A82F8D
:109EE000AE5F00009E5F0400020030410D4F3C4019
:109EF000A82F3E4C0F438D5E00008D6F02002E4C4C
:109F00000F438D5E04008D6F060030410B120B4F26
:109F10001D4F02000E431F4F0400B0129861021241
:109F200032C20343924B0200C204A24BC8041D423A
:109F3000CA0432410E431F4B0600B01298613B41E8
:109F400030411C4F02000E43163C1D4F04000D5EB5
:109F5000CD9300000F20DD430000021232C2034304
:109F6000824EC204A24FC8041E42CA0432411E5F80
:109F70000600043C1E530E9CE8230E430F4E304156
:109F80000B121C4F06001B4F02000D43113C0C9E90
:109F90000D201E4F04000E5D6C4E5C9303387C5305
:109FA000CE4C00001D5F04006F4D053C2C5F1D531F
:109FB0000D9BED237F433B4130411C4F06000E9C1F
:109FC0001128021232C20343A24FC204924F020070
:109FD000C8041D42CA0432410D5C1F430E9D032874
:109FE0000F4330410F4330410B120D4F1B4F020006
:109FF0000F430E43083C1C4D04000C5ECC93000044
:10A0000001201F531E530E9BF6233B4130410E434C
:10A01000043C5D4F01000E5D2F53CF930000F923E8
:10A020000F4E30416C4F8C105F4F01000CDF7EF003
:10A030000F004E9303240C5C7E53FB3F0F4C8F109C
:10A040005E4DD6BE0FFE3E424E8D7EF00F004E930B
:10A05000042412C30F107E53FA3F4F4F30415B155B
:10A060000B4F094E074D0A4C3C9204340D4C0E47E1
:10A070000F49363C084C58090D9302240643023C14
:10A080000F43193C3D420E470F490F56B01224A012
:10A090000E4B0E56CE4F000016530698F33B0F485A
:10A0A000089301340F430D4A3DF007001D240B5F58
:10A0B0000E470F59153C0D490D5F0E4B0E5FEE4DCF
:10A0C00000001F530F98F73B0C48089301340C43D2
:10A0D0000D4A3DF0070008240B5C0E430F490F5C4E
:10A0E000B01224A0CB4F0000561730414B152182EF
:10A0F000B012408F0B4F2F43B012208F0F934C2480
:10A100005E4B01008E106F4B0F5EB0122C8C0B4F0C
:10A110000F934324B012408F074F5F4B06004E4F02
:10A120005E0B3FF007001D4301200D430F4E0F5DF6
:10A13000B012208F0F9330241A4B04000943283C9F
:10A14000584A01000E495E090D493DF007000E57BF
:10A150007C901A0011280C480F412F53B0125EA0BA
:10A160006D4A3D50E6FF5D020E412E530F4D3F50AC
:10A17000922FB01264900A3C814300000C480F41BA
:10A18000B0125EA06E4A5E02AE419A2F09582A5361
:10A190006C4A4C93D523013C0B430F4B215247177C
:10A1A00030410B123B4010000B8E4D4D4E4B4E8CF0
:10A1B0007EF00F004E9303240D5D7E53FB3F0E4D4A
:10A1C0008E10CFDE0000CFDD01003B4130415B153A
:10A1D000074F064E0B4D094C3C9202346D4D463CE8
:10A1E0000A4C5A090E9302240843023C0E431F3CBA
:10A1F0000F4B0F583C426D4F0E460F470F58B01291
:10A20000A2A11853089AF43B0A9301340A430C495B
:10A210003CF007002D240B5A0E460E8C6D4B7E52DF
:10A220007EF00F004E931E240D117E53FB3F0D4B0D
:10A230000D5E0F470F5EEF4D00001E530E9AF73B69
:10A240000A9301340A430C493CF0070011240B5ACD
:10A250006D4B3E424E8C7EF00F004E9303240D1149
:10A260007E53FB3F4D4D0E430F470F5AB012A2A134
:10A27000561730413B1521830B4F5E4F06004F4E62
:10A280005F0B3EF007001A4301200A430A5F0F4AA2
:10A290002F53B0127A8F0F933924B0124E8FDF4BA9
:10A2A000020000001E4B02008E10CF4E0100B012C3
:10A2B0004E8F084F28530D4A0E430F48B012986135
:10A2C0001A4B04000B431D3C594A01000F4B5F0918
:10A2D0004D4E7E901A0007283D50E6FF5D020C4966
:10A2E0003D50922F063C5D02914D9A2F00000C4983
:10A2F0000D410E4B3EF007000F58B012CEA10B5986
:10A300002A536E4A4E93E0231F43013C0F432153CF
:10A31000381730411B150B430A4B5A060E4A3E5064
:10A32000302D3F40922FB0126C900F9307245E4A5D
:10A33000322D1F431E92AE2F0520053C1B533B9030
:10A340001000EA230F431A1730411B150A430E4A27
:10A350005E063E50302D3F40922FB0126C900B4A5B
:10A360001B530F9311200A4B3B901000F0230C3C21
:10A370000E4B3E535E060F4B5F062D423E50302D76
:10A380003F50302DB01286613B53F223D242AE2FA4
:10A39000322D3E40922F3F40302DB01264901A175C
:10A3A00030410B123150CCFFB012588F0B4FB0120E
:10A3B000408F0D410E4BB01224A70B4F0F933A2440
:10A3C000B012208F0F933624D2411000C22FC24307
:10A3D000C32F5F4115004F931B241E411A003E906E
:10A3E000CDAB02243E9326206F9308243F423F5377
:10A3F0000E410E5FFE9300000324053C2F43F73F00
:10A400001F93F537053C0E413F40942FB0126490E6
:10A410000E413E523F40922FB0126490D241120042
:10A42000C02FC243C12F5F411800824FAE2F824F11
:10A43000B62F013C3B430F4B315034003B41304180
:10A440001B153150CCFF0A4F3D4034000E430F41E5
:10A45000B0129861C293702D0620D243702DB012B5
:10A46000E485C24F712DD142C22F1000D142C02FBE
:10A470001200B01256900F930324C1431300033C03
:10A48000D142B02F1300C1431400D14316000A93E8
:10A4900018241E42AE2F0E930324C14E1800113C07
:10A4A000C293712D0220D243712D5F42712DC14F95
:10A4B00018004E4F5E53C24E712DC24FAE2FC24395
:10A4C000AF2FE1431700B140CDAB1A00B012569048
:10A4D0000F930724E1431500F1430000F14301000D
:10A4E000073C3E40942F0F41B0126490E1431500A9
:10A4F000B140CDAB1C003E40CE2F0F413F52B012B9
:10A500006490B012408F814F3000B012588F814F4D
:10A5100032000F41B012E4A50B4F0A930C24B01285
:10A520007A8F0F930724B0124E8F0E4F0F41B01247
:10A5300012A6013C3B430F4B315034001A173041F7
:10A540001F43B01240A430410F43B01240A4304129
:10A550001B150B4F0A4E3D4006000E430F4AB0122A
:10A5600098615F4B15003FF003000224EA430000AE
:10A570005F4B17003FF003000224EA4302005F4BE9
:10A5800015003FF003000E245F4B17003FF003005F
:10A5900009249B9B1A001C000520DB431400CA43BE
:10A5A0000200023CCB4314005F4B15007FF0030018
:10A5B0006F836F93042C4F4F5F4FE8BE013C4F43B6
:10A5C000CA4F01005F4B17007FF003006F836F934A
:10A5D000042C4F4F5F4FE8BE013C4F43CA4F03006E
:10A5E0001A1730413150FAFF0E41B01250A56F4199
:10A5F0003F5003005E4101000F5E5E4102000F5EAE
:10A600005E4103000F5E5E4104000F5E31500600A4
:10A6100030414B153150FAFF0B4F0A4E0E41B0122C
:10A6200050A55E4B11001EF35E0A5F4B12001FF334
:10A630005F0E4EDF5F4B10007FF007004EDF5F4B79
:10A6400013001FF35F0E5F024EDF5F4B14001FF31A
:10A650005F0E5F064EDFCA4E00005E4B15003EF0F7
:10A6600003005E065F4B16003FF003005F0E4EDFF7
:10A670005F4B17005F0E5F064EDFCA4E0100DA4BDC
:10A6800018000200E19300000B20DA4B1A000300CF
:10A690001F4B1A008F10CA4F040079400500023C7E
:10A6A00079400300584101004F430C434D480D5B76
:10A6B000073C074D075C4E4E0E5AEE4700005F53B5
:10A6C0004E494E8C3C534F98F4234F59E19302006E
:10A6D0000F204E4F0E5ADE4B1C0000004E4F5E53B3
:10A6E0004E4E0E5A1D4B1C008D10CE4D00006F5368
:10A6F000584103004D4309434C480C5B083C0B4C4C
:10A700000B594E4E0E5ADE4B080000005D534E4F63
:10A710004E8939534D98F3234F5D4F4F315006000A
:10A72000471730415B153182094F084E0B4D3E9063
:10A730000300C1386F4F4E4F7EF00700C14E00003E
:10A740004E4F5E0B5EF3C14E01005F0F4E4F5EF346
:10A75000C14E02000E4F5E035EF3C14E03005F0761
:10A760005FF3C14F04005F4901004E4F5E077EF06A
:10A770000300C14E05005F0F4E4F7EF00300C14E37
:10A7800006005F07C14F07003D420E410F4B3F508F
:10A790001000B0128661DB49020018005E4105001E
:10A7A0004E932D245D4903005F4904008F100D5F17
:10A7B0008B4D1A006E930F203E4062BE0F4BB012BD
:10A7C0006490DB4906000000DB49050001000A49EE
:10A7D0003A5007001E3C0A493A5005007E9003009B
:10A7E00018200F430E4B0E5FDE4A070000001F5378
:10A7F0003A533F92F7230A493A500D000A3C0A495E
:10A800003A5003003E4062BE0F4BB01264908B433F
:10A810001A005E4107004E932E24C19304000920C4
:10A820006D4A5F4A01008F100D5F8B4D1C002A534B
:10A83000033C9B4B1A001C006E930D203E4062BEF1
:10A840000F4B3F52B0126490DB4A01000800EB4A04
:10A8500009002A53183C7E90030015200D4B3F4001
:10A8600007000E4A0E5FED4E08003F531D533F9305
:10A87000F8233A52083C3E4062BE0F4B3F52B012A2
:10A8800064908B431C00064A0D4A8D108D118D106B
:10A890008D11074D0C4989108911891089110D49B5
:10A8A000068C077D0F460E480E868B4E32008B4A73
:10A8B0003000089601340F433152561730410B12C5
:10A8C0000B4F1D4F1A000D930F201F4F1800B01291
:10A8D000F48D1F4B1800B012CA8D1E4B16001F4B73
:10A8E000140092129CBE063C1E4F16001F4F14000F
:10A8F00092129EBE0E4B3F40821CB012809F3B4185
:10A9000030413B15084F094E0A4D0E4F3F407A1C0F
:10A91000B012E2B00B4F0F9327240A9305208F4902
:10A920000000CF4302002D3C2A932B205F4F0200F2
:10A930005F53CB4F02005F9307203D40000F0E4353
:10A940000F4B2F52B0125A83FB9010000200062CBE
:10A950000F4B2F52B01298830F9313240E4B3F408E
:10A960007A1CB01226B10D3C0A930B200E483F40D2
:10A970007A1CB012B6AF0F9304248F490000CF4366
:10A980000200381730417B150A4E064D054C144124
:10A9900014000E4F3F407A1CB012E2B0094F0F93E3
:10A9A0005C24B012EE7A074F28490F4A3F530FBA82
:10A9B0000320088708FF073C0E4A0F470F88B01294
:10A9C000D6B1084A088F0896012C085A0A480A8608
:10A9D0000B437F4007000A5A0B6B7F53FC238A10FE
:10A9E0008B104AEB0AEB4B4B7F40070012C30B1056
:10A9F0000A107F53FB230B9302202A9321283F4008
:10AA0000821CB012429F094F0F931A240493062010
:10AA10009243B22FB012488D894F18008945140017
:10AA200099411200160089441A0009123C40BEA840
:10AA30000D4A0E4B0F49B012387D21532F43103C65
:10AA40000A470A860A580F4A0F870F930838B01230
:10AA5000EE7A0F8A0F93FB3B023C0F43013C1F43EE
:10AA6000741730413F40821CB0120C9F0E433F4090
:10AA70007A1CB012EAAE30410B129212E2BE0B4FBA
:10AA80000F930738B012708E9212B6BE0F9301204A
:10AA90003B430F4B3B4130419212F0BD30410F43DD
:10AAA00030413F40EABEB012CEBA9212EEBD304104
:10AAB0002B150A4F094E9212EEBD3E40CE2F3F405D
:10AAC000922FB01264909212E2BE0F9307343F406F
:10AAD0000ABFB012CEBA3D400500593CB0126E8F8D
:10AAE0000B4FB0124E8F0E4B9212E0BDB01256902B
:10AAF0000B4F9212EABD0F9306200B93092092127E
:10AB0000ECBD0F930524B01298AA3F4031BF343CEE
:10AB1000B0126E8F9212E2BD0F9303242F93302058
:10AB2000273C0B931D24B01298AA3F40C82EB012A8
:10AB3000E27F0F12301256BFB01298B221523F403E
:10AB4000C82EB012B67F3F40C82EB012E27F0F125F
:10AB500030126EBFB01298B221520D431B43183C05
:10AB6000B01298AA3F4086BFB012CEBA2D430F3C18
:10AB7000B01298AA3F409CBFB012CEBA1D43073C0A
:10AB8000B01298AA3F40C4BFB012CEBA2D420B43B8
:10AB90001C430E490F4AB01218940F4B291730412D
:10ABA0003B15094F0A4E0B4D3F40D8BFB012CEBAED
:10ABB0000C3C284B1F4B0200B012F48D0E4A0F497B
:10ABC000B012B0AA0F9303240B480B93F22338174B
:10ABD0003041B012B0AA304103123012800030125E
:10ABE000F4BFB01298B2315006000E433F408A1CA9
:10ABF000B012B2829212EEBD30410B120B4F2F4FAA
:10AC00003F90A7012B243F90A801032C0F93082409
:10AC1000553C3F90AD012E243F90B3014F20413C65
:10AC20003F400EC0B012CEBA1E433F408100921288
:10AC3000D2BD3F4034C0B012CEBA3D401A000E43E0
:10AC40003F40BC2EB012747F1D430E433F40C82EC0
:10AC5000B012747FBB40A7010000353C3F40BC2EC2
:10AC6000B012E27F0F932F24B01298AABB40AD011F
:10AC70000000293C7E9082FF26203F40C82EB01263
:10AC8000E27F1F9320203F4050C0B012CEBA9212F4
:10AC9000EEBD3F40BC2EB012B67FBB40B3010000FA
:10ACA000123C3F40BC2EB012E27F0F930C24B01236
:10ACB00098AA3F407CC0B012CEBAD83F8B43000068
:10ACC0007F400300013C5F433B4130410F9303242D
:10ACD0009212EEBD30413F40ABC0B012CEBA9212DC
:10ACE000F0BD30413F40CDC0B012CEBAB012588F47
:10ACF0003F90030003203F4007C12B3C9212E6BE69
:10AD00000F930634B012588F0F1230121BC1173C2C
:10AD10003E40CE2F3F40942FB0126C900F930720EF
:10AD2000B01256900F9303203F4037C1123CB0122F
:10AD300014A30F9308241212AE2F30124AC1B0127E
:10AD400098B221523041B0124AA3921270BE3F40D5
:10AD500077C1B012CEBA30413F408A1CB012E482B3
:10AD60003F409EC1B012CEBA1F4330411B150F9316
:10AD700018240A4F8F108F118F108F110B4F1C4208
:10AD80009A1C0F4C8F108F118F108F110D4F0E4A80
:10AD90000F4B0E8C0F7D0F110E100F110E100F4E5A
:10ADA000013C3F431A1730410B120B4F0F4EB012AC
:10ADB0006CAD0B9310243F930E24021232C2034356
:10ADC000824FC204924B0200C8041F42CA0432419F
:10ADD0001F5B0600013C0F433B4130416B15054FA3
:10ADE000074E064C0E9332240D933024084D8D10DF
:10ADF0008D118D108D11094D1A4E06000D4A8D10C2
:10AE00008D118D108D110B4D088A097B1E4E02008D
:10AE10000F48B012DEB10D4F3F9318240D552E4749
:10AE20001F437EF00F00069308244E9303240F5F08
:10AE30007E53FB3FCDDF0000073C4E9303240F5FA2
:10AE40007E53FB3FCDCF00001F43013C0F436517EE
:10AE500030411B150A4F0F9302203A4062BE3F401B
:10AE6000EE2EB012EE840E3C0E4B2E530F4AB01253
:10AE70006C900F9304240F4BB0126CAD073C0F4B3A
:10AE8000B012D2850B4F0F93EF233F431A17304177
:10AE90002B15094F0F9326240E9324240A4E8E104F
:10AEA0008E118E108E110B4E1C4F06000E4C8E1004
:10AEB0008E118E108E110D4E0A8C0B7D1E4F0200CE
:10AEC0000F4AB012DEB13F930D245E4FE62E6F495C
:10AED0007FF00F004F9303240E117F53FB3F0F4E63
:10AEE0001FF3013C0F43291730411D42D42E3D92E0
:10AEF0000D2C8F4D00000C4D1C53824CD42E8F4EC8
:10AF000004005D028D4FD62E1F4330410F43304168
:10AF10005B15084F094E0893212409931F24064905
:10AF20000E498E108E118E108E11074E1A48060093
:10AF30000E4A8E108E118E108E110B4E0C460D4740
:10AF40000C8A0D7B1E4802000F4CB012DEB13F93FD
:10AF500005240E4F5E061E529A1C013C0E430F4EF6
:10AF6000B012D2850E4F0F48B012A8AD094F0F9303
:10AF700006240E4F0F48B01290AE0F93CC270F4906
:10AF8000561730411B150A4F3F40EE2EB012EE848B
:10AF90000E4F0F4AB012A8AD0B4F0E4F0F4AB01212
:10AFA00090AE0F9305200E4B0F4AB01210AF0B4F0F
:10AFB0000F4B1A1730416B15094F074E0E930220A5
:10AFC000374062BE0F47B01252AE0B4F3F93622024
:10AFD0003F40941CB012429F0A4F0F934D203F40B8
:10AFE000EE2EB012EE840B4F08431C3C0F4BB012F8
:10AFF0006CADCF93F02E12205D4FE62E0C43043C37
:10B000001DB301241C535D010D93FA230A930224FE
:10B010000C9804340C9363240A4B084C0F4BB01269
:10B02000D2850B4F0B93E2230A9355240B4A573CCE
:10B03000184AD62E089311241648040006930D24AE
:10B040000E4B0F48B012A8AD054F0E4F0F48B0126F
:10B0500090AE1F9302200F4586122A533A9010009B
:10B06000E7230F4BB0126CADCF43E62E0E4B3F40A3
:10B07000EE2EB0123C850A4B0E4A3F40EE2EB01227
:10B0800086850F4AB0126CAD0B4F0E470F4A2F53F7
:10B09000B0126490099310243B930E24021232C222
:10B0A0000343824BC20492490200C8041B42CA04F3
:10B0B00032411B590600013C0B431D4902000E435F
:10B0C0000F4BB01298611C430D4B0E493F40E62ECA
:10B0D000B012DCAD013C0B430F4B651730410A4306
:10B0E000A73F1B150A4F0F4EB01252AE0A93102401
:10B0F0003F930E24021232C20343824FC204924A8B
:10B100000200C8041B42CA0432411B5A0600013C1B
:10B110000B430E4B0F4AB01290AE0F9301200B431E
:10B120000F4B1A1730412B150B4F0A4E0C430D4E87
:10B130000E4F3F40E62EB012DCAD094F0C430D4AD6
:10B140000E4B3F40F02EB012DCAD0F4929173041B5
:10B150001C430D4E0E4F3F40F02EB012DCAD30417F
:10B160000C430D4E0E4F3F40F02EB012DCAD30417F
:10B170002B15094F0F931F240E931D240A4E8E107A
:10B180008E118E108E110B4E1C4F06000E4C8E1021
:10B190008E118E108E110D4E0A8C0B7D1E4F0200EB
:10B1A0000F4AB012DEB13F9306245F061F529A1C6D
:10B1B00002242F53013C0F43291730417C401000DB
:10B1C0000D4E0E430F5F0E6E0E9D02280E8D1FD387
:10B1D0001C83F8233041B012BCB10F4E30410D43F7
:10B1E0000F9304343D4003003FE31F530E93033499
:10B1F0005DE33EE31E530D12B012BCB13D416DB391
:10B2000002243EE31E535DB302243FE31F5330414B
:10B21000B012DEB10F4E30412B15794020000A4CA0
:10B220000B4D0C430D430E5E0F6F0C6C0D6D0D9BA3
:10B23000062802200C9A03280C8A0D7B1ED3198342
:10B24000F22329173041B01218B20E4C0F4D304185
:10B250000B120D930E246C4F7B4E4C9B05244F4CD0
:10B260005E4EFFFF0F8E063C1F534C9302243D534E
:10B27000F03F0F433B4130410B120D930A247B4FAB
:10B280007C4E4B9C04244F4B4E4C0F8E033C3D5345
:10B29000F43F0F433B4130410D412D533E4D3F4064
:10B2A0003C77B01232B430410D4E0E4F3F403C77E8
:10B2B000B01232B430417B153182084F814E040008
:10B2C000094D1F411A001D411C004C4D044D8410B6
:10B2D00045444E4F7EB040001124F1403000000044
:10B2E0000E4F8E105EF303247E405800023C7E40D9
:10B2F0007800C14E01000C412C530F3C7EF0200021
:10B300000424F14030000000043C4C930524C14D5E
:10B3100000000C411C53013C0C410A4C8C108C1158
:10B320008C108C110B4C06410C418C108C118C1024
:10B330008C11074C0A860B770E4F8E10C14E0200FF
:10B340006EF202240745013C37434F4F7FB0100097
:10B350003C201D4104003D531D53CD930000FC23B0
:10B360001D810400099A0228098A013C0943E1B3BE
:10B3700002000524099502280985013C0943054D71
:10B38000079D012C05474F930D38F1402000060022
:10B3900006430B430E3C0F410F566F4F8F11165350
:10B3A0008812013C0643069AF63B0B4AF1403000F6
:10B3B0000600058B053C5F4106008F1188121B5368
:10B3C0000F450F5B0F99F72B0A3C06430B43073CD5
:10B3D0001B530F410F566F4F8F1116538812069A49
:10B3E000F73BE1B3020002244A44083C1A4104003E
:10B3F0000A8B0D3C3F40300088127A534A93FA235F
:10B4000044440B54F33F37538F1188121B530F4A98
:10B410000F5B6F4F4F9307240793F523043C3F4086
:10B42000200088121B530B99FA2B0F4B31527417C3
:10B4300030417B153150ACFF814F3A00814D1E00E9
:10B44000814E4000C1432F00C1432B00C1432E0059
:10B45000C1432A00814330008143200008438143D7
:10B460002C000F413F501C00814F1C000C4E14411A
:10B4700022001541240016412600174128003040C3
:10B48000B8BA0F4C1F53814F420008931F207E9083
:10B49000250014208143000081430200814C4000BC
:10B4A000C1432F00C1432B00C1432E00C1432A00DA
:10B4B000814330003040AEBA81481E008E110F4EDD
:10B4C00091123C0091532C00304092BA7E90630060
:10B4D000CB247E90640027347E9030009C247E90A4
:10B4E00031001A347E902A007B247E902B000A348F
:10B4F0007E90230042247E902500E0277E9020004D
:10B5000032205A3C7E902D004D247E902E005F24E8
:10B510007E902B0028204B3C7E903A0094387E9001
:10B5200058002120F83C7E906F0024247E9070000B
:10B530000A347E906900F2247E906C0022247E9072
:10B5400064001120EB3C7E907300A1247E90740077
:10B5500004347E9070000720C53C7E907500E02486
:10B560007E907800E1241A41400019412C00098A9C
:10B57000304080BAB1422200DA3CF1D200003040C3
:10B58000B2BA6C415CF3694108244E497EF0FEFF7B
:10B590006ED3C14E00003040B2BA59D3C149000049
:10B5A0003040B2BAF1D0100000003040B2BAF140E1
:10B5B0002B0002003040B2BAF1902B0002000220B2
:10B5C0003040B2BAF140200002003040B2BAC1931C
:10B5D0002A000224304096BAD1432E003040B2BA3D
:10B5E0001C411E002C531F411E002E4F0E9303388A
:10B5F000814E20000D3CC1932E0002243040A6BA9B
:10B60000F1D0100000003EE3814E20009153200055
:10B61000814C1E00253C819320001520C1932E00F3
:10B6200012206C417CF010005E4301244E434E4ECC
:10B630000E110E434E106C417CF07F004CDEC14C6D
:10B6400000003040B2BA1C4120005C021F412000C3
:10B650005F0A0F5C3F50D0FF8E110F5E814F2000BC
:10B66000D1432A003040B2BA18411E0028531F416E
:10B670001E006E4FC1932E000320C1932A001C2789
:10B68000C14E0400C14305000E412E52063C184134
:10B690001E0028531F411E002E4FC1932E00072469
:10B6A000E1D201001F412000C14F0300063CC193BD
:10B6B0002A0003249141200030000E9302203E40D6
:10B6C00016C211120400111204001D4134001F4162
:10B6D0003E00B012B6B22152815F2C0081481E009C
