:105C000055425C0135D0085A8245E02D3140005C98
:105C10003F407C000F9308249242E02D5C012F83CB
:105C20009F4FC6B2001CF8233F4064110F93072416
:105C30009242E02D5C011F83CF437C1CF92331820B
:105C4000B012D460B0127876B01202786F42B012FF
:105C500018783E4021000F43B01200625F43B0123B
:105C60001878B012D8985F42C22D7FF0FEFFC24F65
:105C7000C22D5E42C72D0E125E42C62D0E125E422E
:105C8000C52D0E125E42C42D0E125E42C32D0E12A1
:105C90004F4F0F125F42C12D0F125F42C02D0F12E6
:105CA0003012CAB0B012A6A631501200B012FC8059
:105CB0006F42B0121878B012BC62A243A21C5F42BD
:105CC000C02D2F53B012D083B012747F0E433F40CB
:105CD000321CB012A480B012C47AB0121E602D43E0
:105CE0000E430F41B0123C601F42A21C0F930720CD
:105CF000D142C72D0000D142C62D0100053CC14F45
:105D000000008F10C14F01000F41B012708E301291
:105D1000F9B0B012A6A65F410200814F0000301218
:105D200004B1B012A6A621525F4101000F12301239
:105D300008B1B012A6A62152B012CE6F5A42BE2DA3
:105D40008A105F42BF2D0A5F3D420E430F41B012E1
:105D50003C603E40BE2D0F41B012568E5F410700A1
:105D60000F125F4108000F125F4109000F125F41DF
:105D70000A000F125F410B000F125F410C000F125F
:105D80005F410D000F125F410E000F1230120CB177
:105D9000B012A6A6315012000D410E4A3F40CDABC5
:105DA000B012FA6D301239B1B012A6A621537F405D
:105DB0000700B01222781F42A21C0F9307240F1273
:105DC00030124FB1B012A6A62152043C3F405CB144
:105DD000B012DCAE921282B2921268B2921236B255
:105DE0001A428EB28A120F9309248A120C4F0D4365
:105DF0003E4080000F43B01226A6033C3E40800088
:105E00000F4330120B001F15121280B2121266B22D
:105E1000121298B230126DB1B012A6A631500E0017
:105E20003F407482B012E261B012BE82B012CA8AE0
:105E30005E42BE2D5E0E0F4E3F501000B012568ACD
:105E4000B0127A79B012E078824F682DD2435C2D7F
:105E50003012A4B1B012A6A621533A40B0B0083C0B
:105E60001F1202003012ADB1B012A6A621522A5361
:105E70002F4A0F93F5233F400A00B0122E753F4082
:105E8000B0B0B0125079B0127E61B012A461B012FD
:105E90009261B012907F0F930124F937B0126A61BA
:105EA0000A4FB01234800F930420B012D4614F9384
:105EB000022402DAEC3FC2935C2D14241A422A2DEC
:105EC0001B422C2DB012E078084F1882682D094330
:105ED0000E480F490E5A0F6B824E2A2D824F2C2DE1
:105EE000C2435C2DB012E078824F6A2DD2435D2D03
:105EF0001D42941C1E42961C2F43B012E479B0122E
:105F0000A46132D0D80032C203432F43B012A27929
:105F1000824E941C824F961C32D2B0127E61C29384
:105F20005D2D14241A422E2D1B42302DB012E07824
:105F3000064F16826A2D07430E460F470E5A0F6B07
:105F4000824E2E2D824F302DC2435D2DB012E0784F
:105F5000824F682DD2435C2D9A3F32D0F000FD3F36
:105F6000304064B00B120B4F7E9083FF04203F4003
:105F70007C1CB01212892F4B0F9304243F905A00BF
:105F800032201C3C3D40C6B03E4081003F407C1C5E
:105F9000B012F088B012D6830C4F0D433CF0FF01D5
:105FA0000DF30E4D0D4C3D5000020E633F40881C1A
:105FB000B012667DBB405A0000001A3C3F40881C6E
:105FC000B012D47D0F9314243E4006003F4066B0CB
:105FD000B012DC8D3F407C1CB01218893F406CB081
:105FE000B012DCAED73F8B4300007F400300013C82
:105FF0005F433B4130410B120B4EB012328D0F12FA
:106000005F4B01000F126F4B0F12301283B0B012B2
:10601000A6A631523B413041B012DCAE30410E43B6
:106020003F40141CB012A48030410C4F043CFC4E85
:1060300000001C533D530D93FA2330410C4F043C98
:10604000CC4E00001C533D530D93FA233041304198
:106050001E42981C1F429A1C3041824E981C824F4F
:106060009A1C32C2034332D0400082436001B240E6
:10607000500062018E108F104EEF0EEF4F4F7D409B
:10608000070012C30F100E107D53FB233E50FF0F6D
:10609000824E640132C04000B2F0F0FF6E01B2F0F7
:1060A000FDFF02013F40040D1F83FE230343034312
:1060B000A2B30201F1239242660166019242680195
:1060C000680132D230413E4060823F403B00B01216
:1060D0005A60304132C20343B012BA61C2430A026D
:1060E000C2430B02C2432A02C2432B02C2434A02EA
:1060F000C2434B02C2430402C2430202F2404000C8
:106100000502C2430302F24040000B02C2432402D4
:10611000C2432202C2432502C2432302C2434402B5
:10612000C2434202C2434502C2434302C243640225
:10613000C2436202F2D003006A02C2436502C24354
:106140006302C2431A02C2431B028243981CB2403C
:1061500010009A1CB012C66032D21F42101C1FB32E
:1061600003241F53824F101C30410F4232C23FF2B2
:10617000304102DF3041304182435C0100131F4255
:106180009C1C3F53824F9C1C0320B2403C5A5C0134
:1061900030411F425C013FF0FF003FD0185A824F50
:1061A0005C0130411F429C1C1F53824F9C1C1F935B
:1061B0000320B240805A5C01304182439C1CB012E3
:1061C000A461B2F0FEFF020192D30001304182438C
:1061D0005C0130415F428A065E429E1C5FF34FDEE7
:1061E0003041824FA01C30410B124B4FB0129261D4
:1061F0005F428A061FF3FC23C24B8E063B413041AF
:10620000D2D38006F2D080FF8006C24E86068E1062
:106210008F104EEF0EEFC24E8706F2400600880642
:10622000F2F0DFFF8502F2D010008502F2D03000DC
:106230008B02C2439E1CF2F0FEFF9C06F2F0FDFFB3
:106240009C06F2F0FEFF8006D2D39C0630415F151B
:10625000B012E078824F6C2DD2435E2D1F429E0615
:106260002F9313205F428A062FF203245F428C068D
:106270000C3C5F428C061E42A01C0E9306248E121C
:106280000F930324B1C0F0000C00C2935E2D1424C0
:106290001A42322D1B42342DB012E0780C4F1C8272
:1062A0006C2D0D430E4C0F4D0E5A0F6B824E322D3E
:1062B000824F342DC2435E2D5A17001321822D4286
:1062C0003E4080190F41B0122A60D192121C00008A
:1062D0000420D192131C01000524E1430200F14087
:1062E000030003005F4102008F105E4103000FDED8
:1062F000824FA21C215230410B120B4FB012DC997D
:106300003F408019B012029A3E40CDAB3F40801909
:10631000B012509A0E4B3F408419B012509AB012EE
:10632000F4993B4130413F507FFF2F93052C5F4252
:106330001B023FF0400030410F4330413F9081004D
:1063400022200E931824B01226630F931E200D43B3
:106350000E433F40C82DB0124C81F2D040001902CC
:10636000F2F0BFFF0B02F2F0BFFF05025F421B021B
:106370007FD04000043C5F421B027FF0BFFFC24F52
:106380001B021F4330410F4330411F4330415F42E6
:1063900001023FF0400009203F40C82DB0128A8121
:1063A0001E430F9303240E43013C1E430F4E304106
:1063B0003F507FFF2F93052C5F421B023FF0800070
:1063C00030410F4330413F90810022200E9318242A
:1063D000B012B0630F931E200D430E433F40D02DEB
:1063E000B0124C81F2D080FF1902F2F07F000B0254
:1063F000F2F07F0005025F421B027FD080FF043C69
:106400005F421B027FF07F00C24F1B021F433041DF
:106410000F4330411F4330415F4201023FF0800093
:1064200009203F40D02DB0128A811E430F930324D0
:106430000E43013C1E430F4E30410B120B4F2F4FAA
:106440003F90770023243F907E0036240F934C200A
:10645000B0125C7FC24F152D8243A61C093CCF436E
:10646000122D0E433F4080009D1204009253A61C43
:106470001F42A61C0E4F5E021D4E0A1C0D93EF23F9
:10648000C24FA41CBB4077000000333C8243A81CD1
:106490008243A61C1F3CCF93122D1A345F021D4F5E
:1064A0000A1C5E42152D0F43B01242800F93072045
:1064B000BB407E0000001D3C5E92152D1A201F423D
:1064C000A61C3F50122DFFF07F0000009253A81C25
:1064D0009253A61C1F42A61C5E42A41C0F9EDB3BCF
:1064E0008293A81CD323CE3F8B4300007F40030040
:1064F000013C5F433B4130411F420A1C30410B12BB
:106500005B42A41C3E400A1C0D43053C2E538E9F4B
:10651000FEFF05240D4C0C4D1C530D9BF73B0F4CFF
:106520005F021F4F0A1C3B4130415C42A41C3D40AE
:106530000A1C0E43053C2D538D9FFEFF03241E5362
:106540000E9CF93BFED080FF122D3F40141CB01270
:10655000D68030414B15094F0D4F3D531D53CD9300
:106560000000FC23074D078938400A1C0A43093CF8
:106570003B480D472E4B0F49B0125EA60F930624E1
:106580001A535F42A41C0A9FF33B0B430F4B471760
:1065900030410E931F241F93102407283F900A00B8
:1065A00010243F900B001820103C1F43C293AC1CDA
:1065B00001200F438E4F00000B3C9E42B01C000098
:1065C000073CBE400B000000033CBE401A00000028
:1065D0000F4330412F4330411F4330411F4330416F
:1065E0001F4330415F4201021FF330415E4200020F
:1065F0003EF040001F4301200F4330410B12F2F0E8
:10660000FEFFE0053F400500B012A076F2F0EFFF7C
:1066100022023F400500B012A0765F42FD052FF335
:10662000FC27C243EE055F42EA051FF3FC235B42F1
:10663000EC053F400500B012A076D2D3E0051F4321
:10664000B012A076F2D0100022023F400500B01236
:10665000A0764F4B3B4130410B124B4FF2F0FEFF07
:10666000E0053F400500B012A076F2F0EFFF2202F5
:106670003F400500B012A0765F42FD052FF3FC27D6
:10668000C24BEE055F42EA051FF3FC233F400500C5
:10669000B012A076D2D3E0051F43B012A076F2D09C
:1066A000100022023F400500B012A0763B4130416D
:1066B0000B12F2D040001A027F404200B01258661E
:1066C000B012E0783B40B9FE0B8FB012FC653FF092
:1066D00080000520B012E0780F5B0F93F63BB012FC
:1066E000E078824F762DD243632DD243AC1C3B41E0
:1066F0003041F2F0FEFFE0053F400500B012A07609
:10670000F2F0EFFF22023F400500B012A0765F4298
:10671000FD052FF3FC27F2403000EE055F42EA054D
:106720001FF3FC235F42EC05C243EE055F42FD050B
:106730001FF3FC275F42EC051F43B012A0763F40D9
:106740000500B012A076D2D3E0051F43B012A076A8
:10675000F2D0100022023F400500B012A076F2F005
:10676000FEFFE0053F400500B012A076F2F0EFFF1B
:1067700022023F400500B012A0765F42FD052FF3D4
:10678000FC27F2404700EE055F42EA051FF3FC23B9
:106790003F400500B012A076D2D3E0051F43B012EF
:1067A000A076F2D0100022023F400500B012A07681
:1067B000F2F0FEFFE0053F400500B012A076F2F0D7
:1067C000EFFF22023F400500B012A0765F42FD05B8
:1067D0002FF3FC27F2404700EE055F42EA051FF366
:1067E000FC233F400500B012A076D2D3E0051F4342
:1067F000B012A076F2D0100022023F400500B01285
:10680000A07630411B15C243AC1CB012E0783A4070
:1068100034F30A8FB012FC652FF30524B012E07830
:106820000F5A0F93F73BC293632D14241A42462D3F
:106830001B42482DB012E0780C4F1C82762D0D4380
:106840000E4C0F4D0E5A0F6B824E462D824F482D27
:10685000C243632D7F404500B0125866F2F0BFFF7F
:106860001A025F4200023FF040000220B012F266BE
:106870001A173041D293AD1C0E20C293AF1C0424D2
:10688000B012B066C243AF1CC293AE1C0424B01257
:106890000468C243AE1CF253AD1C30411B150B4FB4
:1068A0000A4EF2F0FEFFE0053F400500B012A07670
:1068B000F2F0EFFF22023F400500B012A0765F42E7
:1068C000FD052FF3FC27F2403000EE055F42EA059C
:1068D0001FF3FC235F42EC054C430D3CC243EE0525
:1068E0005F42FD051FF3FC275F42EC054D4C0D5B3D
:1068F000CD4F00005C534D4C0D9AF03B1F43B0123E
:10690000A0763F400500B012A076D2D3E0051F4329
:10691000B012A076F2D0100022023F400500B01263
:10692000A0761A1730411B150B4F4A4EF2F0FEFFAE
:10693000E0053F400500B012A076F2F0EFFF220222
:106940003F400500B012A0765F42FD052FF3FC2703
:106950000F4B8F107FD02000C24FEE055F42FD0528
:106960002FF3FC27C24BEE055F42FD052FF3FC27FA
:10697000C24AEE055F42EA051FF3FC233F400500D3
:10698000B012A076D2D3E0051F43B012A076F2D0A9
:10699000100022023F400500B012A0761A173041C5
:1069A0002B150A4F0B4ED253AD1C7F404800B0123E
:1069B0005866494B6953F2F0FEFFE0053F40050081
:1069C000B012A076F2F0EFFF22023F400500B012B5
:1069D000A0765F42FD052FF3FC27F2403A00EE055A
:1069E0005F42FD052FF3FC27C249EE055F42FD051E
:1069F0002FF3FC275F42EA051FF3FC233F4005000D
:106A0000B012A076D2D3E0051F43B012A076F2D028
:106A1000100022023F400500B012A076F2F0FEFF07
:106A2000E0053F400500B012A076F2F0EFFF220231
:106A30003F400500B012A0765F42FD052FF3FC2712
:106A4000F2403A00EE054D430C3C5F42FD052FF34A
:106A5000FC270C5AE24CEE055F42FD052FF3FC27A4
:106A60005D534C4D0C9BF12B5F42EA051FF3FC2359
:106A70003F400500B012A076D2D3E0051F43B0120C
:106A8000A076F2D0100022023F400500B012A0769E
:106A9000B01274680F43291730410B120B4FF2F0FC
:106AA000FEFFE0053F400500B012A076F2F0EFFFD8
:106AB00022023F400500B012A0765F42FD052FF391
:106AC000FC270F4B8F107FD01000C24FEE055F42A6
:106AD000EA051FF3FC235F42FD052FF3FC27C24BA1
:106AE000EE055F42EA051FF3FC23C243EE055F4259
:106AF000FD051FF3FC275B42EC053F400500B0128B
:106B0000A076D2D3E0051F43B012A076F2D01000D9
:106B100022023F400500B012A0764F4B3B4130416E
:106B2000C293AC1C0C20C293AD1C0324D243AF1CF7
:106B3000063CD243AD1CB012B066B01274681F435D
:106B40003041C293AC1C1324C293AD1C0324D24326
:106B5000AE1C0D3CD243AD1CB012FC652FF30324D8
:106B6000D243AE1C023CB0120468B01274681F43DA
:106B700030411B15C293AD1C3120D243AD1CC293D2
:106B8000AC1C0420B012206B1A43013C0A43C29390
:106B9000AC1C0720B01274680A932024B012426B18
:106BA0001D3CB012E0783B40B9FE0B8FB012FC6583
:106BB0003FF040000520B012E0780F5B0F93F63BEA
:106BC0005F4200028F110F5F0F430F6F0B4F0A934D
:106BD0000224B012426BB0127468013C1B430F4B8D
:106BE0001A1730412B1521830A4F094E5F420002CC
:106BF0003FF040007B24D253AD1C9253202DF2F085
:106C0000FEFFE0053F400500B012A076F2F0EFFF76
:106C100022023F400500B012A0765F42FD052FF32F
:106C2000FC27F2403000EE055F42EA051FF3FC232B
:106C30005F42EC05C243EE055F42FD051FF3FC27F2
:106C40005B42EC051F43B012A0763F400500B01236
:106C5000A076D2D3E0051F43B012A076F2D0100088
:106C600022023F400500B012A0764B9307387B907C
:106C7000030004284E4B2E83099E052CB012F266A9
:106C8000B0127468333C0F4AB0129C682E430F4117
:106C9000B0129C685E4101004E9311346D41C24DAB
:106CA000222D7EF07F00C24E282D3F40922DC24DF6
:106CB000922DAF11C24E902DCF43FFFF013C6B438D
:106CC0005F4200023FF040000C245F4200023FF0B0
:106CD00020000320B012F266043C3F401E1CB0129C
:106CE000D680B01274684F4B2F83013C0F43215361
:106CF000291730410B120B4F2F4F0F9304243F9055
:106D0000A9021820043CBB40A9020000183C7E9058
:106D100082FF1520B012C28D9242AA1C942DB0128F
:106D2000328D3E408000B012E46BB0122C8D921276
:106D300088B2E93F8B4300007F400300013C5F4382
:106D40003B4130411F42B01C30411B15D253AD1C9A
:106D5000824FB01C0B4F5B060B5F3B50D4FFB01251
:106D6000E0783A4034F30A8FB012FC653FF08000BF
:106D70000520B012E0780F5A0F93F63BB012E0787E
:106D80003A4034F30A8FB012FC652FF30524B01299
:106D9000E0780F5A0F93F73B4E4B3F402E00B01256
:106DA0002669C293AC1C04247F404200B01258668E
:106DB000B01274681F431A1730410F9303241F93B6
:106DC00018200C3C1E930320B012206B103C0E9335
:106DD0000320B012426B0B3C2F4330410F4E3F500B
:106DE000F5FF3F901000072C0F4EB0124A6D0F4375
:106DF00030411F4330412F4330413B153150F6FFA6
:106E0000094F0A4E084DD253AD1CB012E0783B40FA
:106E100034F30B8FB012FC653FF080000520B012F8
:106E2000E0780F5B0F93F63BC14900008910C14920
:106E30000100F2F0FEFFE0053F400500B012A07631
:106E4000F2F0EFFF22023F400500B012A0765F4251
:106E5000FD052FF3FC27F2402300EE055F42FD0500
:106E60002FF3FC27F240F2FFEE050F435E42FD05D3
:106E70002EF3FC270E410E5FE24EEE051F532F93BB
:106E8000F5235F42EA051FF3FC233F400500B012E3
:106E9000A076D2D3E0051F43B012A076F2D0100046
:106EA00022023F400500B012A076C14A00008A10BD
:106EB000C14A0100F2F0FEFFE0053F400500B012BC
:106EC000A076F2F0EFFF22023F400500B012A0765C
:106ED0005F42FD052FF3FC27F2402300EE055F42E1
:106EE000FD052FF3FC27F240F4FFEE050F435E4251
:106EF000FD052EF3FC270E410E5FE24EEE051F53FB
:106F00002F93F5235F42EA051FF3FC233F40050062
:106F1000B012A076D2D3E0051F43B012A076F2D013
:106F2000100022023F400500B012A07608934924C9
:106F30000E413E5009000F430D480D5FEE4D00001D
:106F40001F533E533F92F823F2F0FEFFE0053F400F
:106F50000500B012A076F2F0EFFF22023F400500DC
:106F6000B012A0765F42FD052FF3FC27F24023000C
:106F7000EE055F42FD052FF3FC27F240EAFFEE0528
:106F80000F435E42FD052EF3FC272E430E510E5F8C
:106F9000E24EEE051F533F92F4235F42EA051FF3D2
:106FA000FC233F400500B012A076D2D3E0051F437A
:106FB000B012A076F2D0100022023F400500B012BD
:106FC000A076B012746831500A00381730410B12A5
:106FD000B0126A610B4FB0125C74F2F0BFFF1A027C
:106FE000F2F0BFFF1802F2F0BFFF1C0202DBF2F06A
:106FF000F7FF83023F40FA00B012A076F2D283027C
:107000003F40FA00B012A076F2F0FBFF83023F404F
:107010007F00B012A076E2D283023F407D00B01222
:10702000A0767F404000B01258663F407D00B0120D
:10703000A076B012E0783B40B9FE0B8FB012FC6531
:107040003FF080000520B012E0780F5B0F93F63B15
:107050007E4094FF3F403100B01226697E4013000D
:107060003F403000B01226697E40F8FF3F403600B6
:10707000B01226697E4085FF3F404600B012266967
:107080007E4014003F404700B01226697E403F001A
:107090003F404A00B01226697E405A003F404C00F3
:1070A000B01226697E402B003F404F00B012266987
:1070B0007E4011003F405300B01226697E40EBFF36
:1070C0003F405400B01226694E433F404400B01286
:1070D00026697E4010003F405600B01226697E406F
:1070E0000E003F405700B01226697E4003003F402B
:1070F0005800B01226697E4060003F400C00B0127C
:1071000026697E400D000F43B01226695E433F4062
:107110000D00B01226697E407F003F403400B0125F
:1071200026690D430E433F43B012FA6D3F400B00FA
:10713000B0124A6DB012F2660E433F401E1CB012F0
:10714000A4801F433B413041F2F0BFFF1C023F408F
:107150001E1CB012D6809242182DAA1C92531E2DCE
:107160001F433041D253AD1C4E4F3F403000B01250
:107170002669B012746830410B12D253AD1C3F40E7
:107180003000B0129A6A4B4FB01274684F4B3B41BB
:1071900030412B1521830B4FD253AD1C8293962D7A
:1071A0000B24B0127871094F5E42962D7E533F40FA
:1071B0003000B0122669013C09437F404200B01202
:1071C0005866B012E0783A4034F30A8FB012FC658A
:1071D0003FF040000520B012E0780F5A0F93F63BC5
:1071E0007F404400B01258663E4020035F420102D7
:1071F0001FF3A8249142182D0000A292A42D412033
:10720000F2F0FEFFE0053F400500B012A076F2F07C
:10721000EFFF22023F400500B012A0765F42FD055D
:107220002FF3FC270E4B3E50FF008E107ED0200027
:10723000C24EEE055F42FD052FF3FC277B53C24B88
:10724000EE050F435E42FD052EF3FC270E410E5F57
:10725000E24EEE051F532F93F5235F42EA051FF31D
:10726000FC233F400500B012A076D2D3E0051F43B7
:10727000B012A076F2D0100022023F400500B012FA
:10728000A076B012FC652FF36724C293AC1C1724C0
:10729000C293632D14241A42462D1B42482DB0126E
:1072A000E0780C4F1C82762D0D430E4C0F4D0E5A7C
:1072B0000F6B824E462D824F482DC243632DB01274
:1072C000E078824F742DD243622DB012E0783A40BC
:1072D00034F30A8FB012FC652FF30524B012E07866
:1072E0000F5A0F93F73BC293622D14241A42422D7A
:1072F0001B42442DB012E0780C4F1C82742D0D43BC
:107300000E4C0F4D0E5A0F6B824E422D824F442D64
:10731000C243622DC293AC1C0724B012E078824FA6
:10732000762DD243632D023CB01204688293962DD1
:1073300005244E493F403000B0122669B0127468EF
:107340000F430D3C3E5352238293962D05244E4904
:107350003F403000B0122669B01274682F432153A9
:10736000291730410B120B4EB012A0690F4BB0120F
:1073700092713B4130411B15C293AD1C2620D24374
:10738000AD1CC293AC1C0420B012206B1A43013C0C
:107390000A43B012E0783B40B9FE0B8FB012FC6597
:1073A0003FF040000520B012E0780F5B0F93F63BF2
:1073B0003F403800B0129A6A4B4F8B110A93022457
:1073C000B012426BB0127468013C0B430F4B1A179A
:1073D00030410B12C293AD1C0C20D243AD1CB01235
:1073E000FC653FF040001B4301200B43B012746862
:1073F000013C1B430F4B3B413041D253AD1C4E4F20
:107400003F403600B0122669B012746830415F15F3
:10741000B012E078824F6C2DD2435E2DB0124871CD
:107420000F930324B1C0F0000C00C2935E2D14240E
:107430001A42322D1B42342DB012E0780C4F1C82C0
:107440006C2D0D430E4C0F4D0E5A0F6B824E322D8C
:10745000824F342DC2435E2D5A170013B012669B23
:10746000F2D010002402F2D28502E2D28502F2F0BC
:10747000BFFF0402F2F0DFFF0402F2F07F0004021B
:10748000F2F0FEFF0502B01208753F400500B01291
:10749000A076D2D3E0051F43B012A076F2D0100040
:1074A00022023F400500B012A07630415F15B012B5
:1074B000E078824F6C2DD2435E2D1F42EE035F4277
:1074C00001021FF30624D253162D9242D403182D25
:1074D000053CC243162D9242D4031A2D1A42322D76
:1074E0001B42342DB012E0780C4F1C826C2D0D43E2
:1074F0000E4C0F4D0E5A0F6B824E322D824F342D93
:10750000C2435E2D5A170013D2430B02B24004014E
:10751000C003B24000C9C403B2D01000C403B2D04B
:107520002000C003B012E078824FD00330410B122C
:107530000B4F4F4FB012E8610F4B3B4130415F158D
:10754000B012E078824F6C2DD2435E2D1F42AE0305
:107550002F935820B2B02000800306241F429403CA
:107560001F8290031F93F6271F4290031E42900331
:107570000F9EFA232A3CB250000194031E42B41C11
:107580001F42B61C1E530F63824EB41C824FB61CA2
:107590001E42B41C1F42B61C3EF07F000FF30E9338
:1075A0000E200F930C201E42B81C1F42BA1C1E5303
:1075B0000F63824EB81C824FBA1CB012F0791F4282
:1075C00090031E4290030F9EFA23824FB21C1F426B
:1075D000B21C1F8294030F93CE37B012FE7D0F931F
:1075E0001124B0120A7E1C42B41C1D42B61C3CE39E
:1075F0003DE30C5E0D6F0D930534B0125C7CB1C0A1
:10760000F0000C00C2935E2D14241A42322D1B424E
:10761000342DB012E0780C4F1C826C2D0D430E4CB3
:107620000F4D0E5A0F6B824E322D824F342DC243B6
:107630005E2D5A1700131E42B41C1F42B61C1C427A
:10764000B41C1D42B61C0E9CF6230F9DF423304142
:10765000824C90033C500001824C9403824EB41C37
:10766000824FB61C30413F40000130411E42B21CE7
:107670001F4290030F8E304132C20343B2400401D7
:107680008003B24010008403B24000019403B2D0E2
:10769000200080038243B41C8243B61C32D23041A6
:1076A000023C03433F530F93FC2330413B15084EEC
:1076B000094FB01236760A4E0B4FB01236760C4E8A
:1076C0000D4F0C8A0D7B0D99F82B02200C98F52B91
:1076D000381730411B150A4E0B4FB0126A61824AAF
:1076E000B81C824BBA1C02DF1A1730411E42B81C6C
:1076F0001F42BA1C1C42B81C1D42BA1C0E9CF62329
:107700000F9DF42330411F4290031E4290030F9EB1
:10771000FA2330412B15494F59E2BC1CC24FBC1C07
:10772000494919B320241FF30724B012E078824F8F
:107730006E2DD2435F2D173CC2935F2D14241A4245
:10774000362D1B42382DB012E0780C4F1C826E2D66
:107750000D430E4C0F4D0E5A0F6B824E362D824F3D
:10776000382DC2435F2D29B322245F42BC1C2FF366
:107770000724B012E078824F702DD243602D173C61
:10778000C293602D14241A423A2D1B423C2DB01294
:10779000E0780C4F1C82702D0D430E4C0F4D0E5A8D
:1077A0000F6B824E3A2D824F3C2DC243602D29F241
:1077B00022245F42BC1C2FF20724B012E078824FD3
:1077C000722DD243612D173CC293612D14241A42AD
:1077D0003E2D1B42402DB012E0780C4F1C82722DC2
:1077E0000D430E4C0F4D0E5A0F6B824E3E2D824FA5
:1077F000402DC243612D5F42BC1CB01298782917FE
:107800003041B0125A78C243BC1C3041B012687883
:107810003041B012147730415FD2BC1CB0121477E3
:1078200030415E42BC1C4ECF4F4EB01214773041F7
:107830005FE2BC1CB012147730410B125B42BC1CDF
:107840007BE34F4BB01230783F409001B012A076EE
:107850004F4BB01230783B413041F2D0700065029E
:10786000F2D07000630230415E4263024E4E3EB081
:10787000100002244D43013C6D420C4E3CF02000B0
:107880005F4301244F434FDD3EF0400002244E434E
:10789000013C6E434FDE30415E4263027EF08FFF5B
:1078A0004F4F2FB202244D43023C7D4010004EDD6D
:1078B0001FB302244D43023C7D4020004DDE2FF3D8
:1078C00002244F43023C7F4040004FDDC24F630221
:1078D000304132C20343B2401000820332D2304101
:1078E0001F4290031E4290030F9EFA2330415F1502
:1078F000B012E078824F6C2DD2435E2DB0127E61C3
:10790000B0122681B01234800F9304240338B1C022
:10791000F0000C00B012A461C2935E2D14241A4230
:10792000322D1B42342DB012E0780C4F1C826C2D8E
:107930000D430E4C0F4D0E5A0F6B824E322D824F5F
:10794000342DC2435E2D5A170013824F92033041EB
:107950000B120B4F033C0E43B012A4803F4B0F930E
:10796000FA233B4130410B120B4F023CB0126A7FAD
:107970003F4B0F93FB233B4130413D40682D3E4040
:107980002A2D0F438D4300008E4300008E430200DA
:10799000CF435C2D1F532D532E523F900C00F223EA
:1079A00030411B150B4FCF935C2D1224B012E078A1
:1079B0000A4F0C4B5C060D4B5D023D50682D0E4A84
:1079C0002E8D0F438C5E2A2D8C6F2C2D8D4A00003E
:1079D0005B061E4B2A2D1F4B2C2D1A1730410E43D0
:1079E0000F4330415F068F4D2A2D8F4E2C2D304195
:1079F0004B153A402A2D3B40682D0743C7935C2D19
:107A00000B24B012E078084F288B09438A580000F5
:107A10008A6902008B4F000017532A522B5337906C
:107A20000C00EC23471730412B150A4F094D2F4FFF
:107A30000F9304243F904A003D20173C3F40C01C58
:107A4000B012E0820B4F093C1D4B06001E4B080094
:107A50000F4B2F53B012667D2B4B0B93F523D24364
:107A6000BE1CBA404A0000002A3C7E9088FF2720B6
:107A70003F40C01CB012E0820B4F193C0F4B2F53FC
:107A8000099F14200E4B3F40C01CB0122E83194298
:107A9000C81C924B0E00C81C1E4B10000E930324F2
:107AA0001F4B12008E128249C81CDB3F2B4B0B93DD
:107AB000E523D73F8A4300007F400300013C5F433A
:107AC00029173041C243BE1C3F40C01CB012DA82AD
:107AD0000E433F40281CB012A48030410B121915F0
:107AE0000B4F084D094E9F410A000E008F4C1000AD
:107AF0009F4108001200C293BE1C0B241842C81CF0
:107B0000B240281CC81C2F53B012667D8248C81C86
:107B1000043C8B4D06008B4E08000E4B3F40C01CB2
:107B2000B012788318173B4130411212C81C111251
:107B30000600B012DC7A215230411B150B4FC29364
:107B4000BE1C0A241A42C81CB240281CC81C2F5351
:107B5000B012967D824AC81C0E4B3F40C01CB0122A
:107B600078831A1730411B150B4FC293BE1C0A2491
:107B70001A42C81CB240281CC81C2F53B012A87D42
:107B8000824AC81C0E4B3F40C01CB01278831A17A3
:107B900030410B120B4FC293BE1C04242F53B01262
:107BA000207E043C8F430A008F430C000E4B3F4065
:107BB000C01CB0122E833B4130410B120B4FC293BD
:107BC000BE1C04242F53B012D47D0E3C3F40C01C79
:107BD000B012E0820E4F033C0E9B05242E4E0E93F6
:107BE000FB231F43013C0F433B4130412B15829344
:107BF000C21C05208243C41C8243C61C2D3CB0120B
:107C000036761A42C21C1C4A04001D4A06002C5A31
:107C10001D6A02000C8E0D7F194A0800133C1A4998
:107C200004001B4906002A591B6902000A8E0B7FBB
:107C30000B9D04280D9B04280A9C022C0C4A0D4B1A
:107C4000194908000993EB230A4C0B4D0A5E0B6F90
:107C5000824AC41C824BC61C291730413F40321C4B
:107C6000B012D68030412B150A4F2F4F0F930424AA
:107C70003F9059005220073C8243C21CBA40590031
:107C800000005F434E3C7E9087FF1A201E42C21CBC
:107C9000023C1E4E08000E93EF278E9D0A00F92726
:107CA000824EC21C083C8C9D0A0004209E4C080099
:107CB00008000C4E0E4C1C4E08000C93F423DE3FC3
:107CC0007E9082FFDB231B42C21C0943233C0F4BE7
:107CD000B0128A810F931B240D4B7E4088FF1F4BEF
:107CE0000A00B01242800F9310208B430A000993C0
:107CF0000424994B08000800033C924B0800C21C66
:107D00008B430800B012EC7BDE3FB0125C7C094B69
:107D10001B4B08000B93DB23B13F8A4300007F40DD
:107D20000300291730410B120B4FB0125C7C8B9370
:107D30000A000D241F42C21C083C0F9B04209F42D6
:107D4000C81C0A000C3C1F4F08000F93F6239B42EF
:107D5000C81C0A009B42C21C0800824BC21CB01205
:107D6000EC7B3B4130410B120B4FB0124C810F4B5F
:107D7000B012267D3B4130412B15094F0A4D0B4E69
:107D8000B0126881894A0400894B06000F49B0127D
:107D9000267D291730410B120B4FB01268810F4B13
:107DA000B012267D3B4130410B120B4FB012768151
:107DB0000F4BB012267D3B4130410C4E8E108E1180
:107DC0008E108E110D4E8F5C00008F6D0200B01270
:107DD000EC7B30411E438F930A0001240E430F4E6B
:107DE00030411C4F04001D4F06002C5F1D6F020028
:107DF0000E4C0F4D30412E4F1F4F020030411F439C
:107E00008293C21C01200F4330418293C21C05247F
:107E10001E42C41C1F42C61C30410E430F4330415A
:107E20000B120B4F1F42C21C0B9F0520924B0800E8
:107E3000C21C113C0F4E0F9305241E4F08000E9BD1
:107E4000F923063C8B4308008B430A003B41304139
:107E50009F4B08000800B012EC7BF43F1B150B4F42
:107E60004A4E5F4F08001FF31A241C4B04000C936A
:107E70001624824BC81CEB4308000F4B3F500600F2
:107E80008C128F112F832F9303287A9083FF052064
:107E90000E4B0F4BB012A27E023CDB4308001A17B8
:107EA00030413B150B4F084E1942C81C1A42CA1CE0
:107EB0000F4A013C2F4F0F9B03240F93FB23343CAD
:107EC0000B933224CB9308001D24CB430800093CBC
:107ED0000B9A06240D4B7E4087FF0F4AB0125C7E42
:107EE0002A4A0A93F5231C4B04000C930B240B988D
:107EF0000924824BC81C0D437E4083FF0F4B3F502B
:107F000006008C121F42CA1C0B9F0A20A24BCA1CDF
:107F1000093C2E4F0E9B0320AF4B0000033C0F4E3D
:107F20000F93F7238249C81C381730410B12C24304
:107F3000CC1C1B42CA1C0E3CCB9309000A24DB4319
:107F40000800CB4309000D437E4082FF0F4BB01267
:107F50005C7E2B4B0B93F0233B4130415F42CD1CA9
:107F60004E4F5E53C24ECD1C30411E42C81CB01253
:107F7000A27E3041F2408AFFCD1CC243CE1CC243D8
:107F8000CF1CC243802D8243CA1C8243C81C30418F
:107F90000B125F42CC1C4F930224B0122C7F5B4229
:107FA000CF1C4B933F245C42CE1C0E4C5E020F4C08
:107FB0005F0A0F8E3F50D01C6E4FC24E001D1D4FEA
:107FC0000200824D021D1F4F0400824F041D1C53EE
:107FD0007CF00700C24CCE1C7B53C24BCF1C0F93CE
:107FE0001A209242CA1C061D123C5F42CC1C4F93C1
:107FF0000224B0122C7F1D42021D5E42001D1F4252
:10800000061DB0125C7E1F42061DA24F061D829304
:10801000061DEB23073C7E9081FF0220DF43080012
:10802000B0125C7E5F42CC1C5E42CF1C4F4F0F5E95
:108030003B4130415F42CC1C5E42CF1C4F4F0F5E34
:1080400030411B155B42CF1C7B921E244C4B5C5273
:10805000CE1C7CF00700C24C081D4C4C0A4C5A0246
:108060005C0A0C8A3C50D01CCC4E00008C4D0200A7
:108070008C4F04004F4B5F53C24FCF1CC29F802DCB
:10808000052CC24F802D023C1F43013C0F431A17A1
:1080900030410B121B42C81CB0125C7E824BC81CC4
:1080A0003B4130411D42CA1C0C4D013C2C4C0C9FE5
:1080B00011240C93FB230F930D248F4D0000824F4E
:1080C000CA1CDF4308008F4306000D4E7E4081FF2F
:1080D000B012928030410F9309245E4F08007E5306
:1080E0006E93042CDF430900D243CC1C30411E4365
:1080F000CF93080001200E430F4E3041B012D278CA
:1081000030411D420A1D8F4C02009F4102000400B5
:108110008F4E0000824F0A1D0D9303200F4EB012A8
:108120004A790F4330411D420A1D0D930E248243AC
:108130000A1D1E4D04000F4D9D1202001F420A1D14
:108140000F9303242F4FB0124A7930410B120B4F7B
:108150008F4D04008F4E0600B01236768B4E000015
:108160008B4F02003B4130419F5F040000009F6F36
:108170000600020030410B120B4FB01236768B4EC8
:1081800000008B4F02003B4130410B120B4FB012ED
:1081900036762E8B1F7B02001E530F631D438B9F71
:1081A0000600052803208B9E040001280D430F4D77
:1081B0003B4130411B151A4F04001B4F06002A5F3C
:1081C0001B6F0200B01236760C4A0D4B0C8E0D7FE1
:1081D0000E4C0F4D1A1730410B120B4F2F4F3F9083
:1081E00067000B243F90790039240F933B20B01295
:1081F0005C7FC24F812D8243141D3F400E1DB01283
:1082000028843F930420BB4067000000303C1E429E
:10821000141D3F900A0009243E907F00EE37CE4F98
:10822000161D1E53824E141DE83FCE43161D1E53CD
:10823000824E141D3D40161D5E42812D0F43B0122B
:1082400042800D437E4085FF1F42C81CB012428011
:108250000F93D123BB4079000000093C7E9085FF3D
:108260000620C93F8B4300007F400300013C5F4371
:108270003B4130417F900D002024C2930C1D0A2009
:108280004E4F3F400E1DB012F0830F931020D2438B
:108290000C1D0D3C7F900A000A207E400A003F40E2
:1082A0000E1DB012F0830F930224C2430C1D3F40F9
:1082B0003C1CB012D6801F4330410F4330417D40FB
:1082C00080FF3E40961D3F400E1DB012DC830E43E2
:1082D0003F403C1CB012A48030418F43000030412D
:1082E0002F4F3041AF4E000030412F4F0F930220EF
:1082F00030410F4E2E4F0E93FC2330410E4F2F4F27
:108300000F930D248F93000003208E430000304113
:108310000E4F2F4F8F930000FB238E430000304100
:108320000E4F2F4F0F930224AE4F000030410B121F
:108330002D4F0D9314240C43023C0C4D0D4B0D9E00
:108340000B202E4D0C9303208F4E0000023C8C4ED0
:1083500000008D430000033C2B4D0B93EE233B416B
:1083600030411B150B4F0A4EB0122E83AA4B000052
:108370008B4A00001A1730411B150A4F0B4EB012E2
:108380002E838B4300000F4AB012EA820F93032022
:108390008A4B0000023C8F4B00001A1730412E4FD1
:1083A0000F43023C1F532E4E0E93FC2330410E937D
:1083B00004200E4DB01262833041AD4E00008E4D50
:1083C000000030410F9302242F4F30410F433041C2
:1083D000B01252AF3041B0122CAF30418F4E00007E
:1083E0007D53CF4D0200CF430300CF430400304103
:1083F0000B125C4F03005D4F04000B4C0B8D0D4BBB
:108400005B4F02000DFB4D9B0C242C5FCC4E0000FB
:108410005E4F03005E535EFF0200CF4E03001F431A
:10842000013C0F433B4130411B155B4F04005C4F47
:1084300002005E4F03004D4B0E8D4A4C0EBA0824CD
:108440002D5F6E4D5B534BFCCF4B04000F4E013C38
:108450003F431A1730415F4F02001F5330415E4FB8
:1084600003005D4F04000E8D5F4F02000FFE304190
:108470001B15B01222880A4F3F40161EB012E08230
:10848000083C1F4B02000F9301248F120F4BB012B8
:10849000C4830B4F0F93F5230A9303240F4AB012A2
:1084A000008B1A173041B0121E8BB012C28DB01261
:1084B0000887B0121C88301207003012000803121F
:1084C0003012001E3D4020000E432F43B01298860C
:1084D000315230413B15094F0A4E084D3F40161EA0
:1084E000B012E082093C1E4B04000E9302240F4A96
:1084F0008E120F4BB012C4830B4F0F93F4230D4811
:108500000E4A0F49B0120E8B381730410E4F3F40C4
:10851000161EB012788330410E4F3F40161EB01227
:108520002E8330410B120B4FB01232880F93092467
:10853000B012628C0E4B3F40D48492129CB21F4307
:10854000013C0F433B41304130412B153150FAFF84
:10855000094EB012328D0A4F2D430E4F0F41B0120B
:108560002A602B415B062B53B0124A8D0F9B1428B7
:108570002A530B430F3C2D420E4A0F412F53B0128A
:108580002A601D4104001E4102000F49B012E68717
:108590002A521B532B91EF2B3150060029173041E3
:1085A0000B123B40581E03123C40EA852D4B1E4BDC
:1085B00002000F4B3F50E0FFB0122A7B2153B01254
:1085C000D6832C4B1D4B02000E4F0F43B01254A606
:1085D00003123C4038860D4E0E4F0F4B3F50CCFFE0
:1085E000B0122A7B21533B4130411E42581E1F428C
:1085F0005A1E0E5E0F6F1C42541E1D42561E0D9FCA
:1086000004280F9D04280C9E022C0E4C0F4D824E08
:10861000581E3E40581E8E4F0200B012A0853041B9
:10862000D1930200082092424C1E581E92424E1EC8
:108630005A1EB012A08530410B12B012C28DB0127A
:10864000328D0B4F8F430000B012DC87113C0D4E72
:108650005D060D5B9D4F020002001E530D4E5D0630
:108660000D5B9D4F040000008B4E0000B012C483D0
:108670002E4B0F930324CF930800E9230F4E5F0680
:108680002F53B0122C8D8B93000004243F40181EF2
:10869000B01218893B4130411B150A4D0B4E3D402D
:1086A0003AB20E4F3F40181EB012F0883F404C1EA9
:1086B0008F4A00008F4B02009F41060004009F413B
:1086C000080006009F410A0008009F410C000A00B4
:1086D0003F402086B012D6871A1730410B123B401C
:1086E000381E0F4BB012927B0F4B3F50ECFFB01275
:1086F000927B3F40181EB01212893B4130411E420E
:10870000581E1F425A1E30413F405E1EB012DA8290
:1087100030411B150B4F8F4E0200CF4308008F4D89
:1087200006000E4F3F405E1EB01278831A42601E54
:108730000A930A2453120C431D4B04005E4B08009D
:108740001F4B02008A1221531A1730410E4F3F402F
:108750005E1EB0122E8330410B12CF4308001B4225
:10876000601E0B93082443120C430D434E431F4FCE
:1087700002008B1221533B4130410B121C4F04006D
:10878000DF4308008F4E04001B42601E0B9307243A
:1087900043120D4E5E431F4F02008B1221533B418B
:1087A00030410B121B42601E0B930A241C4F040025
:1087B00053120D4C5E4F08001F4F02008B122153C5
:1087C0003B4130411E42621E0E9301248E12304105
:1087D000824F621E3041824F601E30413F405E1E1C
:1087E000B012E08230413B15094F0A4E084D3F4020
:1087F0005E1EB012E0820E3C8F9A020009201B4FD1
:1088000006000B9309240C480D4A0E498B12043CB8
:10881000B012C4830F93F02338173041B01254883C
:1088200030419212A4B20F930324924F02008C2D78
:1088300030410B120B4F9212A6B2924B02008C2DBC
:108840001E430F9301200E430F4E3B4130419212C5
:10885000A8B230413F40641EB012DA8230418F4EE0
:1088600002000E4F3F40641EB012788330410E4F1D
:108870003F40641EB0122E8330410B120B4F3F401D
:10888000641EB012E082053C8F9B02000424B012EB
:10889000C4830F93F9233B4130411B150A4EB0129C
:1088A0007A880B4F0F9307248F4A04000F4AB012A7
:1088B0004E88CB4F06001A1730411C4F0A001C4C43
:1088C00002000C9301248C1230410B1221830B4FB8
:1088D0003E40822D0F41B012568E1F4B0A002D4F85
:1088E0000D9303240E410F4B8D1221533B41304118
:1088F0002B150B4F0A4E094D3D403EB2B012D68AA1
:108900008B490A003E4042B20F4AB0129A8829179A
:108910003041B012F48A30410B120B4F3E40BE2D55
:108920003F40822DB012568E0F4BB012FA8A3B4157
:1089300030410B123150E0FF0B4F7E9083FF04203B
:108940003F40681EB01212892F4B3F90A7002D2484
:108950003F90B50058240F9371203D4058B23E40DF
:1089600007003F40681EB012F088B2400004741E39
:108970008243761E1D42741E1E42761E3F40781EA4
:10898000B012667DB012D6831C42741E1D42761E44
:108990000E4F0F43B01254A60D4E0E4F3F40841E93
:1089A000B012667DBB40A70000003F40841EB0129D
:1089B000D47D0F934824D142661E0000C1430100BC
:1089C0009142901E0200B0126C76814F0400B012EA
:1089D0003676814E0600814F0800B012EC76814E4B
:1089E0000A00814F0C0081431E003E4020000F41D1
:1089F000B012DC8DA242A42D3F40681EB01218892F
:108A0000BB40B50000003F40781EB012D47D0F93EC
:108A10001A241E42741E1F42761E0E5E0F6F824E77
:108A2000741E824F761E0F9303203E900096A22B59
:108A3000B2400096741E8243761E9C3F8B4300001A
:108A40007F400300013C4F43315020003B41304107
:108A50001F42661E30411E42661E824F661E0E9FDA
:108A600009243F40461CB0126A7F0E433F40461C1B
:108A7000B012A48030413150E0FFB012328D3D4041
:108A800020000E4F0F41B0122A606F411F92661EE8
:108A90000B341E4102001E511E001E82942D824E78
:108AA000901E1F53B012568A315020003041B01230
:108AB000E0781F52901E30411F82901E30411F529D
:108AC000901E30411F42901E30410E433F40461CD5
:108AD000B012A48030412B150B4F0A4E094DB01235
:108AE0005E888B4908003E405CB20F4AB0129A88FB
:108AF00029173041B0126E883041B01224853041C0
:108B00001E4F08002E4E0E9301248E1230411C4F32
:108B100008001C4C02000C9301248C1230413F4091
:108B2000501CB012549C3F40581CB012549C304111
:108B30003F40581CB012309D30411B153F40581C1F
:108B4000B0128A9C0B4F0F931C243F40501CB01254
:108B50008A9C0A4F8B4F00000F9307200E4B3F401B
:108B6000581CB012C89C0B430C3CB012B28C8A4FFC
:108B700080000E4A3E50B6000F4A3F508200B012AD
:108B8000068E0F4B1A1730412F4F0E4F3E50B60036
:108B90003F508200B012068E30410B122B4F0E4B0D
:108BA0003E50B6000F4B3F508200B012068E0F4B66
:108BB000B012B28C8B4F80003B4130410B120B4FF7
:108BC0000E4F3F40581CB012029D0F930A242E4BAB
:108BD0003F40501CB012C89C0E4B3F40581CB01276
:108BE000C89C3B4130410B120B4F0E4F3F40581C6D
:108BF000B012029D0F930E242B4B1E4B80000F4B87
:108C0000B012DC8D0E4B3E50B6000F4B3F50820031
:108C1000B012268E3B4130410B120B4F0E4F3F409E
:108C2000581CB012029D0F9302242F4B013C0F439E
:108C30003B4130412F4F1F4F800030414E4E3E5040
:108C400041005E022F4F0F5E30414E4E3E504100BC
:108C50005E022E5F2F4E30413041F2403000B62A86
:108C600030411E42B22A0E9312241C42B42A3C50B8
:108C700030003F4030003E50BA2A053C0D4E0D5F9B
:108C8000EF4DBA2A1F530F9CF93B8243B22A304161
:108C90000B125E42B62A3B4030000D4B0D8E3E500B
:108CA000BA2AB0122A605E42B62A0F4B0F8E3B41A1
:108CB00030411B150A4F5E42B62A1D42B42A3D5070
:108CC00030000D8E3D9081001E2C3B4030000D4B3E
:108CD0000D8E3E50BA2AB0122A605E42B62A0C4B64
:108CE0000C8E1D42B42A1E42B82A1E52B22A0F4AC6
:108CF0000F5CB0122A601F42B42A3F5030005E421F
:108D0000B62A0F8E013C0F431A173041C25FB62AB4
:108D100030411E42B42A0E9F0728825FB22A0E8F6E
:108D2000824EB42A1F4330410F433041824FB42A50
:108D300030411F42B22A3F5030003F50BA2A3041E2
:108D40005F42B62A3F50BA2A30411F42B42A30410E
:108D50007F4030005F82B62A02205F42B22A304153
:108D6000B012508D4F4F1F52B42A30411B150B4F7C
:108D70005A42B62A4F4A0F9B0B38B012608D0F5BD8
:108D80003F908100052C4A8BC24AB62A1F43013C02
:108D90000F431A1730410B120F438F438A2D2F5365
:108DA0003F903400FA230B430F4B5F023E405EB20C
:108DB0003F50822DB012568E1B532B92F5233B4110
:108DC00030418243B22A8243B42AF2403000B62AAC
:108DD000B240EA2AB82AB012968D30411B150A4FCC
:108DE0000B4EB012C28D3B90810002283B408000A8
:108DF0000D4B0E4A1F42B82AB0122A60824BB42A89
:108E00000F4B1A1730410B120B4E3D4034003E40C1
:108E10008A2DB0122A603D423E40822D0F4BB01287
:108E20002A603B4130410B120B4E3D4034000E4F47
:108E30003F408A2DB0122A603D420E4B3F40822DAA
:108E4000B0122A603B4130413E405EB23F40842D2B
:108E5000B0125E8E30412D43B0122A6030412D4356
:108E6000B01286A61E430F9301240E430F4E3041CD
:108E70000E4F3F40BE2DB012568E30419212A0B21E
:108E8000304192128AB2304192128CB230411F426C
:108E90008EB20F9302248F1230410F4330410B12D8
:108EA0000B4F0F930C241F4F1E00B012E0820F9344
:108EB00006240D4F0E4B3F40E290921286B23B418A
:108EC00030413B15094F084EC2936A2B0620D2430E
:108ED0006A2BB012D683824F6C2B82936C2B0220AC
:108EE00092436C2B1F426C2B0E4F1E53824E6C2BE9
:108EF000824F9E2D3F406E2BB012E0820B3C3E40D5
:108F0000842D0F4B2F53B0125E8E0F9322200F4BE8
:108F1000B012C4830B4F0F93F223853C3E40842D47
:108F20000F4B2F53B012568ECB431800CB43190072
:108F3000CB431A000D4B3D501C008B4D1E008B4344
:108F40001C000F4DB012DA820E4B3F406E2BB01258
:108F500078831F4B1E00B0129E833F900F000124A8
:108F60005B343F40681CB0128A9C0A4F0F93442424
:108F70003F40701CB0128A9C8A4F04000F93372424
:108F8000B0123A8B8A4F02001D4A04000F932A2424
:108F90001C429C2D0C930420FD4003000400023C65
:108FA000CD4C04008D4900008D4802001F4B1E006F
:108FB0000E4A9293A42D0320B0126283023CB01299
:108FC00078831F4B1E00B012E0820A9F34200B12E0
:108FD0003C409E8E0D430E430F4B2F52B0122A7B06
:108FE0002153293C0E4D3F40701CB012C89C0E4AC4
:108FF0003F40681CB012C89C1F4B1E00B0129E83DD
:109000000F930A200E4B3F406E2BB0122E830E4B57
:109010003F40601CB012C89C1C432D420E480F49B3
:10902000B0120692083C3F40601CB0128A9C0B4F65
:109030000F937423F13F381730413F40681CB01242
:10904000549C3F40701CB012549C3F40601CB012B6
:10905000549C30412B15094F0A4E0E9340241F4F4C
:109060001E00B0122E831F4A0200B012BC8B1E4A93
:1090700004003F40701CB012C89C0E4A3F40681C60
:10908000B012C89C1F491E00B012E0820F93192431
:10909000C9431800C9431900C9431A0092128EB27D
:1090A0000A4F0B430F9302201A430B4309123C4013
:1090B0009E8E0D4A0E4B0F492F52B0122A7B215320
:1090C0000E3C0F492F52B012927B0E493F406E2B3F
:1090D000B0122E830E493F40601CB012C89C291765
:1090E00030417B152182094F074E0F9389241E932F
:1090F0000E242E9303340E9307240E3C2E93042447
:109100003E9003000920063CC95D1800053CCF5D78
:109110001900023CCF5D1A001F491E00B012E08208
:109120000C3C7E400A001F480200B0124A8C1F927D
:109130009E2D07240F48B012C483084F0F93F123CC
:109140005F3C1648040006935B24A146000091464C
:1091500002000200554918000F473F532F93452C3A
:1091600092128EB20A4F0B430F9302201A430B4305
:10917000B012D683044FD99604001800362C2592DD
:10918000023835400300174375F00F004593032460
:1091900007577553FB3F0D478D108D118D108D11A5
:1091A000021232C20343824AD404824BD60482475D
:1091B000E004824DE2041C42CA041D42CC04324148
:1091C0000E440F43B01254A609123C409E8E0D4E21
:1091D0000E4F0D5A0E6B0F492F52B0122A7B21539E
:1091E0001F480200B012888B0B3C0E480F49B0128A
:1091F00054900C450D471E4102002F41B0120692BB
:109200002152741730410B120B4F0F4E0E4D0D4C67
:109210000B9301248B123B4130411F433041C24329
:10922000942C82439E2CB012E07803123C4044936D
:109230001D430E4F3E5000013F40982CB01202815A
:109240002153D243972C30415F42972C4F930824EF
:109250005F42942C4F930420D243942C9212EAB193
:1092600030415F42972C4F930C245F42942C4F93D4
:1092700008245F42962C4F930420C243942C9212F0
:10928000ECB13041B01262928243A22C3041C24311
:10929000972CC24F962C0F930524D243942C9212F4
:1092A000EAB13041C243942C9212ECB130415F429A
:1092B000972C4F931220D243972CC243962CB01276
:1092C000E07803123C4044931D430E4F3E50000192
:1092D0003F40982CB012028121531F4330410B12A2
:1092E00021830B4F814E0000B012E0780D4F3DE31B
:1092F0002E410D5E0D930434B012E0780E4F1E53D4
:1093000003123C4044931D430F4BB0120281215283
:109310003B4130410B125B42942C5F42952C4F93A2
:109320000F208293A22C0C20B01262924B9308243F
:109330005F42942C4F9304203F40D82DB0129E9B47
:109340003B4130412B150B4F1F429E2C3F90880113
:109350003F243F908901032C0F930824D23C3F9077
:10936000BA0192243F90D601CC20043CB012E078A0
:10937000824F922CB2500001922CC243A02CC243C7
:10938000A12C283C5F42952C4F9312208293A22C53
:109390000F205F42952C4F930220B01248929212F8
:1093A000E4B10F930320D243A02C173CB0121493C6
:1093B000B012E0785E42972C4E9306240E4F3E503A
:1093C00010000F4BB012DE92B24088019E2C5A3C26
:1093D000D253A12CE293A12CD52BC293A02C7A249A
:1093E000B012E078824FA42CC243A62CC243A72C13
:1093F0004B3C9212E4B10F930324D253A62C023CAF
:10940000C243A62CD253A72C1942E6B189120F935E
:109410000224C243A62CF2900600A62C0C2C1A4261
:10942000E8B1F2900B00A72C092889120F930620AF
:109430008A120F930320B0121493363C8A120F93B2
:1094400033205F42972C4F931A242A4BB012E078B6
:109450000E4A3E5012000E8F0E930534B012E07883
:109460002F8B2F53023C3F40140003123C40449387
:109470001D430E4F2E5B0F4BB01202812153B240A1
:10948000BA019E2C5F43413C5F42952C4F930C20C8
:109490005F42942C4F930824B012E0781F82A42CD2
:1094A0003F5067FE0F93A53B5F42942C4F931224CD
:1094B0009212E6B10F9304209212E8B10F930824A0
:1094C000B012E0781F82A42C3F5067FE0F93023841
:1094D000B0121493B012E0781F82922C3F50A0FF7C
:1094E0000F9348371E42922C5F42972C4F930524CE
:1094F0003E5000010F4BB012DE92B240D6019E2CBE
:10950000C13F82439E2C7F400300291730410B123C
:109510008293A22C0220B0126292B0124A8D3F9028
:1095200003004C24B012608D0F9348249212BAB2FB
:109530000F934438B0124A8D0F934024B012608DBF
:109540000F933C243E40BE2D3F40842DB0125E8ED2
:109550000F930420B012488E0F9330241F42B02D79
:10956000824FA22C0F930D24B012489203123C405C
:1095700084922D420E433F40A82CB0122A7B2153E7
:10958000063CB01262923F40A82CB012927BB012FF
:109590005CA00B4F0F930220B01292A03F40BC2C56
:1095A000B0129E9B3F40BC2CB012249C3F40BC2C70
:1095B000B012089C0B93022092126CB23B413041D6
:1095C0007B152182054F5E42972C4E9304205E420C
:1095D000962C4E93D824B012608D0F93D4243E4025
:1095E000BE2D3F40822DB012568EB012488E094FCC
:1095F0008293A22D06209243A02D9212B8B20F930F
:10960000C238B012608D064FB012408D0E469212D5
:10961000DCB1D243952C9212E6B10F930420921242
:10962000E8B10F930324C243952CA73CB012629279
:109630005742972CD243972C05932B203B40060092
:109640001442E4B1B012E078084FB01248923A40A8
:10965000FCFF0A88B012E0780F5A0F93FB3B84128C
:109660000F930920B0126292C243952CB0126292FD
:10967000C247972C823CB0126292B012E0783A4016
:10968000F0FF0A8FB012E0780F5A0F93FB3B3B5369
:10969000D9235843099303204843B0124892B0128B
:1096A0009261B012E07854429E2D3940B0FE098F8D
:1096B0003A40DEFD0A8F3D3CB0129261489307208C
:1096C00005930524B012E0780F5A0F9337340F46F4
:1096D0009212DEB1B012E0783B40F3FF0B8FB01274
:1096E000E0780F5B0F93FB3B489323209212E6B187
:1096F0000F9308209212E8B10F9304209212E4B164
:109700000F931720B012E0783B40EBFF0B8FB012A5
:10971000E0780F5B0F93FB3B3E4003000F4192123A
:10972000E2B13F90030003205491020009245B43FF
:109730000A3CB012E0780F590F93BE3B4B43033CF9
:109740004B435A43013C4A43B01262923F40BC2C07
:10975000B0129E9B3F40BC2CB012249C3F40BC2CBE
:10976000B012089CC247972CC243952C4B930520FE
:10977000489305204A930524023C1F43063C0F43AF
:10978000043C2F43023C3F400500215274173041F6
:109790004B15094F084E0A4D0D9352248293A22C6B
:1097A00007241F4D0200B012E68B1C431D431B3CD7
:1097B0000B4D013C0B470F4BB012C483074F1F4B9F
:1097C0000200B012E68B8293A22D18200793022488
:1097D0009243B02D9243A02D9212B8B20F93083449
:1097E0001C433D4005000E480F49B0120692283C2C
:1097F0009243A22D1F4B0200B0129A8B0793DA23DB
:109800000B43023C0A471B430F4AB012C483074F65
:109810001F4A0200B012E68B0F4BB012C0950B4FDF
:109820003F9003000D241C430D4F0E480F49B0120A
:1098300006920B930520079303248293B02DE22315
:10984000471730410B1221830B4F0F43814E00000D
:10985000B012C0950D4F2E413F90030004241C43CD
:109860000F4BB012069221533B4130410F43304120
:109870008F1230419243B22D92126AB230411F438F
:109880003041921238B230414F4330411B153A42B9
:109890000B43F2D020000502034303430343034379
:1098A000034303430343F2F0DFFF05023F40090097
:1098B000B012A0765F4201023FF0200002243BD0AC
:1098C00080003F404700B012A0763A5303200F4B70
:1098D0001A1730415B03DD3F2B15F2F0DFFF050265
:1098E000F2F0DFFF0302F2D0200005023F407D02CC
:1098F000B012A076F2F0DFFF05023F405B00B0122D
:10990000A0765B4201023F402002B012A0763BB03D
:1099100020005920B0126A61094F3A423B4033009F
:109920000F4B1FF3F2D0200005020D240343034325
:1099300003430343034303430343F2F0DFFF050202
:109940003F405300093C3F404D00B012A076F2F07A
:10995000DFFF05023F400B00B012A0763A5302240D
:109960005B03DE3FB0128C980A4F3B400700B012F9
:109970008C98CB4FC02D3B531B93F923B0128C987E
:109980000B4F02D91A931F203D421E430F4E1FF367
:109990005E030F9302243EE08C003D53F7233D40CD
:1099A00007005F4DC02D0EEF3C420F4E1FF35E03CC
:1099B0000F9302243EE08C003C53F7233D531D934C
:1099C000F0230E9B08243D420E433F40C02DB012B1
:1099D0003C600F43013C1F432917304132C203430F
:1099E00082430201B012A46192420001C42C82435E
:1099F000000130419242C42C000132D2B0127E618B
:109A000030410D4F3D5000E83D900102062CB24020
:109A100000A54601B24040A54401B24000A5440162
:109A200092B34401FD23B24002A540018F430000E0
:109A3000B24000A54001B24010A544013D90010292
:109A4000062CB24040A54401B24080A546013041F9
:109A50000C4F3C5000E83C900102062CB24000A59F
:109A60004601B24040A54401B24000A5440192B372
:109A70004401FD23B24040A540018F4E0000B2409A
:109A800000A54001B24010A544013C900102062C03
:109A9000B24040A54401B24080A5460130415F1567
:109AA000B012E078824F6C2DD2435E2D5F421D02D2
:109AB0003FF040001D243F40C82DB0128A810F9313
:109AC0000E243D4010000E433F40C82DB0124C8183
:109AD0003F40BAB1B0122A65B1C0F0000C005F423D
:109AE0001D025E421D027EF040004FCEC24F1D029D
:109AF0005F421D023FF080001D243F40D02DB01278
:109B00008A810F930E243D4010000E433F40D02D1C
:109B1000B0124C813F40CAB1B0122A65B1C0F0000A
:109B20000C005F421D025E421D027EF080FF4FCEA0
:109B3000C24F1D02C2935E2D14241A42322D1B42C5
:109B4000342DB012E0780C4F1C826C2D0D430E4C5E
:109B50000F4D0E5A0F6B824E322D824F342DC24361
:109B60005E2D5A170013D2D3E005F2D080FFE00536
:109B7000F2406900E105C243E705E243E605F2D0A1
:109B80000E002A02F2D00C002402F2F0FEFFFC05C7
:109B9000F2F0FDFFFC05F2F0FEFFE00530412B1571
:109BA0000B4FB012F0793F400700B012A2792C4B56
:109BB0001D4B02001C82C82C1D72CA2C094C0A4D78
:109BC000095E0A6F8B4900008B4A0200824EC82C46
:109BD000824FCA2C3F400600B012A2791C4B0400F1
:109BE0001D4B06001C82CC2C1D72CE2C094C0A4D3C
:109BF000095E0A6F8B4904008B4A0600824ECC2C0A
:109C0000824FCE2C291730418F4304008F4306002A
:109C10008F4300008F43020030413F40D82DB012E7
:109C2000089C30413E40982DAE5F00009E5F0400CE
:109C3000020030410D4F3C40982D3E4C0F438D5E4D
:109C400000008D6F02002E4C0F438D5E04008D6F5F
:109C5000060030410B120B4F1D4F02000E431F4FE9
:109C60000400B0123C60021232C20343924B020065
:109C7000C204A24BC8041D42CA0432410E431F4B0A
:109C80000600B0123C603B4130411C4F02000E43C5
:109C9000163C1D4F04000D5ECD9300000F20DD43E8
:109CA0000000021232C20343824EC204A24FC80413
:109CB0001E42CA0432411E5F0600043C1E530E9C25
:109CC000E8230E430F4E30410B121C4F06001B4F72
:109CD00002000D43113C0C9E0D201E4F04000E5D32
:109CE0006C4E5C9303387C53CE4C00001D5F040027
:109CF0006F4D053C2C5F1D530D9BED237F433B4176
:109D000030411C4F06000E9C1128021232C2034340
:109D1000A24FC204924F0200C8041D42CA0432413D
:109D20000D5C1F430E9D03280F4330410F4330410C
:109D30000B120D4F1B4F02000F430E43083C1C4DEE
:109D400004000C5ECC93000001201F531E530E9B99
:109D5000F6233B4130410E43043C5D4F01000E5D54
:109D60002F53CF930000F9230F4E30416C4F8C10CE
:109D70005F4F01000CDF7EF00F004E9303240C5C5C
:109D80007E53FB3F0F4C8F105E4DAAB20FFE3E423A
:109D90004E8D7EF00F004E93042412C30F107E539D
:109DA000FA3F4F4F30415B150B4F094E074D0A4CA0
:109DB0003C9204340D4C0E470F49363C084C580970
:109DC0000D9302240643023C0F43193C3D420E47CB
:109DD0000F490F56B0126C9D0E4B0E56CE4F000021
:109DE00016530698F33B0F48089301340F430D4A6E
:109DF0003DF007001D240B5F0E470F59153C0D4920
:109E00000D5F0E4B0E5FEE4D00001F530F98F73B9A
:109E10000C48089301340C430D4A3DF00700082418
:109E20000B5C0E430F490F5CB0126C9DCB4F0000D2
:109E3000561730414B152182B012328D0B4F2F43F4
:109E4000B012128D0F934C245E4B01008E106F4B9D
:109E50000F5EB0127A880B4F0F934324B012328DED
:109E6000074F5F4B06004E4F5E0B3FF007001D4350
:109E700001200D430F4E0F5DB012128D0F93302451
:109E80001A4B04000943283C584A01000E495E0958
:109E90000D493DF007000E577C901A0011280C4820
:109EA0000F412F53B012A69D6D4A3D50E6FF5D0253
:109EB0000E412E530F4D3F50822DB012568E0A3C4C
:109EC000814300000C480F41B012A69D6E4A5E020D
:109ED000AE418A2D09582A536C4A4C93D523013C34
:109EE0000B430F4B2152471730410B123B401000E0
:109EF0000B8E4D4D4E4B4E8C7EF00F004E93032437
:109F00000D5D7E53FB3F0E4D8E10CFDE0000CFDD8A
:109F100001003B4130415B15074F064E0B4D094C8C
:109F20003C9202346D4D463C0A4C5A090E93022471
:109F30000843023C0E431F3C0F4B0F583C426D4FF1
:109F40000E460F470F58B012EA9E1853089AF43B7A
:109F50000A9301340A430C493CF007002D240B5AA4
:109F60000E460E8C6D4B7E527EF00F004E931E24DB
:109F70000D117E53FB3F0D4B0D5E0F470F5EEF4DF6
:109F800000001E530E9AF73B0A9301340A430C4912
:109F90003CF0070011240B5A6D4B3E424E8C7EF074
:109FA0000F004E9303240D117E53FB3F4D4D0E4386
:109FB0000F470F5AB012EA9E561730413B152183C6
:109FC0000B4F5E4F06004F4E5F0B3EF007001A43EB
:109FD00001200A430A5F0F4A2F53B0126C8D0F9372
:109FE0003924B012408DDF4B020000001E4B0200EE
:109FF0008E10CF4E0100B012408D084F28530D4AED
:10A000000E430F48B0123C601A4B04000B431D3C3A
:10A01000594A01000F4B5F094D4E7E901A000728E8
:10A020003D50E6FF5D020C493D50822D063C5D022D
:10A03000914D8A2D00000C490D410E4B3EF007005A
:10A040000F58B012169F0B592A536E4A4E93E023B5
:10A050001F43013C0F432153381730411B150B435D
:10A060000A4B5A060E4A3E50D02C3F40822DB01269
:10A070005E8E0F9307245E4AD22C1F431E929E2DA4
:10A080000520053C1B533B901000EA230F431A1791
:10A0900030411B150A430E4A5E063E50D02C3F400D
:10A0A000822DB0125E8E0B4A1B530F9311200A4B68
:10A0B0003B901000F0230C3C0E4B3E535E060F4BC2
:10A0C0005F062D423E50D02C3F50D02CB0122A605B
:10A0D0003B53F223D2429E2DD22C3E40822D3F4054
:10A0E000D02CB012568E1A1730410B123150CCFFC3
:10A0F000B0124A8D0B4FB012328D0D410E4BB01283
:10A100006CA40B4F0F933A24B012128D0F93362488
:10A11000D2411000B22DC243B32D5F4115004F93C1
:10A120001B241E411A003E90CDAB02243E932620F4
:10A130006F9308243F423F530E410E5FFE93000091
:10A140000324053C2F43F73F1F93F537053C0E4191
:10A150003F40842DB012568E0E413E523F40822D1C
:10A16000B012568ED2411200B02DC243B12D5F41C4
:10A170001800824F9E2D824FA62D013C3B430F4B72
:10A18000315034003B4130411B153150CCFF0A4F58
:10A190003D4034000E430F41B0123C60C293102D7D
:10A1A0000620D243102DB012D683C24F112DD142BA
:10A1B000B22D1000D142B02D1200B012488E0F9374
:10A1C0000324C1431300033CD142A02D1300C1431B
:10A1D0001400D14316000A9318241E429E2D0E939C
:10A1E0000324C14E1800113CC293112D0220D2430A
:10A1F000112D5F42112DC14F18004E4F5E53C24EBC
:10A20000112DC24F9E2DC2439F2DE1431700B14037
:10A21000CDAB1A00B012488E0F930724E14315000E
:10A22000F1430000F1430100073C3E40842D0F4103
:10A23000B012568EE1431500B140CDAB1C003E403C
:10A24000BE2D0F413F52B012568EB012328D814F4B
:10A250003000B0124A8D814F32000F41B0122CA352
:10A260000B4F0A930C24B0126C8D0F930724B0127D
:10A27000408D0E4F0F41B0125AA3013C3B430F4B90
:10A28000315034001A1730411F43B01288A13041B9
:10A290000F43B01288A130411B150B4F0A4E3D40B1
:10A2A00006000E430F4AB0123C605F4B15003FF0B2
:10A2B00003000224EA4300005F4B17003FF0030055
:10A2C0000224EA4302005F4B15003FF003000E2416
:10A2D0005F4B17003FF0030009249B9B1A001C00F2
:10A2E0000520DB431400CA430200023CCB431400A8
:10A2F0005F4B15007FF003006F836F93042C4F4F6B
:10A300005F4FBCB2013C4F43CA4F01005F4B170087
:10A310007FF003006F836F93042C4F4F5F4FBCB2ED
:10A32000013C4F43CA4F03001A1730413150FAFF26
:10A330000E41B01298A26F413F5003005E410100F0
:10A340000F5E5E4102000F5E5E4103000F5E5E41E4
:10A3500004000F5E3150060030414B153150FAFFBA
:10A360000B4F0A4E0E41B01298A25E4B11001EF325
:10A370005E0A5F4B12001FF35F0E4EDF5F4B100053
:10A380007FF007004EDF5F4B13001FF35F0E5F028D
:10A390004EDF5F4B14001FF35F0E5F064EDFCA4EA9
:10A3A00000005E4B15003EF003005E065F4B16009A
:10A3B0003FF003005F0E4EDF5F4B17005F0E5F063E
:10A3C0004EDFCA4E0100DA4B18000200E193000094
:10A3D0000B20DA4B1A0003001F4B1A008F10CA4FD4
:10A3E000040079400500023C794003005841010017
:10A3F0004F430C434D480D5B073C074D075C4E4EE9
:10A400000E5AEE4700005F534E494E8C3C534F9816
:10A41000F4234F59E19302000F204E4F0E5ADE4BAA
:10A420001C0000004E4F5E534E4E0E5A1D4B1C003A
:10A430008D10CE4D00006F53584103004D4309432A
:10A440004C480C5B083C0B4C0B594E4E0E5ADE4BE5
:10A45000080000005D534E4F4E8939534D98F32349
:10A460004F5D4F4F31500600471730415B15318229
:10A47000094F084E0B4D3E900300C1386F4F4E4FB1
:10A480007EF00700C14E00004E4F5E0B5EF3C14EE2
:10A4900001005F0F4E4F5EF3C14E02000E4F5E0390
:10A4A0005EF3C14E03005F075FF3C14F04005F49D5
:10A4B00001004E4F5E077EF00300C14E05005F0FA6
:10A4C0004E4F7EF00300C14E06005F07C14F0700EC
:10A4D0003D420E410F4B3F501000B0122A60DB4945
:10A4E000020018005E4105004E932D245D490300D3
:10A4F0005F4904008F100D5F8B4D1A006E930F2083
:10A500003E405EB20F4BB012568EDB490600000093
:10A51000DB49050001000A493A5007001E3C0A4980
:10A520003A5005007E90030018200F430E4B0E5F3B
:10A53000DE4A070000001F533A533F92F7230A49AF
:10A540003A500D000A3C0A493A5003003E405EB2C0
:10A550000F4BB012568E8B431A005E4107004E938C
:10A560002E24C193040009206D4A5F4A01008F1018
:10A570000D5F8B4D1C002A53033C9B4B1A001C00A3
:10A580006E930D203E405EB20F4B3F52B012568E7E
:10A59000DB4A01000800EB4A09002A53183C7E9070
:10A5A000030015200D4B3F4007000E4A0E5FED4E95
:10A5B00008003F531D533F93F8233A52083C3E4056
:10A5C0005EB20F4B3F52B012568E8B431C00064AB0
:10A5D0000D4A8D108D118D108D11074D0C4989106C
:10A5E0008911891089110D49068C077D0F460E4887
:10A5F0000E868B4E32008B4A3000089601340F4392
:10A600003152561730410B129212B6B20B4F0F93C4
:10A610000738B012628C92129EB20F9301203B4316
:10A620000F4B3B4130412B15794020000A4C0B4D1C
:10A630000C430D430E5E0F6F0C6C0D6D0D9B0628C9
:10A6400002200C9A03280C8A0D7B1ED31983F22357
:10A6500029173041B01226A60E4C0F4D30410B1277
:10A660000D930E246C4F7B4E4C9B05244F4C5E4E3D
:10A67000FFFF0F8E063C1F534C9302243D53F03FC7
:10A680000F433B4130410B120D930A247B4F7C4E0C
:10A690004B9C04244F4B4E4C0F8E033C3D53F43FD8
:10A6A0000F433B4130410D412D533E4D3F402E75F0
:10A6B000B01240A830410D4E0E4F3F402E75B012E3
:10A6C00040A830417B153182084F814E0400094D6E
:10A6D0001F411A001D411C004C4D044D841045447F
:10A6E0004E4F7EB040001124F140300000000E4F6C
:10A6F0008E105EF303247E405800023C7E407800BA
:10A70000C14E01000C412C530F3C7EF0200004246C
:10A71000F14030000000043C4C930524C14D000082
:10A720000C411C53013C0C410A4C8C108C118C10B8
:10A730008C110B4C06410C418C108C118C108C111F
:10A74000074C0A860B770E4F8E10C14E02006EF238
:10A7500002240745013C37434F4F7FB010003C2097
:10A760001D4104003D531D53CD930000FC231D816A
:10A770000400099A0228098A013C0943E1B3020056
:10A780000524099502280985013C0943054D079DCB
:10A79000012C05474F930D38F14020000600064379
:10A7A0000B430E3C0F410F566F4F8F1116538812FB
:10A7B000013C0643069AF63B0B4AF1403000060086
:10A7C000058B053C5F4106008F1188121B530F4516
:10A7D0000F5B0F99F72B0A3C06430B43073C1B53B7
:10A7E0000F410F566F4F8F1116538812069AF73B81
:10A7F000E1B3020002244A44083C1A4104000A8BD7
:10A800000D3C3F40300088127A534A93FA23444467
:10A810000B54F33F37538F1188121B530F4A0F5BB2
:10A820006F4F4F9307240793F523043C3F402000CC
:10A8300088121B530B99FA2B0F4B3152741730416E
:10A840007B153150ACFF814F3A00814D1E00814E87
:10A850004000C1432F00C1432B00C1432E00C14320
:10A860002A008143300081432000084381432C00AB
:10A870000F413F501C00814F1C000C4E1441220020
:10A880001541240016412600174128003040C6AE6D
:10A890000F4C1F53814F420008931F207E902500CC
:10A8A00014208143000081430200814C4000C143D9
:10A8B0002F00C1432B00C1432E00C1432A00814316
:10A8C00030003040BCAE81481E008E110F4E9112F8
:10A8D0003C0091532C003040A0AE7E906300CB240E
:10A8E0007E90640027347E9030009C247E9031005E
:10A8F0001A347E902A007B247E902B000A347E90AE
:10A90000230042247E902500E0277E902000322004
:10A910005A3C7E902D004D247E902E005F247E9028
:10A920002B0028204B3C7E903A0094387E905800B3
:10A930002120F83C7E906F0024247E9070000A3421
:10A940007E906900F2247E906C0022247E90640048
:10A950001120EB3C7E907300A1247E90740004349F
:10A960007E9070000720C53C7E907500E0247E90AC
:10A970007800E1241A41400019412C00098A304036
:10A980008EAEB1422200DA3CF1D200003040C0AEBF
:10A990006C415CF3694108244E497EF0FEFF6ED3A2
:10A9A000C14E00003040C0AE59D3C1490000304014
:10A9B000C0AEF1D0100000003040C0AEF1402B001E
:10A9C00002003040C0AEF1902B0002000220304067
:10A9D000C0AEF140200002003040C0AEC1932A005A
:10A9E00002243040A4AED1432E003040C0AE1C4102
:10A9F0001E002C531F411E002E4F0E930338814E14
:10AA000020000D3CC1932E0002243040B4AEF1D0A2
:10AA1000100000003EE3814E200091532000814C45
:10AA20001E00253C819320001520C1932E0012208A
:10AA30006C417CF010005E4301244E434E4E0E11DB
:10AA40000E434E106C417CF07F004CDEC14C000088
:10AA50003040C0AE1C4120005C021F4120005F0A54
:10AA60000F5C3F50D0FF8E110F5E814F2000D1430D
:10AA70002A003040C0AE18411E0028531F411E005E
:10AA80006E4FC1932E000320C1932A001C27C14E94
:10AA90000400C14305000E412E52063C18411E0021
:10AAA00028531F411E002E4FC1932E000724E1D2D0
:10AAB00001001F412000C14F0300063CC1932A0042
:10AAC00003249141200030000E9302203E40BEB28C
:10AAD00011120400111204001D4134001F413E00F8
:10AAE000B012C4A62152815F2C0081481E00304064
:10AAF000A0AE18411E0028531F411E002E4F044EC9
:10AB00005C430E9301204C431CF35C0A6E417EF0C3
:10AB1000F7FF4EDCC14E000081481E00B14010001E
:10AB20002200563CD1D30100063CE1D20000B140E6
:10AB30000A002200033CB140100022006B416BB3BD
:10AB400024241E411E003E521F411E00294F184F53
:10AB500002001D4F04001B4F060004490548064D26
:10AB6000074BD1432B0009930620089304200D9333
:10AB700002200B930224C1432B000B5B0B430B6B96
:10AB8000C14B2F00814E1E00233C5BF318411E0079
:10AB90000D2428521F411E00294F1B4F020004495B
:10ABA000054BD1432B0009930A20073C28531F4132
:10ABB0001E002B4F044BD1432B000B930224C143A7
:10ABC0002B000B5B0B430B6BC14B2F0081481E000E
:10ABD000F1B200001224C1932B000F206941B19003
:10ABE00010002200032079D04000053CB1922200E1
:10ABF000042079D02000C1490000694169B22024B5
:10AC0000C1932F001D24F1402D00020069B30924D7
:10AC100034E335E336E337E3145305630663076330
:10AC20000F3C59B309240A440B453AE33BE3044A79
:10AC3000054B14530563043C0A443AE3044A145395
:10AC4000C1431B0069B35E248144320081453C004E
:10AC50000A46084138501A0081473E00144122003C
:10AC60000B448B108B118B108B11054B064B074B34
:10AC700037151C413A001D4144000E4A1F41460051
:10AC8000B01214B031520B4C3C900A0005347B508A
:10AC90003000C84B00000C3C4B4CD1B301000324E6
:10ACA00079403700023C79405700495BC8490000B1
:10ACB0000B483B5337151C413A001D4144000E4AD6
:10ACC0001F414600B012FAAF3152814C3200814D23
:10ACD0003C000A4E814F3E0038530C93BF230D9326
:10ACE000BD230E93BB230F93B92381444C008145B0
:10ACF0004E008146500081475200044305430643FD
:10AD00000743783C4A495AF34B240A4408413850D7
:10AD10001A00814432008145340081463600814763
:10AD2000380007440645194122008910891189100D
:10AD300089111C4122000D490E470F46B01254A63E
:10AD40000B4E3E900A0005347B503000C84B00008B
:10AD50000C3C4B4ED1B3010003247A403700023C37
:10AD60007A4057004A5BC84A00000B483B531C41DD
:10AD700022000D490E470F46B01226A6074E064F79
:10AD800038530E93D0230F93CE2314413200154134
:10AD900034001641360017413800044305432A3C6D
:10ADA0000844094139501A001E4122000F48B012D0
:10ADB000A0AF0D4F3F900A0005347D503000C94DC3
:10ADC00000000C3C4D4FD1B3010003247C40370000
:10ADD000023C7C4057004C5DC94C00000B493B5382
:10ADE0001E4122000F48B01286AF084F39530F930F
:10ADF000DB230443B1900A0022000224C143020075
:10AE0000C1932E002A240F413F501C00814F440063
:10AE10001C411C008C108C118C108C11814C460034
:10AE2000814B48000C4B8C108C118C108C11814C78
:10AE30004A001C4144001D4146001C8148001D7110
:10AE40004A002C831C9120000E2CE1D301005F41AD
:10AE500020004F8CC14F0300063CC1932A000324FD
:10AE600091412000300011120400111204001D4114
:10AE700034000E4B1E531F413E00B012C4A6215297
:10AE8000815F2C000D3C7F4A8F1191123C000C4ACF
:10AE90000C591A914200F72B814A4000814C2C003A
:10AEA00008430F3C914120003000D1432E00C143A4
:10AEB0002A00043C814C1E00D1432A00814320001B
:10AEC00018431C4142006E4C4E930224304090A81F
:10AED0001F412C0031505400741730410B120B4F9E
:10AEE0006F4B4F9306241B538F11B0122E750F9387
:10AEF000F737CB93000005203F400A00B0122E75B3
:10AF0000013C3F433B4130410B120B4F3C406D4EE7
:10AF10003D40C6412E4F0F43B0125CAF3E5039301A
:10AF20000F638B4E00000F4E3B4130413C406D4E55
:10AF30003D40C6411E42781C1F427A1CB0125CAFD5
:10AF40003E5039300F63824E781C824F7A1C0F4E70
:10AF50003041824F781C82437A1C30410B120A1216
:10AF60000B430A43073C5D030C1002280A5E0B6F7B
:10AF70000E5E0F6F0C93F7230D93F5230E4A0F4BC4
:10AF80003A413B4130417C4010000D4E0E430F5F73
:10AF90000E6E0E9D02280E8D1FD31C83F8233041A8
:10AFA000B01286AF0F4E30413715301240000448C2
:10AFB0000549064A074B084309430A430B430C5C07
:10AFC0000D6D0E6E0F6F086809690A6A0B6B0B979F
:10AFD0000E2808200A960B2805200995082802202B
:10AFE00008940528088409750A760B771CD3918389
:10AFF0000000E5232153341730413B1518410A0066
:10B0000019410C001A410E001B411000B012A8AFEC
:10B01000381730413B1518410A0019410C001A41FC
:10B020000E001B411000B012A8AF0C480D490E4A8B
:10B030000F4B381730414B1518410C0019410E00C9
:10B040001A4110001B411200B012A8AF17411400A2
:10B050008748000087490200874A0400874B0600A2
:06B0600047173041001308
:10B0660048656C6C6F0062726F6164636173742013
:10B076006D6573736167652073656E740062726FC8
:10B08600616463617374206D6573736167652072B3
:10B09600656365697665642066726F6D2025642E2A
:10B0A60025643A20272573270A00001C00004272F7
:10B0B6006F616463617374206578616D706C65009F
:10B0C600F65F00004D4143647320253032783A25FF
:10B0D6003032783A253032783A253032783A25308F
:10B0E60032783A253032783A253032783A2530327D
:10B0F600780A0052696D65206164647220002575C6
:10B106002E0025750A004D414320253032783A2518
:10B116003032783A253032783A253032783A25304E
:10B1260032783A253032783A253032783A2530323C
:10B13600780A00436F6E74696B6920332E7820732A
:10B146007461727465642E20004E6F6465206964B4
:10B156002025752E0A004E6F6465206964206E6F87
:10B1660074207365742E0025732025732025732C97
:10B17600206368616E6E656C20636865636B207220
:10B1860061746520256C7520487A2C20726164698B
:10B196006F206368616E6E656C2025750A005374B6
:10B1A600617274696E6700202573000042757474BD
:10B1B6006F6E0000B2B18E633C6326634275747491
:10B1C6006F6E0000C2B11864C663B06353656E73D8
:10B1D6006F727300CE6FA06992716473E46B726BC9
:10B1E600E465EC65206B426B9265BA6DDC65E065E3
:10B1F6004343323532302064726976657200437497
:10B20600696D65722070726F63657373004576654C
:10B216006E742074696D65720053657269616C2085
:10B22600647269766572000052696D6500002EB21F
:10B23600A68470844A854885CA88BA881A10000090
:10B2460054696D6573796E63682070726F63657398
:10B256007300768A00000000000043534D41000051
:10B2660060B23A90C28E7C8E828E888E8E8E436FAE
:10B276006E74696B694D4143000074B21E92449826
:10B2860090970E95AE928E921A926E756C6C73654F
:10B29600630090B2709874987E9882988898349ECD
:10B2A600BC9F569D0080C0E0F0F8FCFEFF0090A217
:10B2B60088A206A6EAA00208286E756C6C29000012
:10B2C6000000B4B0645F00000000BAB1CAB100006B
:10B2D600E22DABCD0000D2B13A64000000000000C0
:10B2E600F6B1F46C00000000000004B2287A0000F9
:10B2F6000000000013B2667C0000000000001FB2D0
:10B30600D88100000000000046B23289000000002B
:10B31600BE001000921EA21E02001000822A922A6F
:10B3260020000200702B722B06001000B22BC22BDD
:0CB3360006001000222C322C0100000048
:10FF8000FFFFFFFFFFFFFFFFFFFFFFFFFFFFFFFF81
:10FF9000FFFFFFFFFFFFFFFFFFFFFFFFFFFFFFFF71
:10FFA000FFFFFFFFFFFFFFFFFFFFFFFFFFFFFFFF61
:10FFB000FFFFFFFFFFFFFFFFFFFFFFFFFFFFFFFF51
:10FFC000605F605F605F605F605F605F605F605F39
:10FFD000605F605F9E9A605F605F605F4E620E74FC
:10FFE0003E75EE78605F605F605F605F605F605F7E
:10FFF000605F605F7861AC74605F605F605F005CF1
:0400000300005C009D
:00000001FF
