:105C000055425C0135D0085A8245A8333140005CCA
:105C10003F408C000F9308249242A8335C012F83ED
:105C20009F4FE2C5001CF8233F401C170F93072429
:105C30009242A8335C011F83CF438C1CF92331822D
:105C4000B012BC61B0126077B012EA786F42B01245
:105C500000793E4021000F43B012E8625F43B0126A
:105C60000079B0127EAA5F428A337FF0FEFFC24FF6
:105C70008A335E428F330E125E428E330E125E42C4
:105C80008D330E125E428C330E125E428B330E1237
:105C90004F4F0F125F4289330F125F4288330F124A
:105CA0003012C4C3B01280B931501200B012E48176
:105CB0006F42B0120079B012A463A243521D5F423A
:105CC00088332F53B012B884B0125C800E433F402B
:105CD000321CB0128C81B012AC7BB01206612D4325
:105CE0000E430F41B01224611F42521D0F93072033
:105CF000D1428F330000D1428E330100053CC14FA9
:105D000000008F10C14F01000F41B01216A03012D9
:105D1000F3C3B01280B95F410200814F000030121E
:105D2000FEC3B01280B921525F4101000F12301240
:105D300002C4B01280B92152B012B6705A428633F2
:105D40008A105F4287330A5F3D420E430F41B01213
:105D500024613E4086330F41B012FC9F5F41070033
:105D60000F125F4108000F125F4109000F125F41DF
:105D70000A000F125F410B000F125F410C000F125F
:105D80005F410D000F125F410E000F12301206C46A
:105D9000B01280B9315012000D410E4A3F40CDABD8
:105DA000B012E26E301233C4B01280B921537F407A
:105DB0000700B0120A791F42521D0F9307240F12D9
:105DC000301249C4B01280B92152043C3F4056C43D
:105DD000B012B6C192129EC5921284C5921230C5FD
:105DE0001A42AAC58A120F9309248A120C4F0D4336
:105DF0003E4080000F43B012ECB8033C3E408000B0
:105E00000F4330120B001F1512129CC5121282C5CF
:105E10001212B4C5301267C4B01280B931500E00EE
:105E20003F405C83B012CA62B012A683B0129E9744
:105E30005E4286335E0E0F4E3F501000B0122A971E
:105E4000B012627AB012C879824FF832D243EC3283
:105E500030129EC4B01280B921533A40A8C3083C06
:105E60001F1202003012A7C4B01280B921522A5367
:105E70002F4A0F93F5233F400A00B01216763F4099
:105E8000A8C3B012387AB0126662B0128C62B01237
:105E90007A62B01278800F930124F937B0125262FF
:105EA0000A4FB0121C810F930420B012BC624F93B2
:105EB000022402DAEC3FC293EC3214241A42BA32C2
:105EC0001B42BC32B012C879084F1882F83209431D
:105ED0000E480F490E5A0F6B824EBA32824FBC32B7
:105EE000C243EC32B012C879824FFA32D243ED325B
:105EF0001D42441D1E42461D2F43B012CC7AB012E3
:105F00008C6232D0D80032C203432F43B0128A7A57
:105F1000824E441D824F461D32D2B0126662C29339
:105F2000ED3214241A42BE321B42C032B012C8797C
:105F3000064F1682FA3207430E460F470E5A0F6B72
:105F4000824EBE32824FC032C243ED32B012C879A7
:105F5000824FF832D243EC329A3F32D0F000FD3F0C
:105F600030403EC31B150B4F2F4F3F90560024244B
:105F70003F90600056240F939F203C40C2C35D4376
:105F80003E4082003F408C1CB0127A93929386333D
:105F900009203F4040C3B012B6C11E433F408C1C95
:105FA000B01286943D40003C0E433F402A1DB01283
:105FB0004E7EBB40560000003F402A1DB012BC7E02
:105FC0000F937F243F40361DB012BC7E0F932424D4
:105FD0003D40000F0E433F40361DB0124E7EB012C2
:105FE000BE84021232C20343824FC004B240898889
:105FF000C8041E42CA041E42CC0432418E104E4ECA
:106000005E0B8E100C4E5C0E0C8E0D4F0D8C0E43E5
:106010003F402A1DB0124E7EBB40600000005F432F
:10602000513C3F402A1DB012BC7E0F93CB273F400E
:106030004AC3B012B6C1B012689FB012D89E3E409B
:1060400052C3B0126CB93F400600B012D29E3E401F
:106050000F003F408C1CB012EA943F408C1CB012E1
:10606000CE950A4F3E40421DB01204A00F93AA23C2
:106070003E407AC53F40421DB01204A00F93082055
:106080005F42421D0F12301258C3B01280B9215224
:106090003E407AC50F4AB01204A00F9307206F4A02
:1060A0000F12301261C3B01280B921520E4A3F4024
:1060B000421DB012FC9F863F8B4300007F400300CF
:1060C000013C4F431A1730413B150B4F4A4E494D87
:1060D000B012D89E084FB012F09E08120F124D4910
:1060E0000D124E4A0E125F4B01000F126F4B0F1232
:1060F00030126AC3B01280B931500E0038173041E7
:10610000B012B6C130410E433F40141CB0128C8116
:1061100030410C4F043CFC4E00001C533D530D938A
:10612000FA2330410C4F043CCC4E00001C533D532D
:106130000D93FA23304130411E42481D1F424A1D33
:106140003041824E481D824F4A1D32C2034332D035
:10615000400082436001B240500062018E108F10F7
:106160004EEF0EEF4F4F7D40070012C30F100E1081
:106170007D53FB233E50FF0F824E640132C040002E
:10618000B2F0F0FF6E01B2F0FDFF02013F40040DDE
:106190001F83FE2303430343A2B30201F123924270
:1061A0006601660192426801680132D230413E4088
:1061B00060823F403B00B0124261304132C2034333
:1061C000B012A262C2430A02C2430B02C2432A02B5
:1061D000C2432B02C2434A02C2434B02C2430402DF
:1061E000C2430202F24040000502C2430302F240F1
:1061F00040000B02C2432402C2432202C2432502D2
:10620000C2432302C2434402C2434202C243450284
:10621000C2434302C2436402C2436202F2D003009B
:106220006A02C2436502C2436302C2431A02C24306
:106230001B028243481DB24010004A1DB012AE61DD
:1062400032D21F42101C1FB303241F53824F101C55
:1062500030410F4232C23FF2304102DF3041304123
:1062600082435C0100131F424C1D3F53824F4C1D63
:106270000320B2403C5A5C0130411F425C013FF0B8
:10628000FF003FD0185A824F5C0130411F424C1D25
:106290001F53824F4C1D1F930320B240805A5C0154
:1062A000304182434C1DB0128C62B2F0FEFF0201FD
:1062B00092D30001304182435C0130415F428A0643
:1062C0005E424E1D5FF34FDE3041824F501D304124
:1062D0000B124B4FB0127A625F428A061FF3FC2307
:1062E000C24B8E063B413041D2D38006F2D080FFB4
:1062F0008006C24E86068E108F104EEF0EEFC24EF5
:106300008706F24006008806F2F0DFFF8502F2D031
:1063100010008502F2D030008B02C2434E1DF2F015
:10632000FEFF9C06F2F0FDFF9C06F2F0FEFF8006E9
:10633000D2D39C0630415F15B012C879824FFC322F
:10634000D243EE321F429E062F9313205F428A06ED
:106350002FF203245F428C060C3C5F428C061E42E7
:10636000501D0E9306248E120F930324B1C0F0002B
:106370000C00C293EE3214241A42C2321B42C432C1
:10638000B012C8790C4F1C82FC320D430E4C0F4DDD
:106390000E5A0F6B824EC232824FC432C243EE326B
:1063A0005A17001321822D423E4080190F41B0122E
:1063B0001261D192121C00000420D192131C010022
:1063C0000524E1430200F140030003005F410200A5
:1063D0008F105E4103000FDE824F521D215230416B
:1063E0000B120B4FB01282AB3F408019B012A8AB1A
:1063F0003E40CDAB3F408019B012F6AB0E4B3F4054
:106400008419B012F6ABB0129AAB3B4130413F5009
:106410007FFF2F93052C5F421B023FF0400030416D
:106420000F4330413F90810022200E931824B01278
:106430000E640F931E200D430E433F409033B01265
:106440003482F2D040001902F2F0BFFF0B02F2F0EA
:10645000BFFF05025F421B027FD04000043C5F4249
:106460001B027FF0BFFFC24F1B021F4330410F438F
:1064700030411F4330415F4201023FF0400009209C
:106480003F409033B01272821E430F9303240E4399
:10649000013C1E430F4E30413F507FFF2F93052C90
:1064A0005F421B023FF0800030410F4330413F907C
:1064B000810022200E931824B01298640F931E209E
:1064C0000D430E433F409833B0123482F2D080FF28
:1064D0001902F2F07F000B02F2F07F0005025F422A
:1064E0001B027FD080FF043C5F421B027FF07F00D5
:1064F000C24F1B021F4330410F4330411F43304105
:106500005F4201023FF0800009203F409833B01203
:1065100072821E430F9303240E43013C1E430F4E11
:1065200030410B120B4F2F4F3F90770023243F90A9
:106530007E0036240F934C20B0124480C24FA53207
:106540008243561D093CCF43A2320E433F40800098
:106550009D1204009253561D1F42561D0E4F5E029F
:106560001D4E0A1C0D93EF23C24F541DBB407700F4
:106570000000333C8243581D8243561D1F3CCF937D
:10658000A2321A345F021D4F0A1C5E42A5320F432D
:10659000B0122A810F930720BB407E0000001D3CF3
:1065A0005E92A5321A201F42561D3F50A232FFF0C4
:1065B0007F0000009253581D9253561D1F42561DD6
:1065C0005E42541D0F9EDB3B8293581DD323CE3F6A
:1065D0008B4300007F400300013C5F433B4130415F
:1065E0001F420A1C30410B125B42541D3E400A1CE4
:1065F0000D43053C2E538E9FFEFF05240D4C0C4D84
:106600001C530D9BF73B0F4C5F021F4F0A1C3B4175
:1066100030415C42541D3D400A1C0E43053C2D5345
:106620008D9FFEFF03241E530E9CF93BFED080FF7E
:10663000A2323F40141CB012BE8130414B15094FAD
:106640000D4F3D531D53CD930000FC23074D07898B
:1066500038400A1C0A43093C3B480D472E4B0F4962
:10666000B01224B90F9306241A535F42541D0A9F97
:10667000F33B0B430F4B471730410E931F241F93DF
:10668000102407283F900A0010243F900B00182088
:10669000103C1F43C2935C1D01200F438E4F00002E
:1066A0000B3C9E42601D0000073CBE400B000000FA
:1066B000033CBE401A0000000F4330412F433041DD
:1066C0001F4330411F4330411F4330415F420102AD
:1066D0001FF330415E4200023EF040001F430120A4
:1066E0000F4330410B12F2F0FEFFE0053F40050082
:1066F000B0128877F2F0EFFF22023F400500B0129F
:1067000088775F42FD052FF3FC27C243EE055F4209
:10671000EA051FF3FC235B42EC053F400500B01285
:106720008877D2D3E0051F43B0128877F2D01000EB
:1067300022023F400500B01288774F4B3B41304169
:106740000B124B4FF2F0FEFFE0053F400500B01288
:106750008877F2F0EFFF22023F400500B012887701
:106760005F42FD052FF3FC27C24BEE055F42EA05B1
:106770001FF3FC233F400500B0128877D2D3E00519
:106780001F43B0128877F2D0100022023F4005006C
:10679000B01288773B4130410B12F2D040001A0210
:1067A0007F404200B0124067B012C8793B40B9FE4A
:1067B0000B8FB012E4663FF080000520B012C8795C
:1067C0000F5B0F93F63BB012C879824F0633D2436A
:1067D000F332D2435C1D3B413041F2F0FEFFE00555
:1067E0003F400500B0128877F2F0EFFF22023F40F1
:1067F0000500B01288775F42FD052FF3FC27F240B9
:106800003000EE055F42EA051FF3FC235F42EC0512
:10681000C243EE055F42FD051FF3FC275F42EC0516
:106820001F43B01288773F400500B0128877D2D35B
:10683000E0051F43B0128877F2D0100022023F40DB
:106840000500B0128877F2F0FEFFE0053F4005003A
:10685000B0128877F2F0EFFF22023F400500B0123D
:1068600088775F42FD052FF3FC27F2404700EE05D5
:106870005F42EA051FF3FC233F400500B012887712
:10688000D2D3E0051F43B0128877F2D01000220265
:106890003F400500B0128877F2F0FEFFE0053F4070
:1068A0000500B0128877F2F0EFFF22023F400500AA
:1068B000B01288775F42FD052FF3FC27F2404700B6
:1068C000EE055F42EA051FF3FC233F400500B012CE
:1068D0008877D2D3E0051F43B0128877F2D010003A
:1068E00022023F400500B012887730411B15C24399
:1068F0005C1DB012C8793A4034F30A8FB012E466D6
:106900002FF30524B012C8790F5A0F93F73BC293A7
:10691000F33214241A42D6321B42D832B012C8794C
:106920000C4F1C8206330D430E4C0F4D0E5A0F6B4D
:10693000824ED632824FD832C243F3327F40450076
:10694000B0124067F2F0BFFF1A025F4200023FF050
:1069500040000220B012DA671A173041D2935D1D51
:106960000E20C2935F1D0424B0129867C2435F1DBE
:10697000C2935E1D0424B012EC68C2435E1DF25344
:106980005D1D30411B150B4F0A4EF2F0FEFFE00576
:106990003F400500B0128877F2F0EFFF22023F403F
:1069A0000500B01288775F42FD052FF3FC27F24007
:1069B0003000EE055F42EA051FF3FC235F42EC0561
:1069C0004C430D3CC243EE055F42FD051FF3FC271F
:1069D0005F42EC054D4C0D5BCD4F00005C534D4CC0
:1069E0000D9AF03B1F43B01288773F400500B0126C
:1069F0008877D2D3E0051F43B0128877F2D0100019
:106A000022023F400500B01288771A1730411B154B
:106A10000B4F4A4EF2F0FEFFE0053F400500B0127A
:106A20008877F2F0EFFF22023F400500B01288772E
:106A30005F42FD052FF3FC270F4B8F107FD0200006
:106A4000C24FEE055F42FD052FF3FC27C24BEE055A
:106A50005F42FD052FF3FC27C24AEE055F42EA05BF
:106A60001FF3FC233F400500B0128877D2D3E00526
:106A70001F43B0128877F2D0100022023F40050079
:106A8000B01288771A1730412B150A4F0B4ED2538C
:106A90005D1D7F404800B0124067494B6953F2F0DA
:106AA000FEFFE0053F400500B0128877F2F0EFFFEF
:106AB00022023F400500B01288775F42FD052FF3A8
:106AC000FC27F2403A00EE055F42FD052FF3FC275C
:106AD000C249EE055F42FD052FF3FC275F42EA0540
:106AE0001FF3FC233F400500B0128877D2D3E005A6
:106AF0001F43B0128877F2D0100022023F400500F9
:106B0000B0128877F2F0FEFFE0053F400500B012BA
:106B10008877F2F0EFFF22023F400500B01288773D
:106B20005F42FD052FF3FC27F2403A00EE054D438E
:106B30000C3C5F42FD052FF3FC270C5AE24CEE059E
:106B40005F42FD052FF3FC275D534C4D0C9BF12B51
:106B50005F42EA051FF3FC233F400500B01288772F
:106B6000D2D3E0051F43B0128877F2D01000220282
:106B70003F400500B0128877B0125C690F432917B7
:106B800030410B120B4FF2F0FEFFE0053F400500D5
:106B9000B0128877F2F0EFFF22023F400500B012FA
:106BA00088775F42FD052FF3FC270F4B8F107FD0B6
:106BB0001000C24FEE055F42EA051FF3FC235F425F
:106BC000FD052FF3FC27C24BEE055F42EA051FF3DC
:106BD000FC23C243EE055F42FD051FF3FC275B4229
:106BE000EC053F400500B0128877D2D3E0051F4383
:106BF000B0128877F2D0100022023F400500B01298
:106C000088774F4B3B413041C2935C1D0C20C293AF
:106C10005D1D0324D2435F1D063CD2435D1DB012AF
:106C20009867B0125C691F433041C2935C1D132406
:106C3000C2935D1D0324D2435E1D0D3CD2435D1DF6
:106C4000B012E4662FF30324D2435E1D023CB0125F
:106C5000EC68B0125C691F4330411B15C2935D1D87
:106C60003120D2435D1DC2935C1D0420B012086C1C
:106C70001A43013C0A43C2935C1D0720B0125C69B1
:106C80000A932024B0122A6C1D3CB012C8793B40F4
:106C9000B9FE0B8FB012E4663FF040000520B01241
:106CA000C8790F5B0F93F63B5F4200028F110F5FB5
:106CB0000F430F6F0B4F0A930224B0122A6CB012CD
:106CC0005C69013C1B430F4B1A1730412B15218384
:106CD0000A4F094E5F4200023FF040007B24D2532E
:106CE0005D1D9253B032F2F0FEFFE0053F4005001B
:106CF000B0128877F2F0EFFF22023F400500B01299
:106D000088775F42FD052FF3FC27F2403000EE0547
:106D10005F42EA051FF3FC235F42EC05C243EE0528
:106D20005F42FD051FF3FC275B42EC051F43B012D9
:106D300088773F400500B0128877D2D3E0051F4323
:106D4000B0128877F2D0100022023F400500B01246
:106D500088774B9307387B90030004284E4B2E8393
:106D6000099E052CB012DA67B0125C69333C0F4AF9
:106D7000B01284692E430F41B01284695E41010054
:106D80004E9311346D41C24DB2327EF07F00C24E3F
:106D9000B8323F405A33C24D5A33AF11C24E583306
:106DA000CF43FFFF013C6B435F4200023FF04000D6
:106DB0000C245F4200023FF020000320B012DA678B
:106DC000043C3F401E1CB012BE81B0125C694F4BA8
:106DD0002F83013C0F432153291730410B120B4FD6
:106DE0002F4F0F9304243F90A9021820043CBB406E
:106DF000A9020000183C7E9082FF1520B012689F07
:106E000092425A1D5C33B012D89E3E408000B012B0
:106E1000CC6CB012D29E9212A4C5E93F8B43000005
:106E20007F400300013C5F433B4130411F42601DF6
:106E300030411B15D2535D1D824F601D0B4F5B0609
:106E40000B5F3B50D4FFB012C8793A4034F30A8F3D
:106E5000B012E4663FF080000520B012C8790F5AE6
:106E60000F93F63BB012C8793A4034F30A8FB01250
:106E7000E4662FF30524B012C8790F5A0F93F73B3D
:106E80004E4B3F402E00B0120E6AC2935C1D04248C
:106E90007F404200B0124067B0125C691F431A176E
:106EA00030410F9303241F9318200C3C1E930320A2
:106EB000B012086C103C0E930320B0122A6C0B3CED
:106EC0002F4330410F4E3F50F5FF3F901000072CED
:106ED0000F4EB012326E0F4330411F4330412F43EB
:106EE00030413B153150F6FF094F0A4E084DD25341
:106EF0005D1DB012C8793B4034F30B8FB012E466CD
:106F00003FF080000520B012C8790F5B0F93F63B6D
:106F1000C14900008910C1490100F2F0FEFFE005FF
:106F20003F400500B0128877F2F0EFFF22023F40A9
:106F30000500B01288775F42FD052FF3FC27F24071
:106F40002300EE055F42FD052FF3FC27F240F2FF20
:106F5000EE050F435E42FD052EF3FC270E410E5F4A
:106F6000E24EEE051F532F93F5235F42EA051FF310
:106F7000FC233F400500B0128877D2D3E0051F43C1
:106F8000B0128877F2D0100022023F400500B01204
:106F90008877C14A00008A10C14A0100F2F0FEFF62
:106FA000E0053F400500B0128877F2F0EFFF2202C3
:106FB0003F400500B01288775F42FD052FF3FC27A4
:106FC000F2402300EE055F42FD052FF3FC27F2405F
:106FD000F4FFEE050F435E42FD052EF3FC270E4144
:106FE0000E5FE24EEE051F532F93F5235F42EA0535
:106FF0001FF3FC233F400500B0128877D2D3E00591
:107000001F43B0128877F2D0100022023F400500E3
:10701000B0128877089349240E413E5009000F436F
:107020000D480D5FEE4D00001F533E533F92F82375
:10703000F2F0FEFFE0053F400500B0128877F2F065
:10704000EFFF22023F400500B01288775F42FD0546
:107050002FF3FC27F2402300EE055F42FD052FF3DE
:10706000FC27F240EAFFEE050F435E42FD052EF3DA
:10707000FC272E430E510E5FE24EEE051F533F924A
:10708000F4235F42EA051FF3FC233F400500B012E2
:107090008877D2D3E0051F43B0128877F2D0100072
:1070A00022023F400500B0128877B0125C6931506F
:1070B0000A00381730410B12B01252620B4FB01257
:1070C0004475F2F0BFFF1A02F2F0BFFF1802F2F0AF
:1070D000BFFF1C0202DBF2F0F7FF83023F40FA0021
:1070E000B0128877F2D283023F40FA00B01288775C
:1070F000F2F0FBFF83023F407F00B0128877E2D2BC
:1071000083023F407D00B01288777F404000B0127C
:1071100040673F407D00B0128877B012C8793B408D
:10712000B9FE0B8FB012E4663FF080000520B0126C
:10713000C8790F5B0F93F63B7E4094FF3F403100D0
:10714000B0120E6A7E4013003F403000B0120E6A4B
:107150007E40F8FF3F403600B0120E6A7E4085FF49
:107160003F404600B0120E6A7E4014003F40470088
:10717000B0120E6A7E403F003F404A00B0120E6AD5
:107180007E405A003F404C00B0120E6A7E402B00F9
:107190003F404F00B0120E6A7E4011003F40530046
:1071A000B0120E6A7E40EBFF3F405400B0120E6AF0
:1071B0004E433F404400B0120E6A7E4010003F40F4
:1071C0005600B0120E6A7E400E003F405700B012CB
:1071D0000E6A7E4003003F405800B0120E6A7E40A7
:1071E00060003F400C00B0120E6A7E400D000F435D
:1071F000B0120E6A5E433F400D00B0120E6A7E4030
:107200007F003F403400B0120E6A0D430E433F43EF
:10721000B012E26E3F400B00B012326EB012DA676D
:107220000E433F401E1CB0128C811F433B41304136
:10723000F2F0BFFF1C023F401E1CB012BE81924202
:10724000A8325A1D9253AE321F433041D2535D1DB6
:107250004E4F3F403000B0120E6AB0125C693041B0
:107260000B12D2535D1D3F403000B012826B4B4F6A
:10727000B0125C694F4B3B4130412B1521830B4FC2
:10728000D2535D1D82935E330B24B0126072094F9E
:107290005E425E337E533F403000B0120E6A013CC6
:1072A00009437F404200B0124067B012C8793A40AB
:1072B00034F30A8FB012E4663FF040000520B012AC
:1072C000C8790F5A0F93F63B7F404400B0124067D5
:1072D0003E4020035F4201021FF3A8249142A832DE
:1072E0000000A2926C334120F2F0FEFFE0053F4027
:1072F0000500B0128877F2F0EFFF22023F40050050
:10730000B01288775F42FD052FF3FC270E4B3E50ED
:10731000FF008E107ED02000C24EEE055F42FD05BC
:107320002FF3FC277B53C24BEE050F435E42FD0556
:107330002EF3FC270E410E5FE24EEE051F532F93F6
:10734000F5235F42EA051FF3FC233F400500B0121E
:107350008877D2D3E0051F43B0128877F2D01000AF
:1073600022023F400500B0128877B012E4662FF386
:107370006724C2935C1D1724C293F33214241A426B
:10738000D6321B42D832B012C8790C4F1C82063359
:107390000D430E4C0F4D0E5A0F6B824ED632824F5C
:1073A000D832C243F332B012C879824F0433D24389
:1073B000F232B012C8793A4034F30A8FB012E46660
:1073C0002FF30524B012C8790F5A0F93F73BC293DD
:1073D000F23214241A42D2321B42D432B012C8798B
:1073E0000C4F1C8204330D430E4C0F4D0E5A0F6B85
:1073F000824ED232824FD432C243F232C2935C1DEB
:107400000724B012C879824F0633D243F332023CCC
:10741000B012EC6882935E3305244E493F40300041
:10742000B0120E6AB0125C690F430D3C3E535223FA
:1074300082935E3305244E493F403000B0120E6AFD
:10744000B0125C692F432153291730410B120B4EA8
:10745000B012886A0F4BB0127A723B4130411B1553
:10746000C2935D1D2620D2435D1DC2935C1D042086
:10747000B012086C1A43013C0A43B012C8793B4071
:10748000B9FE0B8FB012E4663FF040000520B01249
:10749000C8790F5B0F93F63B3F403800B012826B08
:1074A0004B4F8B110A930224B0122A6CB0125C6904
:1074B000013C0B430F4B1A1730410B12C2935D1D59
:1074C0000C20D2435D1DB012E4663FF040001B4328
:1074D00001200B43B0125C69013C1B430F4B3B4145
:1074E0003041D2535D1D4E4F3F403600B0120E6A00
:1074F000B0125C6930415F15B012C879824FFC321E
:10750000D243EE32B01230720F930324B1C0F000B8
:107510000C00C293EE3214241A42C2321B42C4320F
:10752000B012C8790C4F1C82FC320D430E4C0F4D2B
:107530000E5A0F6B824EC232824FC432C243EE32B9
:107540005A170013B0120CADF2D010002402F2D280
:107550008502E2D28502F2F0BFFF0402F2F0DFFF03
:107560000402F2F07F000402F2F0FEFF0502B01206
:10757000F0753F400500B0128877D2D3E0051F4375
:10758000B0128877F2D0100022023F400500B012FE
:10759000887730415F15B012C879824FFC32D243F0
:1075A000EE321F42EE035F4201021FF30624D25364
:1075B000A6329242D403A832053CC243A63292427C
:1075C000D403AA321A42C2321B42C432B012C87962
:1075D0000C4F1C82FC320D430E4C0F4D0E5A0F6B9C
:1075E000824EC232824FC432C243EE325A17001367
:1075F000D2430B02B2400401C003B24000C9C4032D
:10760000B2D01000C403B2D02000C003B012C879B9
:10761000824FD00330410B120B4F4F4FB012D0624C
:107620000F4B3B4130415F15B012C879824FFC329D
:10763000D243EE321F42AE032F935820B2B0200047
:10764000800306241F4294031F8290031F93F62792
:107650001F4290031E4290030F9EFA232A3CB25011
:10766000000194031E42641D1F42661D1E530F63DA
:10767000824E641D824F661D1E42641D1F42661DA0
:107680003EF07F000FF30E930E200F930C201E424E
:10769000681D1F426A1D1E530F63824E681D824F74
:1076A0006A1DB012D87A1F4290031E4290030F9EAB
:1076B000FA23824F621D1F42621D1F8294030F93A3
:1076C000CE37B012E67E0F931124B012F27E1C4228
:1076D000641D1D42661D3CE33DE30C5E0D6F0D9382
:1076E0000534B012447DB1C0F0000C00C293EE32FC
:1076F00014241A42C2321B42C432B012C8790C4F51
:107700001C82FC320D430E4C0F4D0E5A0F6B824EF5
:10771000C232824FC432C243EE325A1700131E42A5
:10772000641D1F42661D1C42641D1D42661D0E9C89
:10773000F6230F9DF4233041824C90033C5000010E
:10774000824C9403824E641D824F661D30413F403F
:10775000000130411E42621D1F4290030F8E3041D6
:1077600032C20343B24004018003B24010008403DC
:10777000B24000019403B2D0200080038243641D14
:107780008243661D32D23041023C03433F530F9384
:10779000FC2330413B15084E094FB0121E770A4EAC
:1077A0000B4FB0121E770C4E0D4F0C8A0D7B0D99AE
:1077B000F82B02200C98F52B381730411B150A4E78
:1077C0000B4FB0125262824A681D824B6A1D02DF63
:1077D0001A1730411E42681D1F426A1D1C42681D57
:1077E0001D426A1D0E9CF6230F9DF42330411F425B
:1077F00090031E4290030F9EFA2330412B15494FF0
:1078000059E26C1DC24F6C1D494919B320241FF366
:107810000724B012C879824FFE32D243EF32173CB0
:10782000C293EF3214241A42C6321B42C832B0123D
:10783000C8790C4F1C82FE320D430E4C0F4D0E5A70
:107840000F6B824EC632824FC832C243EF3229B329
:1078500022245F426C1D2FF30724B012C879824F97
:107860000033D243F032173CC293F03214241A4250
:10787000CA321B42CC32B012C8790C4F1C82003382
:107880000D430E4C0F4D0E5A0F6B824ECA32824F73
:10789000CC32C243F03229F222245F426C1D2FF217
:1078A0000724B012C879824F0233D243F132173C19
:1078B000C293F13214241A42CE321B42D032B0129B
:1078C000C8790C4F1C8202330D430E4C0F4D0E5ADB
:1078D0000F6B824ECE32824FD032C243F1325F42C2
:1078E0006C1DB012807929173041B0124279C24321
:1078F0006C1D3041B01250793041B012FC773041EC
:107900005FD26C1DB012FC7730415E426C1D4ECFD1
:107910004F4EB012FC7730415FE26C1DB012FC7725
:1079200030410B125B426C1D7BE34F4BB012187958
:107930003F409001B01288774F4BB01218793B410D
:107940003041F2D070006502F2D070006302304125
:107950005E4263024E4E3EB0100002244D43013C95
:107960006D420C4E3CF020005F4301244F434FDD3D
:107970003EF0400002244E43013C6E434FDE304156
:107980005E4263027EF08FFF4F4F2FB202244D43C1
:10799000023C7D4010004EDD1FB302244D43023CEB
:1079A0007D4020004DDE2FF302244F43023C7F40F8
:1079B00040004FDDC24F6302304132C20343B24048
:1079C0001000820332D230411F4290031E429003C6
:1079D0000F9EFA2330415F15B012C879824FFC32F6
:1079E000D243EE32B0126662B0120E82B0121C8127
:1079F0000F9304240338B1C0F0000C00B0128C6265
:107A0000C293EE3214241A42C2321B42C432B01264
:107A1000C8790C4F1C82FC320D430E4C0F4D0E5A90
:107A20000F6B824EC232824FC432C243EE325A17BB
:107A30000013824F920330410B120B4F033C0E4355
:107A4000B0128C813F4B0F93FA233B4130410B1214
:107A50000B4F023CB01252803F4B0F93FB233B4134
:107A600030413D40F8323E40BA320F438D43000072
:107A70008E4300008E430200CF43EC321F532D5340
:107A80002E523F900C00F22330411B150B4FCF9329
:107A9000EC321224B012C8790A4F0C4B5C060D4B25
:107AA0005D023D50F8320E4A2E8D0F438C5EBA3285
:107AB0008C6FBC328D4A00005B061E4BBA321F4BE6
:107AC000BC321A1730410E430F4330415F068F4DD1
:107AD000BA328F4EBC3230414B153A40BA323B403D
:107AE000F8320743C793EC320B24B012C879084F21
:107AF000288B09438A5800008A6902008B4F0000D6
:107B000017532A522B5337900C00EC234717304160
:107B10002B150A4F094D2F4F0F9304243F904A0015
:107B20003D20173C3F40701DB012C8830B4F093CED
:107B30001D4B06001E4B08000F4B2F53B0124E7EFC
:107B40002B4B0B93F523D2436E1DBA404A00000025
:107B50002A3C7E9088FF27203F40701DB012C883CA
:107B60000B4F193C0F4B2F53099F14200E4B3F40D6
:107B7000701DB01216841942781D924B0E00781DAC
:107B80001E4B10000E9303241F4B12008E128249CD
:107B9000781DDB3F2B4B0B93E523D73F8A43000037
:107BA0007F400300013C5F4329173041C2436E1DF3
:107BB0003F40701DB012C2830E433F40281CB012DC
:107BC0008C8130410B1219150B4F084D094E9F4106
:107BD0000A000E008F4C10009F4108001200C29353
:107BE0006E1D0B241842781DB240281C781D2F539F
:107BF000B0124E7E8248781D043C8B4D06008B4EA1
:107C000008000E4B3F40701DB012608418173B41B6
:107C100030411212781D11120600B012C47B21529D
:107C200030411B150B4FC2936E1D0A241A42781D5A
:107C3000B240281C781D2F53B0127E7E824A781DD8
:107C40000E4B3F40701DB01260841A1730411B1557
:107C50000B4FC2936E1D0A241A42781DB240281C95
:107C6000781D2F53B012907E824A781D0E4B3F40F4
:107C7000701DB01260841A1730410B120B4FC29363
:107C80006E1D04242F53B012087F043C8F430A005A
:107C90008F430C000E4B3F40701DB01216843B41C9
:107CA00030410B120B4FC2936E1D04242F53B012A0
:107CB000BC7E0E3C3F40701DB012C8830E4F033C8B
:107CC0000E9B05242E4E0E93FB231F43013C0F43B6
:107CD0003B4130412B158293721D05208243741D58
:107CE0008243761D2D3CB0121E771A42721D1C4A2B
:107CF00004001D4A06002C5A1D6A02000C8E0D7FDE
:107D0000194A0800133C1A4904001B4906002A5965
:107D10001B6902000A8E0B7F0B9D04280D9B042813
:107D20000A9C022C0C4A0D4B194908000993EB23BD
:107D30000A4C0B4D0A5E0B6F824A741D824B761DF6
:107D4000291730413F40321CB012BE8130412B1503
:107D50000A4F2F4F0F9304243F9059005220073CA5
:107D60008243721DBA40590000005F434E3C7E9032
:107D700087FF1A201E42721D023C1E4E08000E9301
:107D8000EF278E9D0A00F927824E721D083C8C9DBC
:107D90000A0004209E4C080008000C4E0E4C1C4E9D
:107DA00008000C93F423DE3F7E9082FFDB231B420E
:107DB000721D0943233C0F4BB01272820F931B2498
:107DC0000D4B7E4088FF1F4B0A00B0122A810F9393
:107DD00010208B430A0009930424994B08000800E3
:107DE000033C924B0800721D8B430800B012D47CF8
:107DF000DE3FB012447D094B1B4B08000B93DB2385
:107E0000B13F8A4300007F400300291730410B1225
:107E10000B4FB012447D8B930A000D241F42721D3C
:107E2000083C0F9B04209F42781D0A000C3C1F4F0A
:107E300008000F93F6239B42781D0A009B42721D97
:107E40000800824B721DB012D47C3B4130410B12B2
:107E50000B4FB01234820F4BB0120E7E3B413041BB
:107E60002B15094F0A4D0B4EB0125082894A04005F
:107E7000894B06000F49B0120E7E291730410B12B4
:107E80000B4FB01250820F4BB0120E7E3B4130416F
:107E90000B120B4FB0125E820F4BB0120E7E3B41A5
:107EA00030410C4E8E108E118E108E110D4E8F5C47
:107EB00000008F6D0200B012D47C30411E438F93BE
:107EC0000A0001240E430F4E30411C4F04001D4F89
:107ED00006002C5F1D6F02000E4C0F4D30412E4FDF
:107EE0001F4F020030411F438293721D01200F4338
:107EF00030418293721D05241E42741D1F42761D5F
:107F000030410E430F4330410B120B4F1F42721D85
:107F10000B9F0520924B0800721D113C0F4E0F93D2
:107F200005241E4F08000E9BF923063C8B430800D6
:107F30008B430A003B4130419F4B08000800B012C0
:107F4000D47CF43F1B150B4F4A4E5F4F08001FF3C4
:107F50001A241C4B04000C931624824B781DEB430F
:107F600008000F4B3F5006008C128F112F832F9368
:107F700003287A9083FF05200E4B0F4BB0128A7FA7
:107F8000023CDB4308001A1730413B150B4F084EEB
:107F90001942781D1A427A1D0F4A013C2F4F0F9B40
:107FA00003240F93FB23343C0B933224CB93080020
:107FB0001D24CB430800093C0B9A06240D4B7E4040
:107FC00087FF0F4AB012447F2A4A0A93F5231C4BBD
:107FD00004000C930B240B980924824B781D0D434D
:107FE0007E4083FF0F4B3F5006008C121F427A1DCC
:107FF0000B9F0A20A24B7A1D093C2E4F0E9B03209B
:10800000AF4B0000033C0F4E0F93F7238249781DBE
:10801000381730410B12C2437C1D1B427A1D0E3CA7
:10802000CB9309000A24DB430800CB4309000D432E
:108030007E4082FF0F4BB012447F2B4B0B93F023FB
:108040003B4130415F427D1D4E4F5E53C24E7D1D10
:1080500030411E42781DB0128A7F3041F2408AFFC3
:108060007D1DC2437E1DC2437F1DC2431033824328
:108070007A1D8243781D30410B125F427C1D4F9365
:108080000224B01214805B427F1D4B933F245C425C
:108090007E1D0E4C5E020F4C5F0A0F8E3F50801DFE
:1080A0006E4FC24EB01D1D4F0200824DB21D1F4FBC
:1080B0000400824FB41D1C537CF00700C24C7E1D8F
:1080C0007B53C24B7F1D0F931A2092427A1DB61D1F
:1080D000123C5F427C1D4F930224B01214801D425B
:1080E000B21D5E42B01D1F42B61DB012447F1F423A
:1080F000B61DA24FB61D8293B61DEB23073C7E90A2
:1081000081FF0220DF430800B012447F5F427C1DE4
:108110005E427F1D4F4F0F5E3B4130415F427C1DF1
:108120005E427F1D4F4F0F5E30411B155B427F1D2E
:108130007B921E244C4B5C527E1D7CF00700C24C8F
:10814000B81D4C4C0A4C5A025C0A0C8A3C50801DEB
:10815000CC4E00008C4D02008C4F04004F4B5F53FF
:10816000C24F7F1DC29F1033052CC24F1033023CFB
:108170001F43013C0F431A1730410B121B42781D5D
:10818000B012447F824B781D3B4130411D427A1D25
:108190000C4D013C2C4C0C9F11240C93FB230F9392
:1081A0000D248F4D0000824F7A1DDF4308008F435E
:1081B00006000D4E7E4081FFB0127A8130410F9350
:1081C00009245E4F08007E536E93042CDF430900A0
:1081D000D2437C1D30411E43CF93080001200E4343
:1081E0000F4E3041B012BA7930411D42BA1D8F4C4A
:1081F00002009F41020004008F4E0000824FBA1D12
:108200000D9303200F4EB012327A0F4330411D42BE
:10821000BA1D0D930E248243BA1D1E4D04000F4D4E
:108220009D1202001F42BA1D0F9303242F4FB0125C
:10823000327A30410B120B4F8F4D04008F4E0600E7
:10824000B0121E778B4E00008B4F02003B41304135
:108250009F5F040000009F6F0600020030410B1278
:108260000B4FB0121E778B4E00008B4F02003B412C
:1082700030410B120B4FB0121E772E8B1F7B02006A
:108280001E530F631D438B9F0600052803208B9E02
:10829000040001280D430F4D3B4130411B151A4F7F
:1082A00004001B4F06002A5F1B6F0200B0121E77EE
:1082B0000C4A0D4B0C8E0D7F0E4C0F4D1A17304192
:1082C0000B120B4F2F4F3F9067000B243F9079000C
:1082D00039240F933B20B0124480C24F11338243A4
:1082E000C41D3F40BE1DB01210853F930420BB400B
:1082F00067000000303C1E42C41D3F900A00092464
:108300003E907F00EE37CE4FC61D1E53824EC41DD9
:10831000E83FCE43C61D1E53824EC41D3D40C61DC0
:108320005E4211330F43B0122A810D437E4085FF18
:108330001F42781DB0122A810F93D123BB407900D0
:108340000000093C7E9085FF0620C93F8B4300005A
:108350007F400300013C5F433B4130417F900D0073
:108360002024C293BC1D0A204E4F3F40BE1DB012B8
:10837000D8840F931020D243BC1D0D3C7F900A007F
:108380000A207E400A003F40BE1DB012D8840F93E1
:108390000224C243BC1D3F403C1CB012BE811F439F
:1083A00030410F4330417D4080FF3E40461E3F40FC
:1083B000BE1DB012C4840E433F403C1CB0128C81E1
:1083C00030418F43000030412F4F3041AF4E00000D
:1083D00030412F4F0F93022030410F4E2E4F0E93FE
:1083E000FC2330410E4F2F4F0F930D248F9300002D
:1083F00003208E43000030410E4F2F4F8F9300001B
:10840000FB238E43000030410E4F2F4F0F93022469
:10841000AE4F000030410B122D4F0D9314240C432E
:10842000023C0C4D0D4B0D9E0B202E4D0C9303204A
:108430008F4E0000023C8C4E00008D430000033C38
:108440002B4D0B93EE233B4130411B150B4F0A4E36
:10845000B0121684AA4B00008B4A00001A17304154
:108460001B150A4F0B4EB01216848B4300000F4AA7
:10847000B012D2830F9303208A4B0000023C8F4B33
:1084800000001A1730412E4F0F43023C1F532E4E4F
:108490000E93FC2330410E9304200E4DB0124A84FB
:1084A0003041AD4E00008E4D000030410F9302244C
:1084B0002F4F30410F433041B0122CC23041B01227
:1084C00006C230418F4E00007D53CF4D0200CF4396
:1084D0000300CF43040030410B125C4F03005D4F9B
:1084E00004000B4C0B8D0D4B5B4F02000DFB4D9BA5
:1084F0000C242C5FCC4E00005E4F03005E535EFFE9
:108500000200CF4E03001F43013C0F433B4130416B
:108510001B155B4F04005C4F02005E4F03004D4B88
:108520000E8D4A4C0EBA08242D5F6E4D5B534BFCEA
:10853000CF4B04000F4E013C3F431A1730415F4FB1
:1085400002001F5330415E4F03005D4F04000E8D4B
:108550005F4F02000FFE30411B15B0120A890A4F0F
:108560003F40C61EB012C883083C1F4B02000F9349
:1085700001248F120F4BB012AC840B4F0F93F523D5
:108580000A9303240F4AB0124C981A173041B012C4
:10859000C49CB012689FB012F087B01204893012E8
:1085A00007003012000803123012001E3D40200068
:1085B0000E432F43B0128087315230413B15094F93
:1085C0000A4E084D3F40C61EB012C883093C1E4BE0
:1085D00004000E9302240F4A8E120F4BB012AC848B
:1085E0000B4F0F93F4230D480E4A0F49B0125A98BF
:1085F000381730410E4F3F40C61EB01260843041E4
:108600000E4F3F40C61EB012168430410B120B4F66
:10861000B0121A890F930924B012089E0E4B3F40E6
:10862000BC859212B8C51F43013C0F433B4130410A
:1086300030412B153150FAFF094EB012D89E0A4F27
:108640002D430E4F0F41B01212612B415B062B538D
:10865000B012F09E0F9B14282A530B430F3C2D425F
:108660000E4A0F412F53B01212611D4104001E41EA
:1086700002000F49B012CE882A521B532B91EF2BC8
:1086800031500600291730410B123B40081F0312DE
:108690003C40D2862D4B1E4B02000F4B3F50E0FF5B
:1086A000B012127C2153B012BE842C4B1D4B020021
:1086B0000E4F0F43B0121AB903123C4020870D4EE3
:1086C0000E4F0F4B3F50CCFFB012127C21533B4159
:1086D00030411E42081F1F420A1F0E5E0F6F1C42D0
:1086E000041F1D42061F0D9F04280F9D04280C9E89
:1086F000022C0E4C0F4D824E081F3E40081F8E4F1D
:108700000200B01288863041D193020008209242C4
:10871000FC1E081F9242FE1E0A1FB01288863041BE
:108720000B12B012689FB012D89E0B4F8F430000FF
:10873000B012C488113C0D4E5D060D5B9D4F0200CA
:1087400002001E530D4E5D060D5B9D4F04000000A0
:108750008B4E0000B012AC842E4B0F930324CF93AA
:108760000800E9230F4E5F062F53B012D29E8B9361
:10877000000004243F40C81EB012008A3B41304133
:108780001B150A4D0B4E3D4034C50E4F3F40C81ED1
:10879000B012D8893F40FC1E8F4A00008F4B020068
:1087A0009F41060004009F41080006009F410A0007
:1087B00008009F410C000A003F400887B012BE88A5
:1087C0001A1730410B123B40E81E0F4BB0127A7C57
:1087D0000F4B3F50ECFFB0127A7C3F40C81EB012E6
:1087E000FA893B4130411E42081F1F420A1F304197
:1087F0003F400E1FB012C28330411B150B4F8F4EEE
:108800000200CF4308008F4D06000E4F3F400E1F61
:10881000B01260841A42101F0A930A2453120C43A8
:108820001D4B04005E4B08001F4B02008A122153AF
:108830001A1730410E4F3F400E1FB01216843041C0
:108840000B12CF4308001B42101F0B930824431246
:108850000C430D434E431F4F02008B1221533B41EB
:1088600030410B121C4F0400DF4308008F4E040000
:108870001B42101F0B93072443120D4E5E431F4FE4
:1088800002008B1221533B4130410B121B42101F3F
:108890000B930A241C4F040053120D4C5E4F08002A
:1088A0001F4F02008B1221533B4130411E42121FC9
:1088B0000E9301248E123041824F121F3041824F9D
:1088C000101F30413F400E1FB012C88330413B158E
:1088D000094F0A4E084D3F400E1FB012C8830E3C90
:1088E0008F9A020009201B4F06000B9309240C48A5
:1088F0000D4A0E498B12043CB012AC840F93F02346
:1089000038173041B0123C8930419212C0C50F93E4
:108910000324924F0200543330410B120B4F92123A
:10892000C2C5924B020054331E430F9301200E43E5
:108930000F4E3B4130419212C4C530413F40141F9D
:10894000B012C28330418F4E02000E4F3F40141FC1
:10895000B012608430410E4F3F40141FB012168495
:1089600030410B120B4F3F40141FB012C883053C1F
:108970008F9B02000424B012AC840F93F9233B4177
:1089800030411B150A4EB01262890B4F0F9307241A
:108990008F4A04000F4AB0123689CB4F06001A17CF
:1089A00030411C4F0A001C4C02000C9301248C1215
:1089B00030410B1221830B4F3E404A330F41B0121E
:1089C000FC9F1F4B0A002D4F0D9303240E410F4BAC
:1089D0008D1221533B4130412B150B4F0A4E094D4F
:1089E0003D4038C5B01222988B490A003E403CC534
:1089F0000F4AB012828929173041B0124098304195
:108A00000B120B4F3E4086333F404A33B012FC9F5F
:108A10000F4BB01246983B4130411B150B4F0A4E8D
:108A20000F123C40DE8E3D4000020E433F502E00B0
:108A3000B012127C2153B0121E778B4E9A008B4FCE
:108A40009C000E4A2E530F4BB0120C981A1730414F
:108A50003B15094F084EB012689F5F4998003F537D
:108A6000824F80333E4086333F404E33B012FC9FEE
:108A700092437C3392437E33824874332F42B01248
:108A8000129F0E493E508E000F493F504A00B012CF
:108A9000269A0F9316240D488D108D118D108D116F
:108AA0000A480B4D7F4006000A5A0B6B7F53FC238C
:108AB0000C490D4A0E4B0F493F504600B01246AFCD
:108AC000013C0F43381730415B15094F084E074DE5
:108AD0003B406E33264BB012689F2F42B012D29E9D
:108AE000B012D89E0A4F2D420E43B01224619A490B
:108AF00092000200CA4700000E483F404C33B012BB
:108B0000FC9F9B43FEFF8B4302008B4316008B466A
:108B10000000BB400500F6FF0E480F49B0120C984C
:108B200092531E3382632033561730412B15218216
:108B30000B4FCF9395005A203F504600B012B0AF74
:108B40000F935424B01200B00F935024B0128C9D98
:108B5000094B39508E000E490F4B3F504A00B0125E
:108B6000269A0A4F0F933524DB4395000E490F4B8D
:108B70003F509000B012FC9FCB4396001F427433CD
:108B80004D4FCB4F9700924370337D900300022CE2
:108B90004D4D013C2D43824D6433D24B94006E33D6
:108BA000C2436F3392532233826324332D420E43E8
:108BB0000F41B0122461914B92000200B012D89E76
:108BC0002D420E41B01212610E4A0F4BB0121A8A9A
:108BD0000D3CCB9399000A243B500E003E40FF0110
:108BE0000F4BB01262880F4BB0128A88215229179E
:108BF00030410B120B4F3F504600B012BAAFDB535F
:108C000094000F4B3F502E00B0127A7CCB4395005E
:108C1000CB4396000F4BB0122C8B3B4130416B1570
:108C20000B4F174F9200079368240A4F3A508E005B
:108C3000094F39504A000E4A0F49B012269A064F82
:108C40000F49B012189C084F0F93262406930A2050
:108C50000E4F2E530F4AB012FC9F92531233826371
:108C60001433143CB012FC9B054F0F46B012FC9B12
:108C70000E453E500C000E9F1F2C0E482E530F4ADF
:108C8000B012FC9F92531633826318330F4B3F5040
:108C90000E00B0128A88103C3E407AC50F4AB012CE
:108CA00004A00F93042092531A3382631C333E4076
:108CB0007AC50F4AB012FC9F0E4A0F49B012269A8D
:108CC0000F930524B012FC9B0A4F0F9302203A40E9
:108CD000FF018B4A9200CB93990006240E4A0F4B5A
:108CE0003F500E00B01262883790FF0106203A9084
:108CF000FF0103240F4BB0122C8B651730415B151D
:108D00000B4F064E0A4C074F3750F2FF084F3850B2
:108D10003C000F48B012269A094F0F9313201A9B5C
:108D20008400052C0D4A0E460F48B0125C9A3A900A
:108D3000FF011720BB90FF01840013240F4BB012DA
:108D40008A880F3C3A90FF010820B0125A9C3F904D
:108D5000FF0103240F4BB0128A880E4A0F49B0124C
:108D60009A9B0F47B0121E8C3A90FF010A20BB90CD
:108D7000FF0184000624CB938B0003240F4BB01219
:108D80008A88561730412B15094F8F9376000320A0
:108D90008F9378001D24B012BE841A4976001B49B7
:108DA000780012C30B100A100C4A0D4B0E4F0F43E4
:108DB000B0121AB909123C40428F0D4E0E4F0D5A97
:108DC0000E6B0F493F506200B012127C2153043CDD
:108DD0003F506200B0127A7C291730410B120B4FC2
:108DE000CF4395000E4F3E5090003F504A00B012C6
:108DF000269A0F9304245E4B9700B012A89B0F4B4A
:108E0000B0121E8C0F4BB012F28B0F4BB012868D2E
:108E10003B4130412B1521820B4FDF9F970096007D
:108E20000728B012DC8D9253463382634833543C9A
:108E3000CF4395003F504600B012B0AF0F934C2483
:108E4000B01200B00A4F0F9347240F4BB0121E8C84
:108E50000F4AB0128C9D094B39508E000A4B3A5084
:108E600090000E490F4AB01204A00F9306200E493D
:108E70000F4AB012FC9FCB4396000E4A0F4B3F5057
:108E80004A00B012269A0A4F0F932624DB4395001E
:108E9000924370335D4B97005F4B96000D8F3D9072
:108EA000030001382D43824D6433D24B94006E335E
:108EB000C2436F332D420E430F41B0122461914BD8
:108EC00092000200B012D89E2D420E41B0121261E3
:108ED0000E4A0F4BB0121A8A215229173041FF5007
:108EE00003009600B012148E30410B120B4F829388
:108EF0006C3325205D5F9600CF4D96005D9F9700F7
:108F00000728B012DC8D9253463382634833173CF6
:108F1000B012BE840C4F0D430E4C0F4D3EF00F00AF
:108F20000FF30B123C40148E0D4E0E4F3D501000AF
:108F30000E630F4B3F502E00B012127C21533B4169
:108F400030410B120B4FB012868DCB939500102041
:108F50000F4B3F504600B012F6AF0F9309203E4230
:108F60000F4BB012508A0F9303240F4BB0122C8B6F
:108F70003B4130410B120B4F5E42761F0D4E5D029E
:108F80005E0A0E8DDE4280331A1F0D4E2D533E4079
:108F90004E330F4D3F50161FB012FC9F5E42761F9E
:108FA0000C4E5C020D4E5D0A0D8C8D4B161F1E5330
:108FB0007EF00F00C24E761F3B4130414B153150C1
:108FC000F6FF0B4FB012D89E2D420E4F0F413F506F
:108FD0000600B01212610A4B3A504A003E404A3332
:108FE0000F4AB012269A0F9307241E410800B012B0
:108FF0009A9B0F4BB0121E8C1F426C330F93C720ED
:1090000092532633826328333E404A330F41B012D5
:10901000FC9F074B375046000F47B012F6AF3F900A
:109020000500012402344A43023C7A4080FF384064
:10903000161F09432B981F205F4804001F9280339E
:109040001A200F495F020D495D0A0D8F2D533E40D6
:109050004E330F4D3F50161FB01204A00F930B2438
:109060004D4A0E410F4BB012C88A9253323382637D
:10907000343330409C921953385006003990100018
:10908000D9231F4B92000F933120B012F09E2F92E4
:10909000042403280F4BB012748FB012E09C0A4FC7
:1090A0000F930C240D430E410F4BB012C88A0F4A88
:1090B000B0128C9D0F4AB012629D043C9253423311
:1090C000826344332F42B012B89EB012F09E0F93C9
:1090D000E5241F4B2C002C4F0C93E0245D427C3385
:1090E0005E4280333F404E338C12D83C1E427E336A
:1090F0002E9341283F90FF01D1241F9108000228A0
:109100007AD0100092537C333E53824E7E330F4709
:10911000B012F6AF3F92012422341E4274330F4343
:109120007D4006000E5E0F6F7D53FC230C4B0D4EF1
:109130000E4F0F47B01246AF0F931124B012F09E9E
:109140002F92042403280F4BB012748F4D4A0E4106
:109150000F4BB012C88A0F4BB0122C8B9F3C7AD0A9
:10916000C0FF4D4A0E410F4BB012C88A925336339E
:1091700082633833933C7AD060004D4A0E410F4BE6
:10918000B012C88A92533E3382634033873C1F93A8
:1091900085200E4B3E5090003F404A33B01204A051
:1091A0000F9374245F4B94001F926E336F20925381
:1091B0002A3382632C33B012D89E2D420E4F0F41BA
:1091C0002F53B0121261CB9396000220EB4396000E
:1091D0003E404A330F4AB012269A0A4F0F930C248E
:1091E0005E4B9600B012C69B1E4104000F4AB0129F
:1091F0009A9B0F4BB0121E8CC19302000E340A933F
:1092000009240F4AB012689C5E4B97005E020F4A19
:10921000B012C69B0F4BB0121E8C5F4102003FB0D4
:10922000400003243FF0200004240F4BB012F28BC7
:109230001F3C5E4B97000F4AB012C69B0F4BB012FB
:109240001E8CB012BE840C4F0D430E4C0F4D3EF0E1
:109250001F000FF30B123C40148E0D4E0E4F3D506D
:1092600020000E630F4B3F502E00B012127C215392
:109270005F4102003FF0100005240F4B3F500E00ED
:10928000B0128A880F4BB012868D043C92532E3355
:109290008263303392532A3382632C3331500A0075
:1092A000471730412B1521830B4FB012BE840C4F52
:1092B0000D433CF07F000DF3021232C20343824C97
:1092C000D404824DD604B2403C00E0048243E20460
:1092D0001D42CA041E42CC0432410B123C40A492EF
:1092E0000F4B3F507A00B012127C21531F4B92005B
:1092F0000F9340243F90FF013D240F4B3F50460009
:10930000B012B0AF0F9336200F4B3F504A00B0124F
:10931000FA9AB012C8832B3C1F4A04003F521F9B8D
:109320009200222C0F4A3F500A00B01248990F9326
:109330001B20094B39508E000E490F41B012FC9F83
:109340000E4A2E530F49B012FC9F3E400F000F4BA8
:10935000B012508A0F9303240F4BB0122C8B0E4186
:109360000F49B012FC9F063C0F4AB012AC840A4F62
:109370000F93D2232153291730414B150B4F094E20
:10938000484D074C0A4E1A533D4040C50E4AB01294
:10939000E4973E4044C50F4AB0128289BB40FF01AA
:1093A00092008B472C00CB489900FB400A009400A8
:1093B000CB4398000F4B3F5042008B4F44008B43F0
:1093C0004200B012C2830F4B3F504A00B012F499D2
:1093D0000F4B3F5044008B4F4600BB40461C48009B
:1093E000B012E0990A4B3A500E003D40FE8C0E49F7
:1093F0000F4AB012FA87CB93990005243E40FF0133
:109400000F4AB0126288B012BE840C4F0D433CF07C
:109410007F000DF3021232C20343824CD404824D0A
:10942000D604B2403C00E0048243E2041D42CA0478
:109430001E42CC0432410B123C40A4920F4B3F50D1
:109440007A00B012127C2153471730418F4D7600BD
:109450008F4E7800B012868D30410B120B4F3F506B
:109460000E00B01234880F4BB01206983B504600E5
:10947000033C0F4BB012BAAF0F4BB012B0AF0F930B
:10948000F8233B4130411B150B4F0E931B24DF4348
:1094900099008F4392003F500E00B0128A880A4B09
:1094A0003A504600033C0F4AB012BAAF0F4AB0120E
:1094B000F6AF0F930124F7370F4B3F502E00B01239
:1094C0007A7C033CBF40FF0192000A4B3A500E00E9
:1094D0001E4B92000F4AB01262880F4BB0121E8CC6
:1094E0000F4AB0128A881A1730411B150B4F0A4ECB
:1094F0005F4F9800C24F8033C24381335F534F4F59
:10950000CB4F98000F930320FB4080FF98003E4014
:1095100086333F404E33B012FC9F92437C33B240BF
:109520000F007E333A9020000438B2401F0074339D
:10953000023C824A74338B9392000E2082437C3328
:109540001F4B2C002C4F0C933B244D435E42803329
:109550003F404E338C12343C2F42B012129F1E42B9
:1095600074330F437D4006000E5E0F6F7D53FC2366
:109570000C4B0D4E0E4F0F4B3F504600B01246AFF6
:109580000F9305240F4BB0122C8B1A43013C0A4356
:109590000E4B3E508E000F4B3F504A00B012269AA1
:1095A0000F930F20CB9399000C243B500E003E40AC
:1095B000FF010F4BB01262880F4BB0128A88013C3A
:1095C0001A430F4A1A1730411F4F920030413F5043
:1095D000900030411B150B4F3F504A00B0126E9B5C
:1095E0000A4B3A508E003E407AC50F4AB012FC9F9B
:1095F0000F4BB0121E8C3E407AC50F4AB012FC9F32
:109600001A17304130410B123150E0FF0B4F7E9062
:1096100083FF04203F40D620B012FA892F4B3F90A1
:10962000A7002D243F90B50058240F9371203D4092
:109630006AC53E4007003F40D620B012D889B240EC
:109640000004E2208243E4201D42E2201E42E42086
:109650003F40E620B0124E7EB012BE841C42E22093
:109660001D42E4200E4F0F43B0121AB90D4E0E4F9B
:109670003F40F220B0124E7EBB40A70000003F40AA
:10968000F220B012BC7E0F934824D142D4200000B7
:10969000C14301009142FE200200B0125477814F75
:1096A0000400B0121E77814E0600814F0800B012F0
:1096B000D477814E0A00814F0C0081431E003E404A
:1096C00020000F41B012829FA2426C333F40D6204F
:1096D000B012008ABB40B50000003F40E620B01247
:1096E000BC7E0F931A241E42E2201F42E4200E5E2D
:1096F0000F6F824EE220824FE4200F9303203E90B2
:109700000096A22BB2400096E2208243E4209C3FC8
:109710008B4300007F400300013C4F433150200049
:109720003B4130411F42D42030411E42D420824F61
:10973000D4200E9F09243F404E1CB01252800E438D
:109740003F404E1CB0128C8130413150E0FFB012CE
:10975000D89E3D4020000E4F0F41B01212616F4164
:109760001F92D4200B341E4102001E511E001E8287
:109770005C33824EFE201F53B0122A9731502000D6
:109780003041B012C8791F52FE2030411F82FE20A6
:1097900030411F52FE2030411F42FE2030410E4317
:1097A0003F404E1CB0128C8130411C4F0C001C4CB1
:1097B00002000C9301248C1230411B150B4F0A4EF2
:1097C0003E4086333F404C33B01204A00F93082430
:1097D0001F4B0C002D4F0D9303240E4A0F4B8D127F
:1097E0001A1730412B150B4F0A4E094D3D406EC5DF
:1097F000B012D8898B490C003E4072C50F4AB01296
:10980000828929173041B012FA8930410B120B4F6F
:109810003F404C33B012FC9F0F4BB012008A3B41CB
:1098200030412B150B4F0A4E094DB01246898B491A
:1098300008003E4078C50F4AB0128289291730418E
:10984000B01256893041B0120C8630411E4F0800CC
:109850002E4E0E9301248E1230411C4F08001C4CDA
:1098600002000C9301248C1230410F930624CF4345
:109870000400BF4200008F43020030411B150F93CC
:109880004C244E934A245C4F04004C930B204D4EC5
:109890005D0A8F4D00008D108D118D108D118F4D33
:1098A0000200023C7C9303245C53CF4C04004E4ED8
:1098B000021232C20343824ED4048243D604B24021
:1098C0001800E0048243E2041A42CA041B42CC049A
:1098D0003241021232C20343A24FD404924F02001B
:1098E000D604B2400500E0048243E2041C42CA04EC
:1098F0001D42CC0432410C5A0D6B8F4C00008F4D31
:10990000020012C31F1002002F1012C31F1002000A
:109910002F1012C31F1002002F101A1730410F937F
:1099200005244E4E5E024E4EB0127C9830413041BE
:109930000F930524CF93040004242F4F30410F438D
:1099400030413F40800030410F9303245F4F0400BB
:1099500030410F4330411B150A4F1F4F0200B01218
:10996000C883063C9F5306009F530800B012AC8486
:109970000F93F8231F4A0200B012C883213CBB900A
:109980000A00080007200F4B3F500A00B0126A98E7
:109990008B430800BB90B40006000F200E4B3F40E5
:1099A000581CB0126EAE0E4B1F4A0200B012168445
:1099B0001F4A0200B012C8830B4F0F4BB012AC8489
:1099C0000B4F0F93DC230A123C4056993D40001E7A
:1099D0000E430F4A2F52B012127C21531A173041F6
:1099E000C29300210620D24300213F40581CB012F0
:1099F000FAAD30410B120B4F8B4F02008F4300002A
:109A0000B012C2831F4B0200B012C2830B123C4043
:109A100056993D4080000E430F4B2F52B012127CDE
:109A200021533B4130411B150A4E0F9313241F4F06
:109A30000200B012C8830A3C0E4A0F4B2F53B012DB
:109A400004A00F9308200F4BB012AC840B4F0F9360
:109A5000F323013C0B430F4B1A1730413B150A4FC0
:109A6000094E084D0E9339240F9337241F4F0200DF
:109A7000B012C8830A3C0E490F4B2F53B01204A0FA
:109A80000F9319200F4BB012AC840B4F0F93F3239D
:109A9000273C0E4BB01260840E3C1E4F04000A9E01
:109AA000022C0B4F0A4EB012AC840F93F623089A87
:109AB000142C0B9312248B4306000E490F4B2F538B
:109AC000B012FC9F8B4804000F4B3F500A00B012AD
:109AD0006A988B4308001F43013C0F4338173041FD
:109AE0003F40581CB01230AE0B4F1F4A02000B9380
:109AF000D023B012C8830A43D83F0F9303241F4FCB
:109B0000020030410F4330411B150A4F0F930F24C1
:109B1000B012269A0B4F0F930A240E4F1F4A0200D1
:109B2000B01216840E4B3F40581CB0126EAE1A177E
:109B300030410F9305241F4F0200B012868430413C
:109B40000F4330411B150A4E0F930E241F4F020086
:109B5000B012C8830B43053C0B9A07241B53B01269
:109B6000AC840F93F923013C0F431A1730410B12B9
:109B70000B4F0F930A200F3C1F4B0200B0120884BA
:109B80000E4F3F40581CB0126EAE1F4B0200B01279
:109B9000C8830F93F1233B4130410F9304248F4E30
:109BA00004008F43060030410B120B4F0F93092422
:109BB0004E4E3F500A00B0121E998B4308008B4353
:109BC00006003B4130410B120B4F0F9309244E4EC0
:109BD0003F500A00B0127C988B4308008B4306006C
:109BE0003B4130410B120B4F0F9306243F500A00AC
:109BF000B0122E998B4306003B4130410B120F935C
:109C000008241B4F04003F500A00B01230990F5B2C
:109C1000013C0F433B4130412B150F931A241F4F3A
:109C20000200B012C8830B4F3940FF010A430E3CBB
:109C30000F4BB012FC9B0F99052C0F4BB012FC9BE5
:109C4000094F0A4B0F4BB012AC840B4F0B93F02310
:109C5000013C0A430F4A291730410F9303241F4F39
:109C6000040030410F4330410F9307243D400078FA
:109C70000E433F501000B012348230410F9307243E
:109C80003F501000B01272821E430F9301240E4306
:109C90000F4E30410B120B4F0F931124B0127C9CCE
:109CA0000E4B3E500A000F9306240F4EB01230990F
:109CB0003F504000053C0F4EB0123099013C0F431D
:109CC0003B4130413F40601CB012FAAD3F40681C40
:109CD000B012FAAD30413F40681CB012D6AE3041F0
:109CE0001B153F40681CB01230AE0B4F0F931C2465
:109CF0003F40601CB01230AE0A4F8B4F00000F93F4
:109D000007200E4B3F40681CB0126EAE0B430C3C5C
:109D1000B012589E8A4F80000E4A3E50B6000F4A3D
:109D20003F508200B012AC9F0F4B1A1730412F4F9B
:109D30000E4F3E50B6003F508200B012AC9F3041F3
:109D40000B122B4F0E4B3E50B6000F4B3F50820074
:109D5000B012AC9F0F4BB012589E8B4F80003B410E
:109D600030410B120B4F0E4F3F40681CB012A8AE93
:109D70000F930A242E4B3F40601CB0126EAE0E4B68
:109D80003F40681CB0126EAE3B4130410B120B4F8E
:109D90000E4F3F40681CB012A8AE0F930E242B4B01
:109DA0001E4B80000F4BB012829F0E4B3E50B600F0
:109DB0000F4B3F508200B012CC9F3B4130410B1201
:109DC0000B4F0E4F3F40681CB012A8AE0F930224F9
:109DD0002F4B013C0F433B4130412F4F1F4F800021
:109DE00030414E4E3E5041005E022F4F0F5E3041DB
:109DF0004E4E3E5041005E022E5F2F4E30413041AC
:109E0000F2403000463030411E4242300E93122460
:109E10001C4244303C5030003F4030003E504A30FD
:109E2000053C0D4E0D5FEF4D4A301F530F9CF93B23
:109E30008243423030410B125E4246303B4030009C
:109E40000D4B0D8E3E504A30B01212615E424630CC
:109E50000F4B0F8E3B4130411B150A4F5E4246307F
:109E60001D4244303D5030000D8E3D9081001E2C2F
:109E70003B4030000D4B0D8E3E504A30B012126107
:109E80005E4246300C4B0C8E1D4244301E42483020
:109E90001E5242300F4A0F5CB01212611F42443012
:109EA0003F5030005E4246300F8E013C0F431A1780
:109EB0003041C25F463030411E4244300E9F072879
:109EC000825F42300E8F824E44301F4330410F4339
:109ED0003041824F443030411F4242303F503000C9
:109EE0003F504A3030415F4246303F504A30304167
:109EF0001F42443030417F4030005F8246300220B4
:109F00005F4242303041B012F69E4F4F1F524430F4
:109F100030411B150B4F5A4246304F4A0F9B0B38AE
:109F2000B012069F0F5B3F908100052C4A8BC24AFE
:109F300046301F43013C0F431A1730410B120F43A9
:109F40008F4352332F533F903400FA230B430F4B70
:109F50005F023E407AC53F504A33B012FC9F1B530C
:109F60002B92F5233B4130418243423082434430BF
:109F7000F24030004630B2407A304830B0123C9F58
:109F800030411B150A4F0B4EB012689F3B90810069
:109F900002283B4080000D4B0E4A1F424830B01251
:109FA0001261824B44300F4B1A1730410B120B4E8B
:109FB0003D4034003E405233B01212613D423E40BB
:109FC0004A330F4BB01212613B4130410B120B4E22
:109FD0003D4034000E4F3F405233B01212613D42BB
:109FE0000E4B3F404A33B01212613B4130413E407C
:109FF0007AC53F404C33B01204A030412D43B0121B
:10A00000126130412D43B0124CB91E430F9301240D
:10A010000E430F4E30410E4F3F408633B012FC9F2F
:10A0200030419212BCC530419212A6C53041921205
:10A03000A8C530411F42AAC50F9302248F12304198
:10A040000F4330410B120B4F0F930C241F4F1E0078
:10A05000B012C8830F9306240D4F0E4B3F4088A2C9
:10A060009212A2C53B4130413B15094F084EC293A5
:10A07000FA300620D243FA30B012BE84824FFC3050
:10A080008293FC3002209243FC301F42FC300E4F82
:10A090001E53824EFC30824F66333F40FE30B0127A
:10A0A000C8830B3C3E404C330F4B2F53B01204A0DF
:10A0B0000F9322200F4BB012AC840B4F0F93F2235F
:10A0C000853C3E404C330F4B2F53B012FC9FCB438B
:10A0D0001800CB431900CB431A000D4B3D501C0018
:10A0E0008B4D1E008B431C000F4DB012C2830E4BD4
:10A0F0003F40FE30B01260841F4B1E00B0128684B9
:10A100003F900F0001245B343F40781CB01230AE0A
:10A110000A4F0F9344243F40801CB01230AE8A4F48
:10A1200004000F933724B012E09C8A4F02001D4AAE
:10A1300004000F932A241C4264330C930420FD4036
:10A1400003000400023CCD4C04008D4900008D4802
:10A1500002001F4B1E000E4A92936C330320B01274
:10A160004A84023CB01260841F4B1E00B012C883A8
:10A170000A9F34200B123C4044A00D430E430F4B6A
:10A180002F52B012127C2153293C0E4D3F40801CAF
:10A19000B0126EAE0E4A3F40781CB0126EAE1F4B2E
:10A1A0001E00B01286840F930A200E4B3F40FE30F3
:10A1B000B01216840E4B3F40701CB0126EAE1C43A2
:10A1C0002D420E480F49B012ACA3083C3F40701C12
:10A1D000B01230AE0B4F0F937423F13F381730415C
:10A1E0003F40781CB012FAAD3F40801CB012FAAD6F
:10A1F0003F40701CB012FAAD30412B15094F0A4E8A
:10A200000E9340241F4F1E00B01216841F4A0200F6
:10A21000B012629D1E4A04003F40801CB0126EAE18
:10A220000E4A3F40781CB0126EAE1F491E00B0129D
:10A23000C8830F931924C9431800C9431900C9439F
:10A240001A009212AAC50A4F0B430F9302201A4319
:10A250000B4309123C4044A00D4A0E4B0F492F52AC
:10A26000B012127C21530E3C0F492F52B0127A7C4F
:10A270000E493F40FE30B01216840E493F40701C1C
:10A28000B0126EAE291730417B152182094F074E5F
:10A290000F9389241E930E242E9303340E930724C8
:10A2A0000E3C2E9304243E9003000920063CC95D19
:10A2B0001800053CCF5D1900023CCF5D1A001F4914
:10A2C0001E00B012C8830C3C7E400A001F480200EA
:10A2D000B012F09D1F92663307240F48B012AC8471
:10A2E000084F0F93F1235F3C1648040006935B244C
:10A2F000A1460000914602000200554918000F4790
:10A300003F532F93452C9212AAC50A4F0B430F932C
:10A3100002201A430B43B012BE84044FD9960400A6
:10A320001800362C2592023835400300174375F08B
:10A330000F004593032407577553FB3F0D478D10BE
:10A340008D118D108D11021232C20343824AD40442
:10A35000824BD6048247E004824DE2041C42CA04C8
:10A360001D42CC0432410E440F43B0121AB90912F7
:10A370003C4044A00D4E0E4F0D5A0E6B0F492F520C
:10A38000B012127C21531F480200B0122E9D0B3CCC
:10A390000E480F49B012FAA10C450D471E410200AC
:10A3A0002F41B012ACA32152741730410B120B4F46
:10A3B0000F4E0E4D0D4C0B9301248B123B4130413F
:10A3C0001F433041C243243282432E32B012C87937
:10A3D00003123C40EAA41D430E4F3E5000013F4093
:10A3E0002832B012EA812153D243273230415F42F2
:10A3F00027324F9308245F4224324F930420D243E4
:10A4000024329212E4C430415F4227324F930C242D
:10A410005F4224324F9308245F4226324F93042038
:10A42000C24324329212E6C43041B01208A48243DF
:10A4300032323041C2432732C24F26320F930524B5
:10A44000D24324329212E4C43041C24324329212E5
:10A45000E6C430415F4227324F931220D243273265
:10A46000C2432632B012C87903123C40EAA41D430D
:10A470000E4F3E5000013F402832B012EA81215376
:10A480001F4330410B1221830B4F814E0000B0124D
:10A49000C8790D4F3DE32E410D5E0D930434B0128B
:10A4A000C8790E4F1E5303123C40EAA41D430F4BC4
:10A4B000B012EA8121523B4130410B125B422432FF
:10A4C0005F4225324F930F20829332320C20B0121C
:10A4D00008A44B9308245F4224324F9304203F404A
:10A4E000A033B01244AD3B4130412B150B4F1F42FE
:10A4F0002E323F9088013F243F908901032C0F9317
:10A500000824D23C3F90BA0192243F90D601CC203F
:10A51000043CB012C879824F2232B250000122327C
:10A52000C2433032C2433132283C5F4225324F931E
:10A530001220829332320F205F4225324F93022045
:10A54000B012EEA39212DEC40F930320D243303236
:10A55000173CB012BAA4B012C8795E4227324E93AB
:10A5600006240E4F3E5010000F4BB01284A4B24090
:10A5700088012E325A3CD2533132E2933132D52BFC
:10A58000C29330327A24B012C879824F3432C24337
:10A590003632C24337324B3C9212DEC40F9303244F
:10A5A000D2533632023CC2433632D253373219428A
:10A5B000E0C489120F930224C2433632F29006009F
:10A5C00036320C2C1A42E2C4F2900B0037320928C2
:10A5D00089120F9306208A120F930320B012BAA497
:10A5E000363C8A120F9333205F4227324F931A244E
:10A5F0002A4BB012C8790E4A3E5012000E8F0E93AD
:10A600000534B012C8792F8B2F53023C3F40140001
:10A6100003123C40EAA41D430E4F2E5B0F4BB012B9
:10A62000EA812153B240BA012E325F43413C5F427E
:10A6300025324F930C205F4224324F930824B012EE
:10A64000C8791F8234323F5067FE0F93A53B5F42AB
:10A6500024324F9312249212E0C40F9304209212DA
:10A66000E2C40F930824B012C8791F8234323F50DD
:10A6700067FE0F930238B012BAA4B012C8791F82D5
:10A6800022323F50A0FF0F9348371E4222325F42D2
:10A6900027324F9305243E5000010F4BB01284A483
:10A6A000B240D6012E32C13F82432E327F4003009A
:10A6B000291730410B12829332320220B01208A4C3
:10A6C000B012F09E3F9003004C24B012069F0F93EF
:10A6D00048249212D6C50F934438B012F09E0F93BF
:10A6E0004024B012069F0F933C243E4086333F40E7
:10A6F0004C33B01204A00F930420B012EE9F0F93BE
:10A7000030241F427833824F32320F930D24B0121F
:10A71000EEA303123C402AA42D420E433F403832A0
:10A72000B012127C2153063CB01208A43F403832CC
:10A73000B0127A7CB01222B30B4F0F930220B012EA
:10A7400058B33F404C32B01244AD3F404C32B0128F
:10A75000CAAD3F404C32B012AEAD0B930220921204
:10A7600088C53B4130417B152182054F5E4227322F
:10A770004E9304205E4226324E93D824B012069F98
:10A780000F93D4243E4086333F404A33B012FC9F9F
:10A79000B012EE9F094F82936A33062092436833CA
:10A7A0009212D4C50F93C238B012069F064FB01252
:10A7B000E69E0E469212D6C4D24325329212E0C4CF
:10A7C0000F9304209212E2C40F930324C243253254
:10A7D000A73CB01208A457422732D2432732059330
:10A7E0002B203B4006001442DEC4B012C879084F4B
:10A7F000B012EEA33A40FCFF0A88B012C8790F5A93
:10A800000F93FB3B84120F930920B01208A4C2439C
:10A810002532B01208A4C2472732823CB01208A4E5
:10A82000B012C8793A40F0FF0A8FB012C8790F5AB7
:10A830000F93FB3B3B53D9235843099303204843D1
:10A84000B012EEA3B0127A62B012C87954426633E5
:10A850003940B0FE098F3A40DEFD0A8F3D3CB01210
:10A860007A624893072005930524B012C8790F5ADD
:10A870000F9337340F469212D8C4B012C8793B40B8
:10A88000F3FF0B8FB012C8790F5B0F93FB3B48931C
:10A8900023209212E0C40F9308209212E2C40F9377
:10A8A00004209212DEC40F931720B012C8793B40E7
:10A8B000EBFF0B8FB012C8790F5B0F93FB3B3E4051
:10A8C00003000F419212DCC43F9003000320549117
:10A8D000020009245B430A3CB012C8790F590F9358
:10A8E000BE3B4B43033C4B435A43013C4A43B012EB
:10A8F00008A43F404C32B01244AD3F404C32B0123D
:10A90000CAAD3F404C32B012AEADC2472732C2434F
:10A9100025324B930520489305204A930524023C99
:10A920001F43063C0F43043C2F43023C3F400500BD
:10A930002152741730414B15094F084E0A4D0D93A3
:10A9400052248293323207241F4D0200B0128C9D94
:10A950001C431D431B3C0B4D013C0B470F4BB012DE
:10A96000AC84074F1F4B0200B0128C9D82936A3358
:10A97000182007930224924378339243683392124B
:10A98000D4C50F9308341C433D4005000E480F49C1
:10A99000B012ACA3283C92436A331F4B0200B012A2
:10A9A000409D0793DA230B43023C0A471B430F4A9F
:10A9B000B012AC84074F1F4A0200B0128C9D0F4B9F
:10A9C000B01266A70B4F3F9003000D241C430D4FA0
:10A9D0000E480F49B012ACA30B9305200793032434
:10A9E00082937833E223471730410B1221830B4FB8
:10A9F0000F43814E0000B01266A70D4F2E413F90CD
:10AA0000030004241C430F4BB012ACA321533B4161
:10AA100030410F4330418F12304192437A339212CA
:10AA200086C530411F433041921232C530414F43F9
:10AA300030411B153A420B43F2D02000050203437C
:10AA4000034303430343034303430343F2F0DFFFA2
:10AA500005023F400900B01288775F4201023FF0D3
:10AA6000200002243BD080003F404700B01288778E
:10AA70003A5303200F4B1A1730415B03DD3F2B1570
:10AA8000F2F0DFFF0502F2F0DFFF0302F2D0200058
:10AA900005023F407D02B0128877F2F0DFFF050229
:10AAA0003F405B00B01288775B4201023F402002CA
:10AAB000B01288773BB020005920B0125262094F83
:10AAC0003A423B4033000F4B1FF3F2D02000050207
:10AAD0000D2403430343034303430343034303435B
:10AAE000F2F0DFFF05023F405300093C3F404D00BC
:10AAF000B0128877F2F0DFFF05023F400B00B01282
:10AB000088773A5302245B03DE3FB01232AA0A4F21
:10AB10003B400700B01232AACB4F88333B531B9304
:10AB2000F923B01232AA0B4F02D91A931F203D42CB
:10AB30001E430F4E1FF35E030F9302243EE08C0072
:10AB40003D53F7233D4007005F4D88330EEF3C42F5
:10AB50000F4E1FF35E030F9302243EE08C003C5324
:10AB6000F7233D531D93F0230E9B08243D420E43D3
:10AB70003F408833B01224610F43013C1F43291723
:10AB8000304132C2034382430201B0128C629242CE
:10AB9000000154328243000130419242543200019C
:10ABA00032D2B012666230410D4F3D5000E83D9008
:10ABB0000102062CB24000A54601B24040A5440166
:10ABC000B24000A5440192B34401FD23B24002A566
:10ABD00040018F430000B24000A54001B24010A5E3
:10ABE00044013D900102062CB24040A54401B24010
:10ABF00080A5460130410C4F3C5000E83C900102DA
:10AC0000062CB24000A54601B24040A54401B24026
:10AC100000A5440192B34401FD23B24040A5400188
:10AC20008F4E0000B24000A54001B24010A5440183
:10AC30003C900102062CB24040A54401B24080A5E0
:10AC4000460130415F15B012C879824FFC32D243C1
:10AC5000EE325F421D023FF040001D243F40903322
:10AC6000B01272820F930E243D4010000E433F40FD
:10AC70009033B01234823F40B4C4B0121266B1C0F7
:10AC8000F0000C005F421D025E421D027EF040009B
:10AC90004FCEC24F1D025F421D023FF080001D24B7
:10ACA0003F409833B01272820F930E243D40100043
:10ACB0000E433F409833B01234823F40C4C4B012B8
:10ACC0001266B1C0F0000C005F421D025E421D0220
:10ACD0007EF080FF4FCEC24F1D02C293EE3214248D
:10ACE0001A42C2321B42C432B012C8790C4F1C82C5
:10ACF000FC320D430E4C0F4D0E5A0F6B824EC2327A
:10AD0000824FC432C243EE325A170013D2D3E00549
:10AD1000F2D080FFE005F2406900E105C243E7059B
:10AD2000E243E605F2D00E002A02F2D00C00240223
:10AD3000F2F0FEFFFC05F2F0FDFFFC05F2F0FEFF75
:10AD4000E00530412B150B4FB012D87A3F40070079
:10AD5000B0128A7A2C4B1D4B02001C8258321D7295
:10AD60005A32094C0A4D095E0A6F8B4900008B4A22
:10AD70000200824E5832824F5A323F400600B012D3
:10AD80008A7A1C4B04001D4B06001C825C321D722B
:10AD90005E32094C0A4D095E0A6F8B4904008B4AEA
:10ADA0000600824E5C32824F5E32291730418F435B
:10ADB00004008F4306008F4300008F4302003041A0
:10ADC0003F40A033B012AEAD30413E406033AE5F85
:10ADD00000009E5F0400020030410D4F3C40603394
:10ADE0003E4C0F438D5E00008D6F02002E4C0F43D2
:10ADF0008D5E04008D6F060030410B120B4F1D4F0E
:10AE000002000E431F4F0400B0122461021232C22E
:10AE10000343924B0200C204A24BC8041D42CA0461
:10AE200032410E431F4B0600B01224613B413041BA
:10AE30001C4F02000E43163C1D4F04000D5ECD93C7
:10AE400000000F20DD430000021232C20343824E95
:10AE5000C204A24FC8041E42CA0432411E5F06004B
:10AE6000043C1E530E9CE8230E430F4E30410B1240
:10AE70001C4F06001B4F02000D43113C0C9E0D2081
:10AE80001E4F04000E5D6C4E5C9303387C53CE4C19
:10AE900000001D5F04006F4D053C2C5F1D530D9B92
:10AEA000ED237F433B4130411C4F06000E9C11288F
:10AEB000021232C20343A24FC204924F0200C804DE
:10AEC0001D42CA0432410D5C1F430E9D03280F43EF
:10AED00030410F4330410B120D4F1B4F02000F4307
:10AEE0000E43083C1C4D04000C5ECC930000012076
:10AEF0001F531E530E9BF6233B4130411B150B4F36
:10AF00001A4F04002F4A0E4B2F4FB01216841F4BBE
:10AF10000200B012629D0F4B3F500600B0127A7CC7
:10AF20000E4B1F4A0200B0126EAE1A1730410B12C0
:10AF30000B4F2F4F2F4FB012C2831F4B0200B01286
:10AF4000FAAD3B4130414B150A4F084D094E074CB5
:10AF50001F4F0200B01230AE0B4F0F932624B012D9
:10AF6000E09C8B4F02000F9306200E4B1F4A0200FD
:10AF7000B0126EAE1A3C8B4A04008B471A0008933D
:10AF8000022009930B240B123C40FCAE0D480E49E5
:10AF90000F4B3F500600B012127C21532F4A0E4B2C
:10AFA0002F4FB01260841F43013C0F4347173041BD
:10AFB0002F4F2F4FB012C88330411B150B4F2F4F0F
:10AFC0002F4FB012C8830A4F0F9313242F4B0E4AF2
:10AFD0002F4FB01216841F4A0200B012629D0F4A12
:10AFE0003F500600B0127A7C0E4A1F4B0200B0128E
:10AFF0006EAE1A1730412F4F2F4FB012868430415A
:10B000000F9303241F4F020030410F4330410F9331
:10B0100003241F4F1A0030410F4330410E43043CBC
:10B020005D4F01000E5D2F53CF930000F9230F4EAB
:10B0300030416C4F8C105F4F01000CDF7EF00F0031
:10B040004E9303240C5C7E53FB3F0F4C8F105E4DE0
:10B05000C6C50FFE3E424E8D7EF00F004E93042477
:10B0600012C30F107E53FA3F4F4F30415B150B4F09
:10B07000094E074D0A4C3C9204340D4C0E470F49C3
:10B08000363C084C58090D9302240643023C0F43FA
:10B09000193C3D420E470F490F56B01232B00E4BCD
:10B0A0000E56CE4F000016530698F33B0F480893F8
:10B0B00001340F430D4A3DF007001D240B5F0E477E
:10B0C0000F59153C0D490D5F0E4B0E5FEE4D000004
:10B0D0001F530F98F73B0C48089301340C430D4A5B
:10B0E0003DF0070008240B5C0E430F490F5CB012C3
:10B0F00032B0CB4F0000561730414B152182B012B1
:10B10000D89E0B4F2F43B012B89E0F934C245E4B2A
:10B1100001008E106F4B0F5EB01262890B4F0F93C0
:10B120004324B012D89E074F5F4B06004E4F5E0B74
:10B130003FF007001D4301200D430F4E0F5DB0127D
:10B14000B89E0F9330241A4B04000943283C584AF8
:10B1500001000E495E090D493DF007000E577C9035
:10B160001A0011280C480F412F53B0126CB06D4AD1
:10B170003D50E6FF5D020E412E530F4D3F504A33C6
:10B18000B012FC9F0A3C814300000C480F41B012F2
:10B190006CB06E4A5E02AE41523309582A536C4A73
:10B1A0004C93D523013C0B430F4B215247173041A1
:10B1B0000B123B4010000B8E4D4D4E4B4E8C7EF0D3
:10B1C0000F004E9303240D5D7E53FB3F0E4D8E10FA
:10B1D000CFDE0000CFDD01003B4130415B15074F62
:10B1E000064E0B4D094C3C9202346D4D463C0A4CC8
:10B1F0005A090E9302240843023C0E431F3C0F4B96
:10B200000F583C426D4F0E460F470F58B012B0B169
:10B210001853089AF43B0A9301340A430C493CF052
:10B2200007002D240B5A0E460E8C6D4B7E527EF07D
:10B230000F004E931E240D117E53FB3F0D4B0D5EF0
:10B240000F470F5EEF4D00001E530E9AF73B0A9317
:10B2500001340A430C493CF0070011240B5A6D4B92
:10B260003E424E8C7EF00F004E9303240D117E5310
:10B27000FB3F4D4D0E430F470F5AB012B0B156175A
:10B2800030413B1521830B4F5E4F06004F4E5F0B45
:10B290003EF007001A4301200A430A5F0F4A2F536A
:10B2A000B012129F0F933924B012E69EDF4B0200BA
:10B2B00000001E4B02008E10CF4E0100B012E69E21
:10B2C000084F28530D4A0E430F48B01224611A4B01
:10B2D00004000B431D3C594A01000F4B5F094D4EC2
:10B2E0007E901A0007283D50E6FF5D020C493D5054
:10B2F0004A33063C5D02914D523300000C490D412A
:10B300000E4B3EF007000F58B012DCB10B592A5318
:10B310006E4A4E93E0231F43013C0F4321533817DD
:10B3200030411B150B430A4B5A060E4A3E50603201
:10B330003F404A33B01204A00F9307245E4A6232A2
:10B340001F431E9266330520053C1B533B901000A3
:10B35000EA230F431A1730411B150A430E4A5E06B3
:10B360003E5060323F404A33B01204A00B4A1B5398
:10B370000F9311200A4B3B901000F0230C3C0E4B16
:10B380003E535E060F4B5F062D423E5060323F50EB
:10B390006032B01212613B53F223D2426633623202
:10B3A0003E404A333F406032B012FC9F1A17304192
:10B3B0000B123150CCFFB012F09E0B4FB012D89E42
:10B3C0000D410E4BB01232B70B4F0F933A24B0120F
:10B3D000B89E0F933624D24110007A33C2437B3398
:10B3E0005F4115004F931B241E411A003E90CDABC8
:10B3F00002243E9326206F9308243F423F530E4180
:10B400000E5FFE9300000324053C2F43F73F1F937C
:10B41000F537053C0E413F404C33B012FC9F0E41C6
:10B420003E523F404A33B012FC9FD2411200783363
:10B43000C24379335F411800824F6633824F6E33C7
:10B44000013C3B430F4B315034003B4130411B1515
:10B450003150CCFF0A4F3D4034000E430F41B01233
:10B460002461C293A0320620D243A032B012BE841F
:10B47000C24FA132D1427A331000D1427833120048
:10B48000B012EE9F0F930324C1431300033CD1423B
:10B4900068331300C1431400D14316000A931824E3
:10B4A0001E4266330E930324C14E1800113CC29312
:10B4B000A1320220D243A1325F42A132C14F180013
:10B4C0004E4F5E53C24EA132C24F6633C243673302
:10B4D000E1431700B140CDAB1A00B012EE9F0F93BD
:10B4E0000724E1431500F1430000F1430100073C4C
:10B4F0003E404C330F41B012FC9FE1431500B14078
:10B50000CDAB1C003E4086330F413F52B012FC9F32
:10B51000B012D89E814F3000B012F09E814F3200A1
:10B520000F41B012F2B50B4F0A930C24B012129FC8
:10B530000F930724B012E69E0E4F0F41B01220B6B3
:10B54000013C3B430F4B315034001A1730411F432D
:10B55000B0124EB430410F43B0124EB430411B15FF
:10B560000B4F0A4E3D4006000E430F4AB0122461B5
:10B570005F4B15003FF003000224EA4300005F4BDD
:10B5800017003FF003000224EA4302005F4B15005E
:10B590003FF003000E245F4B17003FF00300092427
:10B5A0009B9B1A001C000520DB431400CA430200C9
:10B5B000023CCB4314005F4B15007FF003006F8308
:10B5C0006F93042C4F4F5F4FD8C5013C4F43CA4F78
:10B5D00001005F4B17007FF003006F836F93042C13
:10B5E0004F4F5F4FD8C5013C4F43CA4F03001A1756
:10B5F00030413150FAFF0E41B0125EB56F413F50FD
:10B6000003005E4101000F5E5E4102000F5E5E417D
:10B6100003000F5E5E4104000F5E315006003041B2
:10B620004B153150FAFF0B4F0A4E0E41B0125EB56A
:10B630005E4B11001EF35E0A5F4B12001FF35F0E9C
:10B640004EDF5F4B10007FF007004EDF5F4B1300B3
:10B650001FF35F0E5F024EDF5F4B14001FF35F0EA0
:10B660005F064EDFCA4E00005E4B15003EF0030041
:10B670005E065F4B16003FF003005F0E4EDF5F4B30
:10B6800017005F0E5F064EDFCA4E0100DA4B18004E
:10B690000200E19300000B20DA4B1A0003001F4B5D
:10B6A0001A008F10CA4F040079400500023C79400F
:10B6B0000300584101004F430C434D480D5B073CCC
:10B6C000074D075C4E4E0E5AEE4700005F534E4941
:10B6D0004E8C3C534F98F4234F59E19302000F20B6
